
ULTRASONIC_DISTANCE_HC-SR04.elf:     file format elf32-littlearm

Sections:
Idx Name          Size      VMA       LMA       File off  Algn
  0 .isr_vector   00000194  08000000  08000000  00010000  2**0
                  CONTENTS, ALLOC, LOAD, READONLY, DATA
  1 .text         000089d0  080001a0  080001a0  000101a0  2**4
                  CONTENTS, ALLOC, LOAD, READONLY, CODE
  2 .rodata       000004c4  08008b70  08008b70  00018b70  2**3
                  CONTENTS, ALLOC, LOAD, READONLY, DATA
  3 .ARM.extab    00000000  08009034  08009034  000201e0  2**0
                  CONTENTS
  4 .ARM          00000008  08009034  08009034  00019034  2**2
                  CONTENTS, ALLOC, LOAD, READONLY, DATA
  5 .preinit_array 00000000  0800903c  0800903c  000201e0  2**0
                  CONTENTS, ALLOC, LOAD, DATA
  6 .init_array   00000004  0800903c  0800903c  0001903c  2**2
                  CONTENTS, ALLOC, LOAD, DATA
  7 .fini_array   00000004  08009040  08009040  00019040  2**2
                  CONTENTS, ALLOC, LOAD, DATA
  8 .data         000001e0  20000000  08009044  00020000  2**2
                  CONTENTS, ALLOC, LOAD, DATA
  9 .bss          00000194  200001e0  08009224  000201e0  2**2
                  ALLOC
 10 ._user_heap_stack 00000604  20000374  08009224  00020374  2**0
                  ALLOC
 11 .ARM.attributes 00000030  00000000  00000000  000201e0  2**0
                  CONTENTS, READONLY
 12 .debug_info   0000c9d1  00000000  00000000  00020210  2**0
                  CONTENTS, READONLY, DEBUGGING, OCTETS
 13 .debug_abbrev 00001a54  00000000  00000000  0002cbe1  2**0
                  CONTENTS, READONLY, DEBUGGING, OCTETS
 14 .debug_aranges 00000c38  00000000  00000000  0002e638  2**3
                  CONTENTS, READONLY, DEBUGGING, OCTETS
 15 .debug_ranges 00000b90  00000000  00000000  0002f270  2**3
                  CONTENTS, READONLY, DEBUGGING, OCTETS
 16 .debug_macro  00016de8  00000000  00000000  0002fe00  2**0
                  CONTENTS, READONLY, DEBUGGING, OCTETS
 17 .debug_line   0000d503  00000000  00000000  00046be8  2**0
                  CONTENTS, READONLY, DEBUGGING, OCTETS
 18 .debug_str    0008e743  00000000  00000000  000540eb  2**0
                  CONTENTS, READONLY, DEBUGGING, OCTETS
 19 .comment      00000050  00000000  00000000  000e282e  2**0
                  CONTENTS, READONLY
 20 .debug_frame  00004928  00000000  00000000  000e2880  2**2
                  CONTENTS, READONLY, DEBUGGING, OCTETS

Disassembly of section .text:

080001a0 <__do_global_dtors_aux>:
 80001a0:	b510      	push	{r4, lr}
 80001a2:	4c05      	ldr	r4, [pc, #20]	; (80001b8 <__do_global_dtors_aux+0x18>)
 80001a4:	7823      	ldrb	r3, [r4, #0]
 80001a6:	b933      	cbnz	r3, 80001b6 <__do_global_dtors_aux+0x16>
 80001a8:	4b04      	ldr	r3, [pc, #16]	; (80001bc <__do_global_dtors_aux+0x1c>)
 80001aa:	b113      	cbz	r3, 80001b2 <__do_global_dtors_aux+0x12>
 80001ac:	4804      	ldr	r0, [pc, #16]	; (80001c0 <__do_global_dtors_aux+0x20>)
 80001ae:	f3af 8000 	nop.w
 80001b2:	2301      	movs	r3, #1
 80001b4:	7023      	strb	r3, [r4, #0]
 80001b6:	bd10      	pop	{r4, pc}
 80001b8:	200001e0 	.word	0x200001e0
 80001bc:	00000000 	.word	0x00000000
 80001c0:	08008b58 	.word	0x08008b58

080001c4 <frame_dummy>:
 80001c4:	b508      	push	{r3, lr}
 80001c6:	4b03      	ldr	r3, [pc, #12]	; (80001d4 <frame_dummy+0x10>)
 80001c8:	b11b      	cbz	r3, 80001d2 <frame_dummy+0xe>
 80001ca:	4903      	ldr	r1, [pc, #12]	; (80001d8 <frame_dummy+0x14>)
 80001cc:	4803      	ldr	r0, [pc, #12]	; (80001dc <frame_dummy+0x18>)
 80001ce:	f3af 8000 	nop.w
 80001d2:	bd08      	pop	{r3, pc}
 80001d4:	00000000 	.word	0x00000000
 80001d8:	200001e4 	.word	0x200001e4
 80001dc:	08008b58 	.word	0x08008b58

080001e0 <strlen>:
 80001e0:	4603      	mov	r3, r0
 80001e2:	f813 2b01 	ldrb.w	r2, [r3], #1
 80001e6:	2a00      	cmp	r2, #0
 80001e8:	d1fb      	bne.n	80001e2 <strlen+0x2>
 80001ea:	1a18      	subs	r0, r3, r0
 80001ec:	3801      	subs	r0, #1
 80001ee:	4770      	bx	lr

080001f0 <memchr>:
 80001f0:	f001 01ff 	and.w	r1, r1, #255	; 0xff
 80001f4:	2a10      	cmp	r2, #16
 80001f6:	db2b      	blt.n	8000250 <memchr+0x60>
 80001f8:	f010 0f07 	tst.w	r0, #7
 80001fc:	d008      	beq.n	8000210 <memchr+0x20>
 80001fe:	f810 3b01 	ldrb.w	r3, [r0], #1
 8000202:	3a01      	subs	r2, #1
 8000204:	428b      	cmp	r3, r1
 8000206:	d02d      	beq.n	8000264 <memchr+0x74>
 8000208:	f010 0f07 	tst.w	r0, #7
 800020c:	b342      	cbz	r2, 8000260 <memchr+0x70>
 800020e:	d1f6      	bne.n	80001fe <memchr+0xe>
 8000210:	b4f0      	push	{r4, r5, r6, r7}
 8000212:	ea41 2101 	orr.w	r1, r1, r1, lsl #8
 8000216:	ea41 4101 	orr.w	r1, r1, r1, lsl #16
 800021a:	f022 0407 	bic.w	r4, r2, #7
 800021e:	f07f 0700 	mvns.w	r7, #0
 8000222:	2300      	movs	r3, #0
 8000224:	e8f0 5602 	ldrd	r5, r6, [r0], #8
 8000228:	3c08      	subs	r4, #8
 800022a:	ea85 0501 	eor.w	r5, r5, r1
 800022e:	ea86 0601 	eor.w	r6, r6, r1
 8000232:	fa85 f547 	uadd8	r5, r5, r7
 8000236:	faa3 f587 	sel	r5, r3, r7
 800023a:	fa86 f647 	uadd8	r6, r6, r7
 800023e:	faa5 f687 	sel	r6, r5, r7
 8000242:	b98e      	cbnz	r6, 8000268 <memchr+0x78>
 8000244:	d1ee      	bne.n	8000224 <memchr+0x34>
 8000246:	bcf0      	pop	{r4, r5, r6, r7}
 8000248:	f001 01ff 	and.w	r1, r1, #255	; 0xff
 800024c:	f002 0207 	and.w	r2, r2, #7
 8000250:	b132      	cbz	r2, 8000260 <memchr+0x70>
 8000252:	f810 3b01 	ldrb.w	r3, [r0], #1
 8000256:	3a01      	subs	r2, #1
 8000258:	ea83 0301 	eor.w	r3, r3, r1
 800025c:	b113      	cbz	r3, 8000264 <memchr+0x74>
 800025e:	d1f8      	bne.n	8000252 <memchr+0x62>
 8000260:	2000      	movs	r0, #0
 8000262:	4770      	bx	lr
 8000264:	3801      	subs	r0, #1
 8000266:	4770      	bx	lr
 8000268:	2d00      	cmp	r5, #0
 800026a:	bf06      	itte	eq
 800026c:	4635      	moveq	r5, r6
 800026e:	3803      	subeq	r0, #3
 8000270:	3807      	subne	r0, #7
 8000272:	f015 0f01 	tst.w	r5, #1
 8000276:	d107      	bne.n	8000288 <memchr+0x98>
 8000278:	3001      	adds	r0, #1
 800027a:	f415 7f80 	tst.w	r5, #256	; 0x100
 800027e:	bf02      	ittt	eq
 8000280:	3001      	addeq	r0, #1
 8000282:	f415 3fc0 	tsteq.w	r5, #98304	; 0x18000
 8000286:	3001      	addeq	r0, #1
 8000288:	bcf0      	pop	{r4, r5, r6, r7}
 800028a:	3801      	subs	r0, #1
 800028c:	4770      	bx	lr
 800028e:	bf00      	nop

08000290 <__aeabi_drsub>:
 8000290:	f081 4100 	eor.w	r1, r1, #2147483648	; 0x80000000
 8000294:	e002      	b.n	800029c <__adddf3>
 8000296:	bf00      	nop

08000298 <__aeabi_dsub>:
 8000298:	f083 4300 	eor.w	r3, r3, #2147483648	; 0x80000000

0800029c <__adddf3>:
 800029c:	b530      	push	{r4, r5, lr}
 800029e:	ea4f 0441 	mov.w	r4, r1, lsl #1
 80002a2:	ea4f 0543 	mov.w	r5, r3, lsl #1
 80002a6:	ea94 0f05 	teq	r4, r5
 80002aa:	bf08      	it	eq
 80002ac:	ea90 0f02 	teqeq	r0, r2
 80002b0:	bf1f      	itttt	ne
 80002b2:	ea54 0c00 	orrsne.w	ip, r4, r0
 80002b6:	ea55 0c02 	orrsne.w	ip, r5, r2
 80002ba:	ea7f 5c64 	mvnsne.w	ip, r4, asr #21
 80002be:	ea7f 5c65 	mvnsne.w	ip, r5, asr #21
 80002c2:	f000 80e2 	beq.w	800048a <__adddf3+0x1ee>
 80002c6:	ea4f 5454 	mov.w	r4, r4, lsr #21
 80002ca:	ebd4 5555 	rsbs	r5, r4, r5, lsr #21
 80002ce:	bfb8      	it	lt
 80002d0:	426d      	neglt	r5, r5
 80002d2:	dd0c      	ble.n	80002ee <__adddf3+0x52>
 80002d4:	442c      	add	r4, r5
 80002d6:	ea80 0202 	eor.w	r2, r0, r2
 80002da:	ea81 0303 	eor.w	r3, r1, r3
 80002de:	ea82 0000 	eor.w	r0, r2, r0
 80002e2:	ea83 0101 	eor.w	r1, r3, r1
 80002e6:	ea80 0202 	eor.w	r2, r0, r2
 80002ea:	ea81 0303 	eor.w	r3, r1, r3
 80002ee:	2d36      	cmp	r5, #54	; 0x36
 80002f0:	bf88      	it	hi
 80002f2:	bd30      	pophi	{r4, r5, pc}
 80002f4:	f011 4f00 	tst.w	r1, #2147483648	; 0x80000000
 80002f8:	ea4f 3101 	mov.w	r1, r1, lsl #12
 80002fc:	f44f 1c80 	mov.w	ip, #1048576	; 0x100000
 8000300:	ea4c 3111 	orr.w	r1, ip, r1, lsr #12
 8000304:	d002      	beq.n	800030c <__adddf3+0x70>
 8000306:	4240      	negs	r0, r0
 8000308:	eb61 0141 	sbc.w	r1, r1, r1, lsl #1
 800030c:	f013 4f00 	tst.w	r3, #2147483648	; 0x80000000
 8000310:	ea4f 3303 	mov.w	r3, r3, lsl #12
 8000314:	ea4c 3313 	orr.w	r3, ip, r3, lsr #12
 8000318:	d002      	beq.n	8000320 <__adddf3+0x84>
 800031a:	4252      	negs	r2, r2
 800031c:	eb63 0343 	sbc.w	r3, r3, r3, lsl #1
 8000320:	ea94 0f05 	teq	r4, r5
 8000324:	f000 80a7 	beq.w	8000476 <__adddf3+0x1da>
 8000328:	f1a4 0401 	sub.w	r4, r4, #1
 800032c:	f1d5 0e20 	rsbs	lr, r5, #32
 8000330:	db0d      	blt.n	800034e <__adddf3+0xb2>
 8000332:	fa02 fc0e 	lsl.w	ip, r2, lr
 8000336:	fa22 f205 	lsr.w	r2, r2, r5
 800033a:	1880      	adds	r0, r0, r2
 800033c:	f141 0100 	adc.w	r1, r1, #0
 8000340:	fa03 f20e 	lsl.w	r2, r3, lr
 8000344:	1880      	adds	r0, r0, r2
 8000346:	fa43 f305 	asr.w	r3, r3, r5
 800034a:	4159      	adcs	r1, r3
 800034c:	e00e      	b.n	800036c <__adddf3+0xd0>
 800034e:	f1a5 0520 	sub.w	r5, r5, #32
 8000352:	f10e 0e20 	add.w	lr, lr, #32
 8000356:	2a01      	cmp	r2, #1
 8000358:	fa03 fc0e 	lsl.w	ip, r3, lr
 800035c:	bf28      	it	cs
 800035e:	f04c 0c02 	orrcs.w	ip, ip, #2
 8000362:	fa43 f305 	asr.w	r3, r3, r5
 8000366:	18c0      	adds	r0, r0, r3
 8000368:	eb51 71e3 	adcs.w	r1, r1, r3, asr #31
 800036c:	f001 4500 	and.w	r5, r1, #2147483648	; 0x80000000
 8000370:	d507      	bpl.n	8000382 <__adddf3+0xe6>
 8000372:	f04f 0e00 	mov.w	lr, #0
 8000376:	f1dc 0c00 	rsbs	ip, ip, #0
 800037a:	eb7e 0000 	sbcs.w	r0, lr, r0
 800037e:	eb6e 0101 	sbc.w	r1, lr, r1
 8000382:	f5b1 1f80 	cmp.w	r1, #1048576	; 0x100000
 8000386:	d31b      	bcc.n	80003c0 <__adddf3+0x124>
 8000388:	f5b1 1f00 	cmp.w	r1, #2097152	; 0x200000
 800038c:	d30c      	bcc.n	80003a8 <__adddf3+0x10c>
 800038e:	0849      	lsrs	r1, r1, #1
 8000390:	ea5f 0030 	movs.w	r0, r0, rrx
 8000394:	ea4f 0c3c 	mov.w	ip, ip, rrx
 8000398:	f104 0401 	add.w	r4, r4, #1
 800039c:	ea4f 5244 	mov.w	r2, r4, lsl #21
 80003a0:	f512 0f80 	cmn.w	r2, #4194304	; 0x400000
 80003a4:	f080 809a 	bcs.w	80004dc <__adddf3+0x240>
 80003a8:	f1bc 4f00 	cmp.w	ip, #2147483648	; 0x80000000
 80003ac:	bf08      	it	eq
 80003ae:	ea5f 0c50 	movseq.w	ip, r0, lsr #1
 80003b2:	f150 0000 	adcs.w	r0, r0, #0
 80003b6:	eb41 5104 	adc.w	r1, r1, r4, lsl #20
 80003ba:	ea41 0105 	orr.w	r1, r1, r5
 80003be:	bd30      	pop	{r4, r5, pc}
 80003c0:	ea5f 0c4c 	movs.w	ip, ip, lsl #1
 80003c4:	4140      	adcs	r0, r0
 80003c6:	eb41 0101 	adc.w	r1, r1, r1
 80003ca:	3c01      	subs	r4, #1
 80003cc:	bf28      	it	cs
 80003ce:	f5b1 1f80 	cmpcs.w	r1, #1048576	; 0x100000
 80003d2:	d2e9      	bcs.n	80003a8 <__adddf3+0x10c>
 80003d4:	f091 0f00 	teq	r1, #0
 80003d8:	bf04      	itt	eq
 80003da:	4601      	moveq	r1, r0
 80003dc:	2000      	moveq	r0, #0
 80003de:	fab1 f381 	clz	r3, r1
 80003e2:	bf08      	it	eq
 80003e4:	3320      	addeq	r3, #32
 80003e6:	f1a3 030b 	sub.w	r3, r3, #11
 80003ea:	f1b3 0220 	subs.w	r2, r3, #32
 80003ee:	da0c      	bge.n	800040a <__adddf3+0x16e>
 80003f0:	320c      	adds	r2, #12
 80003f2:	dd08      	ble.n	8000406 <__adddf3+0x16a>
 80003f4:	f102 0c14 	add.w	ip, r2, #20
 80003f8:	f1c2 020c 	rsb	r2, r2, #12
 80003fc:	fa01 f00c 	lsl.w	r0, r1, ip
 8000400:	fa21 f102 	lsr.w	r1, r1, r2
 8000404:	e00c      	b.n	8000420 <__adddf3+0x184>
 8000406:	f102 0214 	add.w	r2, r2, #20
 800040a:	bfd8      	it	le
 800040c:	f1c2 0c20 	rsble	ip, r2, #32
 8000410:	fa01 f102 	lsl.w	r1, r1, r2
 8000414:	fa20 fc0c 	lsr.w	ip, r0, ip
 8000418:	bfdc      	itt	le
 800041a:	ea41 010c 	orrle.w	r1, r1, ip
 800041e:	4090      	lslle	r0, r2
 8000420:	1ae4      	subs	r4, r4, r3
 8000422:	bfa2      	ittt	ge
 8000424:	eb01 5104 	addge.w	r1, r1, r4, lsl #20
 8000428:	4329      	orrge	r1, r5
 800042a:	bd30      	popge	{r4, r5, pc}
 800042c:	ea6f 0404 	mvn.w	r4, r4
 8000430:	3c1f      	subs	r4, #31
 8000432:	da1c      	bge.n	800046e <__adddf3+0x1d2>
 8000434:	340c      	adds	r4, #12
 8000436:	dc0e      	bgt.n	8000456 <__adddf3+0x1ba>
 8000438:	f104 0414 	add.w	r4, r4, #20
 800043c:	f1c4 0220 	rsb	r2, r4, #32
 8000440:	fa20 f004 	lsr.w	r0, r0, r4
 8000444:	fa01 f302 	lsl.w	r3, r1, r2
 8000448:	ea40 0003 	orr.w	r0, r0, r3
 800044c:	fa21 f304 	lsr.w	r3, r1, r4
 8000450:	ea45 0103 	orr.w	r1, r5, r3
 8000454:	bd30      	pop	{r4, r5, pc}
 8000456:	f1c4 040c 	rsb	r4, r4, #12
 800045a:	f1c4 0220 	rsb	r2, r4, #32
 800045e:	fa20 f002 	lsr.w	r0, r0, r2
 8000462:	fa01 f304 	lsl.w	r3, r1, r4
 8000466:	ea40 0003 	orr.w	r0, r0, r3
 800046a:	4629      	mov	r1, r5
 800046c:	bd30      	pop	{r4, r5, pc}
 800046e:	fa21 f004 	lsr.w	r0, r1, r4
 8000472:	4629      	mov	r1, r5
 8000474:	bd30      	pop	{r4, r5, pc}
 8000476:	f094 0f00 	teq	r4, #0
 800047a:	f483 1380 	eor.w	r3, r3, #1048576	; 0x100000
 800047e:	bf06      	itte	eq
 8000480:	f481 1180 	eoreq.w	r1, r1, #1048576	; 0x100000
 8000484:	3401      	addeq	r4, #1
 8000486:	3d01      	subne	r5, #1
 8000488:	e74e      	b.n	8000328 <__adddf3+0x8c>
 800048a:	ea7f 5c64 	mvns.w	ip, r4, asr #21
 800048e:	bf18      	it	ne
 8000490:	ea7f 5c65 	mvnsne.w	ip, r5, asr #21
 8000494:	d029      	beq.n	80004ea <__adddf3+0x24e>
 8000496:	ea94 0f05 	teq	r4, r5
 800049a:	bf08      	it	eq
 800049c:	ea90 0f02 	teqeq	r0, r2
 80004a0:	d005      	beq.n	80004ae <__adddf3+0x212>
 80004a2:	ea54 0c00 	orrs.w	ip, r4, r0
 80004a6:	bf04      	itt	eq
 80004a8:	4619      	moveq	r1, r3
 80004aa:	4610      	moveq	r0, r2
 80004ac:	bd30      	pop	{r4, r5, pc}
 80004ae:	ea91 0f03 	teq	r1, r3
 80004b2:	bf1e      	ittt	ne
 80004b4:	2100      	movne	r1, #0
 80004b6:	2000      	movne	r0, #0
 80004b8:	bd30      	popne	{r4, r5, pc}
 80004ba:	ea5f 5c54 	movs.w	ip, r4, lsr #21
 80004be:	d105      	bne.n	80004cc <__adddf3+0x230>
 80004c0:	0040      	lsls	r0, r0, #1
 80004c2:	4149      	adcs	r1, r1
 80004c4:	bf28      	it	cs
 80004c6:	f041 4100 	orrcs.w	r1, r1, #2147483648	; 0x80000000
 80004ca:	bd30      	pop	{r4, r5, pc}
 80004cc:	f514 0480 	adds.w	r4, r4, #4194304	; 0x400000
 80004d0:	bf3c      	itt	cc
 80004d2:	f501 1180 	addcc.w	r1, r1, #1048576	; 0x100000
 80004d6:	bd30      	popcc	{r4, r5, pc}
 80004d8:	f001 4500 	and.w	r5, r1, #2147483648	; 0x80000000
 80004dc:	f045 41fe 	orr.w	r1, r5, #2130706432	; 0x7f000000
 80004e0:	f441 0170 	orr.w	r1, r1, #15728640	; 0xf00000
 80004e4:	f04f 0000 	mov.w	r0, #0
 80004e8:	bd30      	pop	{r4, r5, pc}
 80004ea:	ea7f 5c64 	mvns.w	ip, r4, asr #21
 80004ee:	bf1a      	itte	ne
 80004f0:	4619      	movne	r1, r3
 80004f2:	4610      	movne	r0, r2
 80004f4:	ea7f 5c65 	mvnseq.w	ip, r5, asr #21
 80004f8:	bf1c      	itt	ne
 80004fa:	460b      	movne	r3, r1
 80004fc:	4602      	movne	r2, r0
 80004fe:	ea50 3401 	orrs.w	r4, r0, r1, lsl #12
 8000502:	bf06      	itte	eq
 8000504:	ea52 3503 	orrseq.w	r5, r2, r3, lsl #12
 8000508:	ea91 0f03 	teqeq	r1, r3
 800050c:	f441 2100 	orrne.w	r1, r1, #524288	; 0x80000
 8000510:	bd30      	pop	{r4, r5, pc}
 8000512:	bf00      	nop

08000514 <__aeabi_ui2d>:
 8000514:	f090 0f00 	teq	r0, #0
 8000518:	bf04      	itt	eq
 800051a:	2100      	moveq	r1, #0
 800051c:	4770      	bxeq	lr
 800051e:	b530      	push	{r4, r5, lr}
 8000520:	f44f 6480 	mov.w	r4, #1024	; 0x400
 8000524:	f104 0432 	add.w	r4, r4, #50	; 0x32
 8000528:	f04f 0500 	mov.w	r5, #0
 800052c:	f04f 0100 	mov.w	r1, #0
 8000530:	e750      	b.n	80003d4 <__adddf3+0x138>
 8000532:	bf00      	nop

08000534 <__aeabi_i2d>:
 8000534:	f090 0f00 	teq	r0, #0
 8000538:	bf04      	itt	eq
 800053a:	2100      	moveq	r1, #0
 800053c:	4770      	bxeq	lr
 800053e:	b530      	push	{r4, r5, lr}
 8000540:	f44f 6480 	mov.w	r4, #1024	; 0x400
 8000544:	f104 0432 	add.w	r4, r4, #50	; 0x32
 8000548:	f010 4500 	ands.w	r5, r0, #2147483648	; 0x80000000
 800054c:	bf48      	it	mi
 800054e:	4240      	negmi	r0, r0
 8000550:	f04f 0100 	mov.w	r1, #0
 8000554:	e73e      	b.n	80003d4 <__adddf3+0x138>
 8000556:	bf00      	nop

08000558 <__aeabi_f2d>:
 8000558:	0042      	lsls	r2, r0, #1
 800055a:	ea4f 01e2 	mov.w	r1, r2, asr #3
 800055e:	ea4f 0131 	mov.w	r1, r1, rrx
 8000562:	ea4f 7002 	mov.w	r0, r2, lsl #28
 8000566:	bf1f      	itttt	ne
 8000568:	f012 437f 	andsne.w	r3, r2, #4278190080	; 0xff000000
 800056c:	f093 4f7f 	teqne	r3, #4278190080	; 0xff000000
 8000570:	f081 5160 	eorne.w	r1, r1, #939524096	; 0x38000000
 8000574:	4770      	bxne	lr
 8000576:	f032 427f 	bics.w	r2, r2, #4278190080	; 0xff000000
 800057a:	bf08      	it	eq
 800057c:	4770      	bxeq	lr
 800057e:	f093 4f7f 	teq	r3, #4278190080	; 0xff000000
 8000582:	bf04      	itt	eq
 8000584:	f441 2100 	orreq.w	r1, r1, #524288	; 0x80000
 8000588:	4770      	bxeq	lr
 800058a:	b530      	push	{r4, r5, lr}
 800058c:	f44f 7460 	mov.w	r4, #896	; 0x380
 8000590:	f001 4500 	and.w	r5, r1, #2147483648	; 0x80000000
 8000594:	f021 4100 	bic.w	r1, r1, #2147483648	; 0x80000000
 8000598:	e71c      	b.n	80003d4 <__adddf3+0x138>
 800059a:	bf00      	nop

0800059c <__aeabi_ul2d>:
 800059c:	ea50 0201 	orrs.w	r2, r0, r1
 80005a0:	bf08      	it	eq
 80005a2:	4770      	bxeq	lr
 80005a4:	b530      	push	{r4, r5, lr}
 80005a6:	f04f 0500 	mov.w	r5, #0
 80005aa:	e00a      	b.n	80005c2 <__aeabi_l2d+0x16>

080005ac <__aeabi_l2d>:
 80005ac:	ea50 0201 	orrs.w	r2, r0, r1
 80005b0:	bf08      	it	eq
 80005b2:	4770      	bxeq	lr
 80005b4:	b530      	push	{r4, r5, lr}
 80005b6:	f011 4500 	ands.w	r5, r1, #2147483648	; 0x80000000
 80005ba:	d502      	bpl.n	80005c2 <__aeabi_l2d+0x16>
 80005bc:	4240      	negs	r0, r0
 80005be:	eb61 0141 	sbc.w	r1, r1, r1, lsl #1
 80005c2:	f44f 6480 	mov.w	r4, #1024	; 0x400
 80005c6:	f104 0432 	add.w	r4, r4, #50	; 0x32
 80005ca:	ea5f 5c91 	movs.w	ip, r1, lsr #22
 80005ce:	f43f aed8 	beq.w	8000382 <__adddf3+0xe6>
 80005d2:	f04f 0203 	mov.w	r2, #3
 80005d6:	ea5f 0cdc 	movs.w	ip, ip, lsr #3
 80005da:	bf18      	it	ne
 80005dc:	3203      	addne	r2, #3
 80005de:	ea5f 0cdc 	movs.w	ip, ip, lsr #3
 80005e2:	bf18      	it	ne
 80005e4:	3203      	addne	r2, #3
 80005e6:	eb02 02dc 	add.w	r2, r2, ip, lsr #3
 80005ea:	f1c2 0320 	rsb	r3, r2, #32
 80005ee:	fa00 fc03 	lsl.w	ip, r0, r3
 80005f2:	fa20 f002 	lsr.w	r0, r0, r2
 80005f6:	fa01 fe03 	lsl.w	lr, r1, r3
 80005fa:	ea40 000e 	orr.w	r0, r0, lr
 80005fe:	fa21 f102 	lsr.w	r1, r1, r2
 8000602:	4414      	add	r4, r2
 8000604:	e6bd      	b.n	8000382 <__adddf3+0xe6>
 8000606:	bf00      	nop

08000608 <__aeabi_dmul>:
 8000608:	b570      	push	{r4, r5, r6, lr}
 800060a:	f04f 0cff 	mov.w	ip, #255	; 0xff
 800060e:	f44c 6ce0 	orr.w	ip, ip, #1792	; 0x700
 8000612:	ea1c 5411 	ands.w	r4, ip, r1, lsr #20
 8000616:	bf1d      	ittte	ne
 8000618:	ea1c 5513 	andsne.w	r5, ip, r3, lsr #20
 800061c:	ea94 0f0c 	teqne	r4, ip
 8000620:	ea95 0f0c 	teqne	r5, ip
 8000624:	f000 f8de 	bleq	80007e4 <__aeabi_dmul+0x1dc>
 8000628:	442c      	add	r4, r5
 800062a:	ea81 0603 	eor.w	r6, r1, r3
 800062e:	ea21 514c 	bic.w	r1, r1, ip, lsl #21
 8000632:	ea23 534c 	bic.w	r3, r3, ip, lsl #21
 8000636:	ea50 3501 	orrs.w	r5, r0, r1, lsl #12
 800063a:	bf18      	it	ne
 800063c:	ea52 3503 	orrsne.w	r5, r2, r3, lsl #12
 8000640:	f441 1180 	orr.w	r1, r1, #1048576	; 0x100000
 8000644:	f443 1380 	orr.w	r3, r3, #1048576	; 0x100000
 8000648:	d038      	beq.n	80006bc <__aeabi_dmul+0xb4>
 800064a:	fba0 ce02 	umull	ip, lr, r0, r2
 800064e:	f04f 0500 	mov.w	r5, #0
 8000652:	fbe1 e502 	umlal	lr, r5, r1, r2
 8000656:	f006 4200 	and.w	r2, r6, #2147483648	; 0x80000000
 800065a:	fbe0 e503 	umlal	lr, r5, r0, r3
 800065e:	f04f 0600 	mov.w	r6, #0
 8000662:	fbe1 5603 	umlal	r5, r6, r1, r3
 8000666:	f09c 0f00 	teq	ip, #0
 800066a:	bf18      	it	ne
 800066c:	f04e 0e01 	orrne.w	lr, lr, #1
 8000670:	f1a4 04ff 	sub.w	r4, r4, #255	; 0xff
 8000674:	f5b6 7f00 	cmp.w	r6, #512	; 0x200
 8000678:	f564 7440 	sbc.w	r4, r4, #768	; 0x300
 800067c:	d204      	bcs.n	8000688 <__aeabi_dmul+0x80>
 800067e:	ea5f 0e4e 	movs.w	lr, lr, lsl #1
 8000682:	416d      	adcs	r5, r5
 8000684:	eb46 0606 	adc.w	r6, r6, r6
 8000688:	ea42 21c6 	orr.w	r1, r2, r6, lsl #11
 800068c:	ea41 5155 	orr.w	r1, r1, r5, lsr #21
 8000690:	ea4f 20c5 	mov.w	r0, r5, lsl #11
 8000694:	ea40 505e 	orr.w	r0, r0, lr, lsr #21
 8000698:	ea4f 2ece 	mov.w	lr, lr, lsl #11
 800069c:	f1b4 0cfd 	subs.w	ip, r4, #253	; 0xfd
 80006a0:	bf88      	it	hi
 80006a2:	f5bc 6fe0 	cmphi.w	ip, #1792	; 0x700
 80006a6:	d81e      	bhi.n	80006e6 <__aeabi_dmul+0xde>
 80006a8:	f1be 4f00 	cmp.w	lr, #2147483648	; 0x80000000
 80006ac:	bf08      	it	eq
 80006ae:	ea5f 0e50 	movseq.w	lr, r0, lsr #1
 80006b2:	f150 0000 	adcs.w	r0, r0, #0
 80006b6:	eb41 5104 	adc.w	r1, r1, r4, lsl #20
 80006ba:	bd70      	pop	{r4, r5, r6, pc}
 80006bc:	f006 4600 	and.w	r6, r6, #2147483648	; 0x80000000
 80006c0:	ea46 0101 	orr.w	r1, r6, r1
 80006c4:	ea40 0002 	orr.w	r0, r0, r2
 80006c8:	ea81 0103 	eor.w	r1, r1, r3
 80006cc:	ebb4 045c 	subs.w	r4, r4, ip, lsr #1
 80006d0:	bfc2      	ittt	gt
 80006d2:	ebd4 050c 	rsbsgt	r5, r4, ip
 80006d6:	ea41 5104 	orrgt.w	r1, r1, r4, lsl #20
 80006da:	bd70      	popgt	{r4, r5, r6, pc}
 80006dc:	f441 1180 	orr.w	r1, r1, #1048576	; 0x100000
 80006e0:	f04f 0e00 	mov.w	lr, #0
 80006e4:	3c01      	subs	r4, #1
 80006e6:	f300 80ab 	bgt.w	8000840 <__aeabi_dmul+0x238>
 80006ea:	f114 0f36 	cmn.w	r4, #54	; 0x36
 80006ee:	bfde      	ittt	le
 80006f0:	2000      	movle	r0, #0
 80006f2:	f001 4100 	andle.w	r1, r1, #2147483648	; 0x80000000
 80006f6:	bd70      	pople	{r4, r5, r6, pc}
 80006f8:	f1c4 0400 	rsb	r4, r4, #0
 80006fc:	3c20      	subs	r4, #32
 80006fe:	da35      	bge.n	800076c <__aeabi_dmul+0x164>
 8000700:	340c      	adds	r4, #12
 8000702:	dc1b      	bgt.n	800073c <__aeabi_dmul+0x134>
 8000704:	f104 0414 	add.w	r4, r4, #20
 8000708:	f1c4 0520 	rsb	r5, r4, #32
 800070c:	fa00 f305 	lsl.w	r3, r0, r5
 8000710:	fa20 f004 	lsr.w	r0, r0, r4
 8000714:	fa01 f205 	lsl.w	r2, r1, r5
 8000718:	ea40 0002 	orr.w	r0, r0, r2
 800071c:	f001 4200 	and.w	r2, r1, #2147483648	; 0x80000000
 8000720:	f021 4100 	bic.w	r1, r1, #2147483648	; 0x80000000
 8000724:	eb10 70d3 	adds.w	r0, r0, r3, lsr #31
 8000728:	fa21 f604 	lsr.w	r6, r1, r4
 800072c:	eb42 0106 	adc.w	r1, r2, r6
 8000730:	ea5e 0e43 	orrs.w	lr, lr, r3, lsl #1
 8000734:	bf08      	it	eq
 8000736:	ea20 70d3 	biceq.w	r0, r0, r3, lsr #31
 800073a:	bd70      	pop	{r4, r5, r6, pc}
 800073c:	f1c4 040c 	rsb	r4, r4, #12
 8000740:	f1c4 0520 	rsb	r5, r4, #32
 8000744:	fa00 f304 	lsl.w	r3, r0, r4
 8000748:	fa20 f005 	lsr.w	r0, r0, r5
 800074c:	fa01 f204 	lsl.w	r2, r1, r4
 8000750:	ea40 0002 	orr.w	r0, r0, r2
 8000754:	f001 4100 	and.w	r1, r1, #2147483648	; 0x80000000
 8000758:	eb10 70d3 	adds.w	r0, r0, r3, lsr #31
 800075c:	f141 0100 	adc.w	r1, r1, #0
 8000760:	ea5e 0e43 	orrs.w	lr, lr, r3, lsl #1
 8000764:	bf08      	it	eq
 8000766:	ea20 70d3 	biceq.w	r0, r0, r3, lsr #31
 800076a:	bd70      	pop	{r4, r5, r6, pc}
 800076c:	f1c4 0520 	rsb	r5, r4, #32
 8000770:	fa00 f205 	lsl.w	r2, r0, r5
 8000774:	ea4e 0e02 	orr.w	lr, lr, r2
 8000778:	fa20 f304 	lsr.w	r3, r0, r4
 800077c:	fa01 f205 	lsl.w	r2, r1, r5
 8000780:	ea43 0302 	orr.w	r3, r3, r2
 8000784:	fa21 f004 	lsr.w	r0, r1, r4
 8000788:	f001 4100 	and.w	r1, r1, #2147483648	; 0x80000000
 800078c:	fa21 f204 	lsr.w	r2, r1, r4
 8000790:	ea20 0002 	bic.w	r0, r0, r2
 8000794:	eb00 70d3 	add.w	r0, r0, r3, lsr #31
 8000798:	ea5e 0e43 	orrs.w	lr, lr, r3, lsl #1
 800079c:	bf08      	it	eq
 800079e:	ea20 70d3 	biceq.w	r0, r0, r3, lsr #31
 80007a2:	bd70      	pop	{r4, r5, r6, pc}
 80007a4:	f094 0f00 	teq	r4, #0
 80007a8:	d10f      	bne.n	80007ca <__aeabi_dmul+0x1c2>
 80007aa:	f001 4600 	and.w	r6, r1, #2147483648	; 0x80000000
 80007ae:	0040      	lsls	r0, r0, #1
 80007b0:	eb41 0101 	adc.w	r1, r1, r1
 80007b4:	f411 1f80 	tst.w	r1, #1048576	; 0x100000
 80007b8:	bf08      	it	eq
 80007ba:	3c01      	subeq	r4, #1
 80007bc:	d0f7      	beq.n	80007ae <__aeabi_dmul+0x1a6>
 80007be:	ea41 0106 	orr.w	r1, r1, r6
 80007c2:	f095 0f00 	teq	r5, #0
 80007c6:	bf18      	it	ne
 80007c8:	4770      	bxne	lr
 80007ca:	f003 4600 	and.w	r6, r3, #2147483648	; 0x80000000
 80007ce:	0052      	lsls	r2, r2, #1
 80007d0:	eb43 0303 	adc.w	r3, r3, r3
 80007d4:	f413 1f80 	tst.w	r3, #1048576	; 0x100000
 80007d8:	bf08      	it	eq
 80007da:	3d01      	subeq	r5, #1
 80007dc:	d0f7      	beq.n	80007ce <__aeabi_dmul+0x1c6>
 80007de:	ea43 0306 	orr.w	r3, r3, r6
 80007e2:	4770      	bx	lr
 80007e4:	ea94 0f0c 	teq	r4, ip
 80007e8:	ea0c 5513 	and.w	r5, ip, r3, lsr #20
 80007ec:	bf18      	it	ne
 80007ee:	ea95 0f0c 	teqne	r5, ip
 80007f2:	d00c      	beq.n	800080e <__aeabi_dmul+0x206>
 80007f4:	ea50 0641 	orrs.w	r6, r0, r1, lsl #1
 80007f8:	bf18      	it	ne
 80007fa:	ea52 0643 	orrsne.w	r6, r2, r3, lsl #1
 80007fe:	d1d1      	bne.n	80007a4 <__aeabi_dmul+0x19c>
 8000800:	ea81 0103 	eor.w	r1, r1, r3
 8000804:	f001 4100 	and.w	r1, r1, #2147483648	; 0x80000000
 8000808:	f04f 0000 	mov.w	r0, #0
 800080c:	bd70      	pop	{r4, r5, r6, pc}
 800080e:	ea50 0641 	orrs.w	r6, r0, r1, lsl #1
 8000812:	bf06      	itte	eq
 8000814:	4610      	moveq	r0, r2
 8000816:	4619      	moveq	r1, r3
 8000818:	ea52 0643 	orrsne.w	r6, r2, r3, lsl #1
 800081c:	d019      	beq.n	8000852 <__aeabi_dmul+0x24a>
 800081e:	ea94 0f0c 	teq	r4, ip
 8000822:	d102      	bne.n	800082a <__aeabi_dmul+0x222>
 8000824:	ea50 3601 	orrs.w	r6, r0, r1, lsl #12
 8000828:	d113      	bne.n	8000852 <__aeabi_dmul+0x24a>
 800082a:	ea95 0f0c 	teq	r5, ip
 800082e:	d105      	bne.n	800083c <__aeabi_dmul+0x234>
 8000830:	ea52 3603 	orrs.w	r6, r2, r3, lsl #12
 8000834:	bf1c      	itt	ne
 8000836:	4610      	movne	r0, r2
 8000838:	4619      	movne	r1, r3
 800083a:	d10a      	bne.n	8000852 <__aeabi_dmul+0x24a>
 800083c:	ea81 0103 	eor.w	r1, r1, r3
 8000840:	f001 4100 	and.w	r1, r1, #2147483648	; 0x80000000
 8000844:	f041 41fe 	orr.w	r1, r1, #2130706432	; 0x7f000000
 8000848:	f441 0170 	orr.w	r1, r1, #15728640	; 0xf00000
 800084c:	f04f 0000 	mov.w	r0, #0
 8000850:	bd70      	pop	{r4, r5, r6, pc}
 8000852:	f041 41fe 	orr.w	r1, r1, #2130706432	; 0x7f000000
 8000856:	f441 0178 	orr.w	r1, r1, #16252928	; 0xf80000
 800085a:	bd70      	pop	{r4, r5, r6, pc}

0800085c <__aeabi_ddiv>:
 800085c:	b570      	push	{r4, r5, r6, lr}
 800085e:	f04f 0cff 	mov.w	ip, #255	; 0xff
 8000862:	f44c 6ce0 	orr.w	ip, ip, #1792	; 0x700
 8000866:	ea1c 5411 	ands.w	r4, ip, r1, lsr #20
 800086a:	bf1d      	ittte	ne
 800086c:	ea1c 5513 	andsne.w	r5, ip, r3, lsr #20
 8000870:	ea94 0f0c 	teqne	r4, ip
 8000874:	ea95 0f0c 	teqne	r5, ip
 8000878:	f000 f8a7 	bleq	80009ca <__aeabi_ddiv+0x16e>
 800087c:	eba4 0405 	sub.w	r4, r4, r5
 8000880:	ea81 0e03 	eor.w	lr, r1, r3
 8000884:	ea52 3503 	orrs.w	r5, r2, r3, lsl #12
 8000888:	ea4f 3101 	mov.w	r1, r1, lsl #12
 800088c:	f000 8088 	beq.w	80009a0 <__aeabi_ddiv+0x144>
 8000890:	ea4f 3303 	mov.w	r3, r3, lsl #12
 8000894:	f04f 5580 	mov.w	r5, #268435456	; 0x10000000
 8000898:	ea45 1313 	orr.w	r3, r5, r3, lsr #4
 800089c:	ea43 6312 	orr.w	r3, r3, r2, lsr #24
 80008a0:	ea4f 2202 	mov.w	r2, r2, lsl #8
 80008a4:	ea45 1511 	orr.w	r5, r5, r1, lsr #4
 80008a8:	ea45 6510 	orr.w	r5, r5, r0, lsr #24
 80008ac:	ea4f 2600 	mov.w	r6, r0, lsl #8
 80008b0:	f00e 4100 	and.w	r1, lr, #2147483648	; 0x80000000
 80008b4:	429d      	cmp	r5, r3
 80008b6:	bf08      	it	eq
 80008b8:	4296      	cmpeq	r6, r2
 80008ba:	f144 04fd 	adc.w	r4, r4, #253	; 0xfd
 80008be:	f504 7440 	add.w	r4, r4, #768	; 0x300
 80008c2:	d202      	bcs.n	80008ca <__aeabi_ddiv+0x6e>
 80008c4:	085b      	lsrs	r3, r3, #1
 80008c6:	ea4f 0232 	mov.w	r2, r2, rrx
 80008ca:	1ab6      	subs	r6, r6, r2
 80008cc:	eb65 0503 	sbc.w	r5, r5, r3
 80008d0:	085b      	lsrs	r3, r3, #1
 80008d2:	ea4f 0232 	mov.w	r2, r2, rrx
 80008d6:	f44f 1080 	mov.w	r0, #1048576	; 0x100000
 80008da:	f44f 2c00 	mov.w	ip, #524288	; 0x80000
 80008de:	ebb6 0e02 	subs.w	lr, r6, r2
 80008e2:	eb75 0e03 	sbcs.w	lr, r5, r3
 80008e6:	bf22      	ittt	cs
 80008e8:	1ab6      	subcs	r6, r6, r2
 80008ea:	4675      	movcs	r5, lr
 80008ec:	ea40 000c 	orrcs.w	r0, r0, ip
 80008f0:	085b      	lsrs	r3, r3, #1
 80008f2:	ea4f 0232 	mov.w	r2, r2, rrx
 80008f6:	ebb6 0e02 	subs.w	lr, r6, r2
 80008fa:	eb75 0e03 	sbcs.w	lr, r5, r3
 80008fe:	bf22      	ittt	cs
 8000900:	1ab6      	subcs	r6, r6, r2
 8000902:	4675      	movcs	r5, lr
 8000904:	ea40 005c 	orrcs.w	r0, r0, ip, lsr #1
 8000908:	085b      	lsrs	r3, r3, #1
 800090a:	ea4f 0232 	mov.w	r2, r2, rrx
 800090e:	ebb6 0e02 	subs.w	lr, r6, r2
 8000912:	eb75 0e03 	sbcs.w	lr, r5, r3
 8000916:	bf22      	ittt	cs
 8000918:	1ab6      	subcs	r6, r6, r2
 800091a:	4675      	movcs	r5, lr
 800091c:	ea40 009c 	orrcs.w	r0, r0, ip, lsr #2
 8000920:	085b      	lsrs	r3, r3, #1
 8000922:	ea4f 0232 	mov.w	r2, r2, rrx
 8000926:	ebb6 0e02 	subs.w	lr, r6, r2
 800092a:	eb75 0e03 	sbcs.w	lr, r5, r3
 800092e:	bf22      	ittt	cs
 8000930:	1ab6      	subcs	r6, r6, r2
 8000932:	4675      	movcs	r5, lr
 8000934:	ea40 00dc 	orrcs.w	r0, r0, ip, lsr #3
 8000938:	ea55 0e06 	orrs.w	lr, r5, r6
 800093c:	d018      	beq.n	8000970 <__aeabi_ddiv+0x114>
 800093e:	ea4f 1505 	mov.w	r5, r5, lsl #4
 8000942:	ea45 7516 	orr.w	r5, r5, r6, lsr #28
 8000946:	ea4f 1606 	mov.w	r6, r6, lsl #4
 800094a:	ea4f 03c3 	mov.w	r3, r3, lsl #3
 800094e:	ea43 7352 	orr.w	r3, r3, r2, lsr #29
 8000952:	ea4f 02c2 	mov.w	r2, r2, lsl #3
 8000956:	ea5f 1c1c 	movs.w	ip, ip, lsr #4
 800095a:	d1c0      	bne.n	80008de <__aeabi_ddiv+0x82>
 800095c:	f411 1f80 	tst.w	r1, #1048576	; 0x100000
 8000960:	d10b      	bne.n	800097a <__aeabi_ddiv+0x11e>
 8000962:	ea41 0100 	orr.w	r1, r1, r0
 8000966:	f04f 0000 	mov.w	r0, #0
 800096a:	f04f 4c00 	mov.w	ip, #2147483648	; 0x80000000
 800096e:	e7b6      	b.n	80008de <__aeabi_ddiv+0x82>
 8000970:	f411 1f80 	tst.w	r1, #1048576	; 0x100000
 8000974:	bf04      	itt	eq
 8000976:	4301      	orreq	r1, r0
 8000978:	2000      	moveq	r0, #0
 800097a:	f1b4 0cfd 	subs.w	ip, r4, #253	; 0xfd
 800097e:	bf88      	it	hi
 8000980:	f5bc 6fe0 	cmphi.w	ip, #1792	; 0x700
 8000984:	f63f aeaf 	bhi.w	80006e6 <__aeabi_dmul+0xde>
 8000988:	ebb5 0c03 	subs.w	ip, r5, r3
 800098c:	bf04      	itt	eq
 800098e:	ebb6 0c02 	subseq.w	ip, r6, r2
 8000992:	ea5f 0c50 	movseq.w	ip, r0, lsr #1
 8000996:	f150 0000 	adcs.w	r0, r0, #0
 800099a:	eb41 5104 	adc.w	r1, r1, r4, lsl #20
 800099e:	bd70      	pop	{r4, r5, r6, pc}
 80009a0:	f00e 4e00 	and.w	lr, lr, #2147483648	; 0x80000000
 80009a4:	ea4e 3111 	orr.w	r1, lr, r1, lsr #12
 80009a8:	eb14 045c 	adds.w	r4, r4, ip, lsr #1
 80009ac:	bfc2      	ittt	gt
 80009ae:	ebd4 050c 	rsbsgt	r5, r4, ip
 80009b2:	ea41 5104 	orrgt.w	r1, r1, r4, lsl #20
 80009b6:	bd70      	popgt	{r4, r5, r6, pc}
 80009b8:	f441 1180 	orr.w	r1, r1, #1048576	; 0x100000
 80009bc:	f04f 0e00 	mov.w	lr, #0
 80009c0:	3c01      	subs	r4, #1
 80009c2:	e690      	b.n	80006e6 <__aeabi_dmul+0xde>
 80009c4:	ea45 0e06 	orr.w	lr, r5, r6
 80009c8:	e68d      	b.n	80006e6 <__aeabi_dmul+0xde>
 80009ca:	ea0c 5513 	and.w	r5, ip, r3, lsr #20
 80009ce:	ea94 0f0c 	teq	r4, ip
 80009d2:	bf08      	it	eq
 80009d4:	ea95 0f0c 	teqeq	r5, ip
 80009d8:	f43f af3b 	beq.w	8000852 <__aeabi_dmul+0x24a>
 80009dc:	ea94 0f0c 	teq	r4, ip
 80009e0:	d10a      	bne.n	80009f8 <__aeabi_ddiv+0x19c>
 80009e2:	ea50 3401 	orrs.w	r4, r0, r1, lsl #12
 80009e6:	f47f af34 	bne.w	8000852 <__aeabi_dmul+0x24a>
 80009ea:	ea95 0f0c 	teq	r5, ip
 80009ee:	f47f af25 	bne.w	800083c <__aeabi_dmul+0x234>
 80009f2:	4610      	mov	r0, r2
 80009f4:	4619      	mov	r1, r3
 80009f6:	e72c      	b.n	8000852 <__aeabi_dmul+0x24a>
 80009f8:	ea95 0f0c 	teq	r5, ip
 80009fc:	d106      	bne.n	8000a0c <__aeabi_ddiv+0x1b0>
 80009fe:	ea52 3503 	orrs.w	r5, r2, r3, lsl #12
 8000a02:	f43f aefd 	beq.w	8000800 <__aeabi_dmul+0x1f8>
 8000a06:	4610      	mov	r0, r2
 8000a08:	4619      	mov	r1, r3
 8000a0a:	e722      	b.n	8000852 <__aeabi_dmul+0x24a>
 8000a0c:	ea50 0641 	orrs.w	r6, r0, r1, lsl #1
 8000a10:	bf18      	it	ne
 8000a12:	ea52 0643 	orrsne.w	r6, r2, r3, lsl #1
 8000a16:	f47f aec5 	bne.w	80007a4 <__aeabi_dmul+0x19c>
 8000a1a:	ea50 0441 	orrs.w	r4, r0, r1, lsl #1
 8000a1e:	f47f af0d 	bne.w	800083c <__aeabi_dmul+0x234>
 8000a22:	ea52 0543 	orrs.w	r5, r2, r3, lsl #1
 8000a26:	f47f aeeb 	bne.w	8000800 <__aeabi_dmul+0x1f8>
 8000a2a:	e712      	b.n	8000852 <__aeabi_dmul+0x24a>

08000a2c <__gedf2>:
 8000a2c:	f04f 3cff 	mov.w	ip, #4294967295
 8000a30:	e006      	b.n	8000a40 <__cmpdf2+0x4>
 8000a32:	bf00      	nop

08000a34 <__ledf2>:
 8000a34:	f04f 0c01 	mov.w	ip, #1
 8000a38:	e002      	b.n	8000a40 <__cmpdf2+0x4>
 8000a3a:	bf00      	nop

08000a3c <__cmpdf2>:
 8000a3c:	f04f 0c01 	mov.w	ip, #1
 8000a40:	f84d cd04 	str.w	ip, [sp, #-4]!
 8000a44:	ea4f 0c41 	mov.w	ip, r1, lsl #1
 8000a48:	ea7f 5c6c 	mvns.w	ip, ip, asr #21
 8000a4c:	ea4f 0c43 	mov.w	ip, r3, lsl #1
 8000a50:	bf18      	it	ne
 8000a52:	ea7f 5c6c 	mvnsne.w	ip, ip, asr #21
 8000a56:	d01b      	beq.n	8000a90 <__cmpdf2+0x54>
 8000a58:	b001      	add	sp, #4
 8000a5a:	ea50 0c41 	orrs.w	ip, r0, r1, lsl #1
 8000a5e:	bf0c      	ite	eq
 8000a60:	ea52 0c43 	orrseq.w	ip, r2, r3, lsl #1
 8000a64:	ea91 0f03 	teqne	r1, r3
 8000a68:	bf02      	ittt	eq
 8000a6a:	ea90 0f02 	teqeq	r0, r2
 8000a6e:	2000      	moveq	r0, #0
 8000a70:	4770      	bxeq	lr
 8000a72:	f110 0f00 	cmn.w	r0, #0
 8000a76:	ea91 0f03 	teq	r1, r3
 8000a7a:	bf58      	it	pl
 8000a7c:	4299      	cmppl	r1, r3
 8000a7e:	bf08      	it	eq
 8000a80:	4290      	cmpeq	r0, r2
 8000a82:	bf2c      	ite	cs
 8000a84:	17d8      	asrcs	r0, r3, #31
 8000a86:	ea6f 70e3 	mvncc.w	r0, r3, asr #31
 8000a8a:	f040 0001 	orr.w	r0, r0, #1
 8000a8e:	4770      	bx	lr
 8000a90:	ea4f 0c41 	mov.w	ip, r1, lsl #1
 8000a94:	ea7f 5c6c 	mvns.w	ip, ip, asr #21
 8000a98:	d102      	bne.n	8000aa0 <__cmpdf2+0x64>
 8000a9a:	ea50 3c01 	orrs.w	ip, r0, r1, lsl #12
 8000a9e:	d107      	bne.n	8000ab0 <__cmpdf2+0x74>
 8000aa0:	ea4f 0c43 	mov.w	ip, r3, lsl #1
 8000aa4:	ea7f 5c6c 	mvns.w	ip, ip, asr #21
 8000aa8:	d1d6      	bne.n	8000a58 <__cmpdf2+0x1c>
 8000aaa:	ea52 3c03 	orrs.w	ip, r2, r3, lsl #12
 8000aae:	d0d3      	beq.n	8000a58 <__cmpdf2+0x1c>
 8000ab0:	f85d 0b04 	ldr.w	r0, [sp], #4
 8000ab4:	4770      	bx	lr
 8000ab6:	bf00      	nop

08000ab8 <__aeabi_cdrcmple>:
 8000ab8:	4684      	mov	ip, r0
 8000aba:	4610      	mov	r0, r2
 8000abc:	4662      	mov	r2, ip
 8000abe:	468c      	mov	ip, r1
 8000ac0:	4619      	mov	r1, r3
 8000ac2:	4663      	mov	r3, ip
 8000ac4:	e000      	b.n	8000ac8 <__aeabi_cdcmpeq>
 8000ac6:	bf00      	nop

08000ac8 <__aeabi_cdcmpeq>:
 8000ac8:	b501      	push	{r0, lr}
 8000aca:	f7ff ffb7 	bl	8000a3c <__cmpdf2>
 8000ace:	2800      	cmp	r0, #0
 8000ad0:	bf48      	it	mi
 8000ad2:	f110 0f00 	cmnmi.w	r0, #0
 8000ad6:	bd01      	pop	{r0, pc}

08000ad8 <__aeabi_dcmpeq>:
 8000ad8:	f84d ed08 	str.w	lr, [sp, #-8]!
 8000adc:	f7ff fff4 	bl	8000ac8 <__aeabi_cdcmpeq>
 8000ae0:	bf0c      	ite	eq
 8000ae2:	2001      	moveq	r0, #1
 8000ae4:	2000      	movne	r0, #0
 8000ae6:	f85d fb08 	ldr.w	pc, [sp], #8
 8000aea:	bf00      	nop

08000aec <__aeabi_dcmplt>:
 8000aec:	f84d ed08 	str.w	lr, [sp, #-8]!
 8000af0:	f7ff ffea 	bl	8000ac8 <__aeabi_cdcmpeq>
 8000af4:	bf34      	ite	cc
 8000af6:	2001      	movcc	r0, #1
 8000af8:	2000      	movcs	r0, #0
 8000afa:	f85d fb08 	ldr.w	pc, [sp], #8
 8000afe:	bf00      	nop

08000b00 <__aeabi_dcmple>:
 8000b00:	f84d ed08 	str.w	lr, [sp, #-8]!
 8000b04:	f7ff ffe0 	bl	8000ac8 <__aeabi_cdcmpeq>
 8000b08:	bf94      	ite	ls
 8000b0a:	2001      	movls	r0, #1
 8000b0c:	2000      	movhi	r0, #0
 8000b0e:	f85d fb08 	ldr.w	pc, [sp], #8
 8000b12:	bf00      	nop

08000b14 <__aeabi_dcmpge>:
 8000b14:	f84d ed08 	str.w	lr, [sp, #-8]!
 8000b18:	f7ff ffce 	bl	8000ab8 <__aeabi_cdrcmple>
 8000b1c:	bf94      	ite	ls
 8000b1e:	2001      	movls	r0, #1
 8000b20:	2000      	movhi	r0, #0
 8000b22:	f85d fb08 	ldr.w	pc, [sp], #8
 8000b26:	bf00      	nop

08000b28 <__aeabi_dcmpgt>:
 8000b28:	f84d ed08 	str.w	lr, [sp, #-8]!
 8000b2c:	f7ff ffc4 	bl	8000ab8 <__aeabi_cdrcmple>
 8000b30:	bf34      	ite	cc
 8000b32:	2001      	movcc	r0, #1
 8000b34:	2000      	movcs	r0, #0
 8000b36:	f85d fb08 	ldr.w	pc, [sp], #8
 8000b3a:	bf00      	nop

08000b3c <__aeabi_dcmpun>:
 8000b3c:	ea4f 0c41 	mov.w	ip, r1, lsl #1
 8000b40:	ea7f 5c6c 	mvns.w	ip, ip, asr #21
 8000b44:	d102      	bne.n	8000b4c <__aeabi_dcmpun+0x10>
 8000b46:	ea50 3c01 	orrs.w	ip, r0, r1, lsl #12
 8000b4a:	d10a      	bne.n	8000b62 <__aeabi_dcmpun+0x26>
 8000b4c:	ea4f 0c43 	mov.w	ip, r3, lsl #1
 8000b50:	ea7f 5c6c 	mvns.w	ip, ip, asr #21
 8000b54:	d102      	bne.n	8000b5c <__aeabi_dcmpun+0x20>
 8000b56:	ea52 3c03 	orrs.w	ip, r2, r3, lsl #12
 8000b5a:	d102      	bne.n	8000b62 <__aeabi_dcmpun+0x26>
 8000b5c:	f04f 0000 	mov.w	r0, #0
 8000b60:	4770      	bx	lr
 8000b62:	f04f 0001 	mov.w	r0, #1
 8000b66:	4770      	bx	lr

08000b68 <__aeabi_d2iz>:
 8000b68:	ea4f 0241 	mov.w	r2, r1, lsl #1
 8000b6c:	f512 1200 	adds.w	r2, r2, #2097152	; 0x200000
 8000b70:	d215      	bcs.n	8000b9e <__aeabi_d2iz+0x36>
 8000b72:	d511      	bpl.n	8000b98 <__aeabi_d2iz+0x30>
 8000b74:	f46f 7378 	mvn.w	r3, #992	; 0x3e0
 8000b78:	ebb3 5262 	subs.w	r2, r3, r2, asr #21
 8000b7c:	d912      	bls.n	8000ba4 <__aeabi_d2iz+0x3c>
 8000b7e:	ea4f 23c1 	mov.w	r3, r1, lsl #11
 8000b82:	f043 4300 	orr.w	r3, r3, #2147483648	; 0x80000000
 8000b86:	ea43 5350 	orr.w	r3, r3, r0, lsr #21
 8000b8a:	f011 4f00 	tst.w	r1, #2147483648	; 0x80000000
 8000b8e:	fa23 f002 	lsr.w	r0, r3, r2
 8000b92:	bf18      	it	ne
 8000b94:	4240      	negne	r0, r0
 8000b96:	4770      	bx	lr
 8000b98:	f04f 0000 	mov.w	r0, #0
 8000b9c:	4770      	bx	lr
 8000b9e:	ea50 3001 	orrs.w	r0, r0, r1, lsl #12
 8000ba2:	d105      	bne.n	8000bb0 <__aeabi_d2iz+0x48>
 8000ba4:	f011 4000 	ands.w	r0, r1, #2147483648	; 0x80000000
 8000ba8:	bf08      	it	eq
 8000baa:	f06f 4000 	mvneq.w	r0, #2147483648	; 0x80000000
 8000bae:	4770      	bx	lr
 8000bb0:	f04f 0000 	mov.w	r0, #0
 8000bb4:	4770      	bx	lr
 8000bb6:	bf00      	nop

08000bb8 <__aeabi_d2uiz>:
 8000bb8:	004a      	lsls	r2, r1, #1
 8000bba:	d211      	bcs.n	8000be0 <__aeabi_d2uiz+0x28>
 8000bbc:	f512 1200 	adds.w	r2, r2, #2097152	; 0x200000
 8000bc0:	d211      	bcs.n	8000be6 <__aeabi_d2uiz+0x2e>
 8000bc2:	d50d      	bpl.n	8000be0 <__aeabi_d2uiz+0x28>
 8000bc4:	f46f 7378 	mvn.w	r3, #992	; 0x3e0
 8000bc8:	ebb3 5262 	subs.w	r2, r3, r2, asr #21
 8000bcc:	d40e      	bmi.n	8000bec <__aeabi_d2uiz+0x34>
 8000bce:	ea4f 23c1 	mov.w	r3, r1, lsl #11
 8000bd2:	f043 4300 	orr.w	r3, r3, #2147483648	; 0x80000000
 8000bd6:	ea43 5350 	orr.w	r3, r3, r0, lsr #21
 8000bda:	fa23 f002 	lsr.w	r0, r3, r2
 8000bde:	4770      	bx	lr
 8000be0:	f04f 0000 	mov.w	r0, #0
 8000be4:	4770      	bx	lr
 8000be6:	ea50 3001 	orrs.w	r0, r0, r1, lsl #12
 8000bea:	d102      	bne.n	8000bf2 <__aeabi_d2uiz+0x3a>
 8000bec:	f04f 30ff 	mov.w	r0, #4294967295
 8000bf0:	4770      	bx	lr
 8000bf2:	f04f 0000 	mov.w	r0, #0
 8000bf6:	4770      	bx	lr

08000bf8 <__aeabi_d2f>:
 8000bf8:	ea4f 0241 	mov.w	r2, r1, lsl #1
 8000bfc:	f1b2 43e0 	subs.w	r3, r2, #1879048192	; 0x70000000
 8000c00:	bf24      	itt	cs
 8000c02:	f5b3 1c00 	subscs.w	ip, r3, #2097152	; 0x200000
 8000c06:	f1dc 5cfe 	rsbscs	ip, ip, #532676608	; 0x1fc00000
 8000c0a:	d90d      	bls.n	8000c28 <__aeabi_d2f+0x30>
 8000c0c:	f001 4c00 	and.w	ip, r1, #2147483648	; 0x80000000
 8000c10:	ea4f 02c0 	mov.w	r2, r0, lsl #3
 8000c14:	ea4c 7050 	orr.w	r0, ip, r0, lsr #29
 8000c18:	f1b2 4f00 	cmp.w	r2, #2147483648	; 0x80000000
 8000c1c:	eb40 0083 	adc.w	r0, r0, r3, lsl #2
 8000c20:	bf08      	it	eq
 8000c22:	f020 0001 	biceq.w	r0, r0, #1
 8000c26:	4770      	bx	lr
 8000c28:	f011 4f80 	tst.w	r1, #1073741824	; 0x40000000
 8000c2c:	d121      	bne.n	8000c72 <__aeabi_d2f+0x7a>
 8000c2e:	f113 7238 	adds.w	r2, r3, #48234496	; 0x2e00000
 8000c32:	bfbc      	itt	lt
 8000c34:	f001 4000 	andlt.w	r0, r1, #2147483648	; 0x80000000
 8000c38:	4770      	bxlt	lr
 8000c3a:	f441 1180 	orr.w	r1, r1, #1048576	; 0x100000
 8000c3e:	ea4f 5252 	mov.w	r2, r2, lsr #21
 8000c42:	f1c2 0218 	rsb	r2, r2, #24
 8000c46:	f1c2 0c20 	rsb	ip, r2, #32
 8000c4a:	fa10 f30c 	lsls.w	r3, r0, ip
 8000c4e:	fa20 f002 	lsr.w	r0, r0, r2
 8000c52:	bf18      	it	ne
 8000c54:	f040 0001 	orrne.w	r0, r0, #1
 8000c58:	ea4f 23c1 	mov.w	r3, r1, lsl #11
 8000c5c:	ea4f 23d3 	mov.w	r3, r3, lsr #11
 8000c60:	fa03 fc0c 	lsl.w	ip, r3, ip
 8000c64:	ea40 000c 	orr.w	r0, r0, ip
 8000c68:	fa23 f302 	lsr.w	r3, r3, r2
 8000c6c:	ea4f 0343 	mov.w	r3, r3, lsl #1
 8000c70:	e7cc      	b.n	8000c0c <__aeabi_d2f+0x14>
 8000c72:	ea7f 5362 	mvns.w	r3, r2, asr #21
 8000c76:	d107      	bne.n	8000c88 <__aeabi_d2f+0x90>
 8000c78:	ea50 3301 	orrs.w	r3, r0, r1, lsl #12
 8000c7c:	bf1e      	ittt	ne
 8000c7e:	f04f 40fe 	movne.w	r0, #2130706432	; 0x7f000000
 8000c82:	f440 0040 	orrne.w	r0, r0, #12582912	; 0xc00000
 8000c86:	4770      	bxne	lr
 8000c88:	f001 4000 	and.w	r0, r1, #2147483648	; 0x80000000
 8000c8c:	f040 40fe 	orr.w	r0, r0, #2130706432	; 0x7f000000
 8000c90:	f440 0000 	orr.w	r0, r0, #8388608	; 0x800000
 8000c94:	4770      	bx	lr
 8000c96:	bf00      	nop

08000c98 <__aeabi_uldivmod>:
 8000c98:	b953      	cbnz	r3, 8000cb0 <__aeabi_uldivmod+0x18>
 8000c9a:	b94a      	cbnz	r2, 8000cb0 <__aeabi_uldivmod+0x18>
 8000c9c:	2900      	cmp	r1, #0
 8000c9e:	bf08      	it	eq
 8000ca0:	2800      	cmpeq	r0, #0
 8000ca2:	bf1c      	itt	ne
 8000ca4:	f04f 31ff 	movne.w	r1, #4294967295
 8000ca8:	f04f 30ff 	movne.w	r0, #4294967295
 8000cac:	f000 b9aa 	b.w	8001004 <__aeabi_idiv0>
 8000cb0:	f1ad 0c08 	sub.w	ip, sp, #8
 8000cb4:	e96d ce04 	strd	ip, lr, [sp, #-16]!
 8000cb8:	f000 f83c 	bl	8000d34 <__udivmoddi4>
 8000cbc:	f8dd e004 	ldr.w	lr, [sp, #4]
 8000cc0:	e9dd 2302 	ldrd	r2, r3, [sp, #8]
 8000cc4:	b004      	add	sp, #16
 8000cc6:	4770      	bx	lr

08000cc8 <__aeabi_d2lz>:
 8000cc8:	b538      	push	{r3, r4, r5, lr}
 8000cca:	2200      	movs	r2, #0
 8000ccc:	2300      	movs	r3, #0
 8000cce:	4604      	mov	r4, r0
 8000cd0:	460d      	mov	r5, r1
 8000cd2:	f7ff ff0b 	bl	8000aec <__aeabi_dcmplt>
 8000cd6:	b928      	cbnz	r0, 8000ce4 <__aeabi_d2lz+0x1c>
 8000cd8:	4620      	mov	r0, r4
 8000cda:	4629      	mov	r1, r5
 8000cdc:	e8bd 4038 	ldmia.w	sp!, {r3, r4, r5, lr}
 8000ce0:	f000 b80a 	b.w	8000cf8 <__aeabi_d2ulz>
 8000ce4:	4620      	mov	r0, r4
 8000ce6:	f105 4100 	add.w	r1, r5, #2147483648	; 0x80000000
 8000cea:	f000 f805 	bl	8000cf8 <__aeabi_d2ulz>
 8000cee:	4240      	negs	r0, r0
 8000cf0:	eb61 0141 	sbc.w	r1, r1, r1, lsl #1
 8000cf4:	bd38      	pop	{r3, r4, r5, pc}
 8000cf6:	bf00      	nop

08000cf8 <__aeabi_d2ulz>:
 8000cf8:	b5d0      	push	{r4, r6, r7, lr}
 8000cfa:	4b0c      	ldr	r3, [pc, #48]	; (8000d2c <__aeabi_d2ulz+0x34>)
 8000cfc:	2200      	movs	r2, #0
 8000cfe:	4606      	mov	r6, r0
 8000d00:	460f      	mov	r7, r1
 8000d02:	f7ff fc81 	bl	8000608 <__aeabi_dmul>
 8000d06:	f7ff ff57 	bl	8000bb8 <__aeabi_d2uiz>
 8000d0a:	4604      	mov	r4, r0
 8000d0c:	f7ff fc02 	bl	8000514 <__aeabi_ui2d>
 8000d10:	4b07      	ldr	r3, [pc, #28]	; (8000d30 <__aeabi_d2ulz+0x38>)
 8000d12:	2200      	movs	r2, #0
 8000d14:	f7ff fc78 	bl	8000608 <__aeabi_dmul>
 8000d18:	4602      	mov	r2, r0
 8000d1a:	460b      	mov	r3, r1
 8000d1c:	4630      	mov	r0, r6
 8000d1e:	4639      	mov	r1, r7
 8000d20:	f7ff faba 	bl	8000298 <__aeabi_dsub>
 8000d24:	f7ff ff48 	bl	8000bb8 <__aeabi_d2uiz>
 8000d28:	4621      	mov	r1, r4
 8000d2a:	bdd0      	pop	{r4, r6, r7, pc}
 8000d2c:	3df00000 	.word	0x3df00000
 8000d30:	41f00000 	.word	0x41f00000

08000d34 <__udivmoddi4>:
 8000d34:	e92d 47f0 	stmdb	sp!, {r4, r5, r6, r7, r8, r9, sl, lr}
 8000d38:	9d08      	ldr	r5, [sp, #32]
 8000d3a:	4604      	mov	r4, r0
 8000d3c:	468e      	mov	lr, r1
 8000d3e:	2b00      	cmp	r3, #0
 8000d40:	d14d      	bne.n	8000dde <__udivmoddi4+0xaa>
 8000d42:	428a      	cmp	r2, r1
 8000d44:	4694      	mov	ip, r2
 8000d46:	d969      	bls.n	8000e1c <__udivmoddi4+0xe8>
 8000d48:	fab2 f282 	clz	r2, r2
 8000d4c:	b152      	cbz	r2, 8000d64 <__udivmoddi4+0x30>
 8000d4e:	fa01 f302 	lsl.w	r3, r1, r2
 8000d52:	f1c2 0120 	rsb	r1, r2, #32
 8000d56:	fa20 f101 	lsr.w	r1, r0, r1
 8000d5a:	fa0c fc02 	lsl.w	ip, ip, r2
 8000d5e:	ea41 0e03 	orr.w	lr, r1, r3
 8000d62:	4094      	lsls	r4, r2
 8000d64:	ea4f 481c 	mov.w	r8, ip, lsr #16
 8000d68:	0c21      	lsrs	r1, r4, #16
 8000d6a:	fbbe f6f8 	udiv	r6, lr, r8
 8000d6e:	fa1f f78c 	uxth.w	r7, ip
 8000d72:	fb08 e316 	mls	r3, r8, r6, lr
 8000d76:	ea41 4303 	orr.w	r3, r1, r3, lsl #16
 8000d7a:	fb06 f107 	mul.w	r1, r6, r7
 8000d7e:	4299      	cmp	r1, r3
 8000d80:	d90a      	bls.n	8000d98 <__udivmoddi4+0x64>
 8000d82:	eb1c 0303 	adds.w	r3, ip, r3
 8000d86:	f106 30ff 	add.w	r0, r6, #4294967295
 8000d8a:	f080 811f 	bcs.w	8000fcc <__udivmoddi4+0x298>
 8000d8e:	4299      	cmp	r1, r3
 8000d90:	f240 811c 	bls.w	8000fcc <__udivmoddi4+0x298>
 8000d94:	3e02      	subs	r6, #2
 8000d96:	4463      	add	r3, ip
 8000d98:	1a5b      	subs	r3, r3, r1
 8000d9a:	b2a4      	uxth	r4, r4
 8000d9c:	fbb3 f0f8 	udiv	r0, r3, r8
 8000da0:	fb08 3310 	mls	r3, r8, r0, r3
 8000da4:	ea44 4403 	orr.w	r4, r4, r3, lsl #16
 8000da8:	fb00 f707 	mul.w	r7, r0, r7
 8000dac:	42a7      	cmp	r7, r4
 8000dae:	d90a      	bls.n	8000dc6 <__udivmoddi4+0x92>
 8000db0:	eb1c 0404 	adds.w	r4, ip, r4
 8000db4:	f100 33ff 	add.w	r3, r0, #4294967295
 8000db8:	f080 810a 	bcs.w	8000fd0 <__udivmoddi4+0x29c>
 8000dbc:	42a7      	cmp	r7, r4
 8000dbe:	f240 8107 	bls.w	8000fd0 <__udivmoddi4+0x29c>
 8000dc2:	4464      	add	r4, ip
 8000dc4:	3802      	subs	r0, #2
 8000dc6:	ea40 4006 	orr.w	r0, r0, r6, lsl #16
 8000dca:	1be4      	subs	r4, r4, r7
 8000dcc:	2600      	movs	r6, #0
 8000dce:	b11d      	cbz	r5, 8000dd8 <__udivmoddi4+0xa4>
 8000dd0:	40d4      	lsrs	r4, r2
 8000dd2:	2300      	movs	r3, #0
 8000dd4:	e9c5 4300 	strd	r4, r3, [r5]
 8000dd8:	4631      	mov	r1, r6
 8000dda:	e8bd 87f0 	ldmia.w	sp!, {r4, r5, r6, r7, r8, r9, sl, pc}
 8000dde:	428b      	cmp	r3, r1
 8000de0:	d909      	bls.n	8000df6 <__udivmoddi4+0xc2>
 8000de2:	2d00      	cmp	r5, #0
 8000de4:	f000 80ef 	beq.w	8000fc6 <__udivmoddi4+0x292>
 8000de8:	2600      	movs	r6, #0
 8000dea:	e9c5 0100 	strd	r0, r1, [r5]
 8000dee:	4630      	mov	r0, r6
 8000df0:	4631      	mov	r1, r6
 8000df2:	e8bd 87f0 	ldmia.w	sp!, {r4, r5, r6, r7, r8, r9, sl, pc}
 8000df6:	fab3 f683 	clz	r6, r3
 8000dfa:	2e00      	cmp	r6, #0
 8000dfc:	d14a      	bne.n	8000e94 <__udivmoddi4+0x160>
 8000dfe:	428b      	cmp	r3, r1
 8000e00:	d302      	bcc.n	8000e08 <__udivmoddi4+0xd4>
 8000e02:	4282      	cmp	r2, r0
 8000e04:	f200 80f9 	bhi.w	8000ffa <__udivmoddi4+0x2c6>
 8000e08:	1a84      	subs	r4, r0, r2
 8000e0a:	eb61 0303 	sbc.w	r3, r1, r3
 8000e0e:	2001      	movs	r0, #1
 8000e10:	469e      	mov	lr, r3
 8000e12:	2d00      	cmp	r5, #0
 8000e14:	d0e0      	beq.n	8000dd8 <__udivmoddi4+0xa4>
 8000e16:	e9c5 4e00 	strd	r4, lr, [r5]
 8000e1a:	e7dd      	b.n	8000dd8 <__udivmoddi4+0xa4>
 8000e1c:	b902      	cbnz	r2, 8000e20 <__udivmoddi4+0xec>
 8000e1e:	deff      	udf	#255	; 0xff
 8000e20:	fab2 f282 	clz	r2, r2
 8000e24:	2a00      	cmp	r2, #0
 8000e26:	f040 8092 	bne.w	8000f4e <__udivmoddi4+0x21a>
 8000e2a:	eba1 010c 	sub.w	r1, r1, ip
 8000e2e:	ea4f 471c 	mov.w	r7, ip, lsr #16
 8000e32:	fa1f fe8c 	uxth.w	lr, ip
 8000e36:	2601      	movs	r6, #1
 8000e38:	0c20      	lsrs	r0, r4, #16
 8000e3a:	fbb1 f3f7 	udiv	r3, r1, r7
 8000e3e:	fb07 1113 	mls	r1, r7, r3, r1
 8000e42:	ea40 4101 	orr.w	r1, r0, r1, lsl #16
 8000e46:	fb0e f003 	mul.w	r0, lr, r3
 8000e4a:	4288      	cmp	r0, r1
 8000e4c:	d908      	bls.n	8000e60 <__udivmoddi4+0x12c>
 8000e4e:	eb1c 0101 	adds.w	r1, ip, r1
 8000e52:	f103 38ff 	add.w	r8, r3, #4294967295
 8000e56:	d202      	bcs.n	8000e5e <__udivmoddi4+0x12a>
 8000e58:	4288      	cmp	r0, r1
 8000e5a:	f200 80cb 	bhi.w	8000ff4 <__udivmoddi4+0x2c0>
 8000e5e:	4643      	mov	r3, r8
 8000e60:	1a09      	subs	r1, r1, r0
 8000e62:	b2a4      	uxth	r4, r4
 8000e64:	fbb1 f0f7 	udiv	r0, r1, r7
 8000e68:	fb07 1110 	mls	r1, r7, r0, r1
 8000e6c:	ea44 4401 	orr.w	r4, r4, r1, lsl #16
 8000e70:	fb0e fe00 	mul.w	lr, lr, r0
 8000e74:	45a6      	cmp	lr, r4
 8000e76:	d908      	bls.n	8000e8a <__udivmoddi4+0x156>
 8000e78:	eb1c 0404 	adds.w	r4, ip, r4
 8000e7c:	f100 31ff 	add.w	r1, r0, #4294967295
 8000e80:	d202      	bcs.n	8000e88 <__udivmoddi4+0x154>
 8000e82:	45a6      	cmp	lr, r4
 8000e84:	f200 80bb 	bhi.w	8000ffe <__udivmoddi4+0x2ca>
 8000e88:	4608      	mov	r0, r1
 8000e8a:	eba4 040e 	sub.w	r4, r4, lr
 8000e8e:	ea40 4003 	orr.w	r0, r0, r3, lsl #16
 8000e92:	e79c      	b.n	8000dce <__udivmoddi4+0x9a>
 8000e94:	f1c6 0720 	rsb	r7, r6, #32
 8000e98:	40b3      	lsls	r3, r6
 8000e9a:	fa22 fc07 	lsr.w	ip, r2, r7
 8000e9e:	ea4c 0c03 	orr.w	ip, ip, r3
 8000ea2:	fa20 f407 	lsr.w	r4, r0, r7
 8000ea6:	fa01 f306 	lsl.w	r3, r1, r6
 8000eaa:	431c      	orrs	r4, r3
 8000eac:	40f9      	lsrs	r1, r7
 8000eae:	ea4f 491c 	mov.w	r9, ip, lsr #16
 8000eb2:	fa00 f306 	lsl.w	r3, r0, r6
 8000eb6:	fbb1 f8f9 	udiv	r8, r1, r9
 8000eba:	0c20      	lsrs	r0, r4, #16
 8000ebc:	fa1f fe8c 	uxth.w	lr, ip
 8000ec0:	fb09 1118 	mls	r1, r9, r8, r1
 8000ec4:	ea40 4101 	orr.w	r1, r0, r1, lsl #16
 8000ec8:	fb08 f00e 	mul.w	r0, r8, lr
 8000ecc:	4288      	cmp	r0, r1
 8000ece:	fa02 f206 	lsl.w	r2, r2, r6
 8000ed2:	d90b      	bls.n	8000eec <__udivmoddi4+0x1b8>
 8000ed4:	eb1c 0101 	adds.w	r1, ip, r1
 8000ed8:	f108 3aff 	add.w	sl, r8, #4294967295
 8000edc:	f080 8088 	bcs.w	8000ff0 <__udivmoddi4+0x2bc>
 8000ee0:	4288      	cmp	r0, r1
 8000ee2:	f240 8085 	bls.w	8000ff0 <__udivmoddi4+0x2bc>
 8000ee6:	f1a8 0802 	sub.w	r8, r8, #2
 8000eea:	4461      	add	r1, ip
 8000eec:	1a09      	subs	r1, r1, r0
 8000eee:	b2a4      	uxth	r4, r4
 8000ef0:	fbb1 f0f9 	udiv	r0, r1, r9
 8000ef4:	fb09 1110 	mls	r1, r9, r0, r1
 8000ef8:	ea44 4101 	orr.w	r1, r4, r1, lsl #16
 8000efc:	fb00 fe0e 	mul.w	lr, r0, lr
 8000f00:	458e      	cmp	lr, r1
 8000f02:	d908      	bls.n	8000f16 <__udivmoddi4+0x1e2>
 8000f04:	eb1c 0101 	adds.w	r1, ip, r1
 8000f08:	f100 34ff 	add.w	r4, r0, #4294967295
 8000f0c:	d26c      	bcs.n	8000fe8 <__udivmoddi4+0x2b4>
 8000f0e:	458e      	cmp	lr, r1
 8000f10:	d96a      	bls.n	8000fe8 <__udivmoddi4+0x2b4>
 8000f12:	3802      	subs	r0, #2
 8000f14:	4461      	add	r1, ip
 8000f16:	ea40 4008 	orr.w	r0, r0, r8, lsl #16
 8000f1a:	fba0 9402 	umull	r9, r4, r0, r2
 8000f1e:	eba1 010e 	sub.w	r1, r1, lr
 8000f22:	42a1      	cmp	r1, r4
 8000f24:	46c8      	mov	r8, r9
 8000f26:	46a6      	mov	lr, r4
 8000f28:	d356      	bcc.n	8000fd8 <__udivmoddi4+0x2a4>
 8000f2a:	d053      	beq.n	8000fd4 <__udivmoddi4+0x2a0>
 8000f2c:	b15d      	cbz	r5, 8000f46 <__udivmoddi4+0x212>
 8000f2e:	ebb3 0208 	subs.w	r2, r3, r8
 8000f32:	eb61 010e 	sbc.w	r1, r1, lr
 8000f36:	fa01 f707 	lsl.w	r7, r1, r7
 8000f3a:	fa22 f306 	lsr.w	r3, r2, r6
 8000f3e:	40f1      	lsrs	r1, r6
 8000f40:	431f      	orrs	r7, r3
 8000f42:	e9c5 7100 	strd	r7, r1, [r5]
 8000f46:	2600      	movs	r6, #0
 8000f48:	4631      	mov	r1, r6
 8000f4a:	e8bd 87f0 	ldmia.w	sp!, {r4, r5, r6, r7, r8, r9, sl, pc}
 8000f4e:	f1c2 0320 	rsb	r3, r2, #32
 8000f52:	40d8      	lsrs	r0, r3
 8000f54:	fa0c fc02 	lsl.w	ip, ip, r2
 8000f58:	fa21 f303 	lsr.w	r3, r1, r3
 8000f5c:	4091      	lsls	r1, r2
 8000f5e:	4301      	orrs	r1, r0
 8000f60:	ea4f 471c 	mov.w	r7, ip, lsr #16
 8000f64:	fa1f fe8c 	uxth.w	lr, ip
 8000f68:	fbb3 f0f7 	udiv	r0, r3, r7
 8000f6c:	fb07 3610 	mls	r6, r7, r0, r3
 8000f70:	0c0b      	lsrs	r3, r1, #16
 8000f72:	ea43 4306 	orr.w	r3, r3, r6, lsl #16
 8000f76:	fb00 f60e 	mul.w	r6, r0, lr
 8000f7a:	429e      	cmp	r6, r3
 8000f7c:	fa04 f402 	lsl.w	r4, r4, r2
 8000f80:	d908      	bls.n	8000f94 <__udivmoddi4+0x260>
 8000f82:	eb1c 0303 	adds.w	r3, ip, r3
 8000f86:	f100 38ff 	add.w	r8, r0, #4294967295
 8000f8a:	d22f      	bcs.n	8000fec <__udivmoddi4+0x2b8>
 8000f8c:	429e      	cmp	r6, r3
 8000f8e:	d92d      	bls.n	8000fec <__udivmoddi4+0x2b8>
 8000f90:	3802      	subs	r0, #2
 8000f92:	4463      	add	r3, ip
 8000f94:	1b9b      	subs	r3, r3, r6
 8000f96:	b289      	uxth	r1, r1
 8000f98:	fbb3 f6f7 	udiv	r6, r3, r7
 8000f9c:	fb07 3316 	mls	r3, r7, r6, r3
 8000fa0:	ea41 4103 	orr.w	r1, r1, r3, lsl #16
 8000fa4:	fb06 f30e 	mul.w	r3, r6, lr
 8000fa8:	428b      	cmp	r3, r1
 8000faa:	d908      	bls.n	8000fbe <__udivmoddi4+0x28a>
 8000fac:	eb1c 0101 	adds.w	r1, ip, r1
 8000fb0:	f106 38ff 	add.w	r8, r6, #4294967295
 8000fb4:	d216      	bcs.n	8000fe4 <__udivmoddi4+0x2b0>
 8000fb6:	428b      	cmp	r3, r1
 8000fb8:	d914      	bls.n	8000fe4 <__udivmoddi4+0x2b0>
 8000fba:	3e02      	subs	r6, #2
 8000fbc:	4461      	add	r1, ip
 8000fbe:	1ac9      	subs	r1, r1, r3
 8000fc0:	ea46 4600 	orr.w	r6, r6, r0, lsl #16
 8000fc4:	e738      	b.n	8000e38 <__udivmoddi4+0x104>
 8000fc6:	462e      	mov	r6, r5
 8000fc8:	4628      	mov	r0, r5
 8000fca:	e705      	b.n	8000dd8 <__udivmoddi4+0xa4>
 8000fcc:	4606      	mov	r6, r0
 8000fce:	e6e3      	b.n	8000d98 <__udivmoddi4+0x64>
 8000fd0:	4618      	mov	r0, r3
 8000fd2:	e6f8      	b.n	8000dc6 <__udivmoddi4+0x92>
 8000fd4:	454b      	cmp	r3, r9
 8000fd6:	d2a9      	bcs.n	8000f2c <__udivmoddi4+0x1f8>
 8000fd8:	ebb9 0802 	subs.w	r8, r9, r2
 8000fdc:	eb64 0e0c 	sbc.w	lr, r4, ip
 8000fe0:	3801      	subs	r0, #1
 8000fe2:	e7a3      	b.n	8000f2c <__udivmoddi4+0x1f8>
 8000fe4:	4646      	mov	r6, r8
 8000fe6:	e7ea      	b.n	8000fbe <__udivmoddi4+0x28a>
 8000fe8:	4620      	mov	r0, r4
 8000fea:	e794      	b.n	8000f16 <__udivmoddi4+0x1e2>
 8000fec:	4640      	mov	r0, r8
 8000fee:	e7d1      	b.n	8000f94 <__udivmoddi4+0x260>
 8000ff0:	46d0      	mov	r8, sl
 8000ff2:	e77b      	b.n	8000eec <__udivmoddi4+0x1b8>
 8000ff4:	3b02      	subs	r3, #2
 8000ff6:	4461      	add	r1, ip
 8000ff8:	e732      	b.n	8000e60 <__udivmoddi4+0x12c>
 8000ffa:	4630      	mov	r0, r6
 8000ffc:	e709      	b.n	8000e12 <__udivmoddi4+0xde>
 8000ffe:	4464      	add	r4, ip
 8001000:	3802      	subs	r0, #2
 8001002:	e742      	b.n	8000e8a <__udivmoddi4+0x156>

08001004 <__aeabi_idiv0>:
 8001004:	4770      	bx	lr
 8001006:	bf00      	nop

08001008 <main>:
/**
  * @brief  The application entry point.
  * @retval int
  */
int main(void)
{
 8001008:	b580      	push	{r7, lr}
 800100a:	b082      	sub	sp, #8
 800100c:	af00      	add	r7, sp, #0
  /* USER CODE END 1 */

  /* MCU Configuration--------------------------------------------------------*/

  /* Reset of all peripherals, Initializes the Flash interface and the Systick. */
  HAL_Init();
 800100e:	f000 fc7b 	bl	8001908 <HAL_Init>
  /* USER CODE BEGIN Init */

  /* USER CODE END Init */

  /* Configure the system clock */
  SystemClock_Config();
 8001012:	f000 f85f 	bl	80010d4 <SystemClock_Config>
  /* USER CODE BEGIN SysInit */

  /* USER CODE END SysInit */

  /* Initialize all configured peripherals */
  MX_GPIO_Init();
 8001016:	f000 f9e1 	bl	80013dc <MX_GPIO_Init>
  MX_TIM11_Init();
 800101a:	f000 f93d 	bl	8001298 <MX_TIM11_Init>
  MX_USART1_UART_Init();
 800101e:	f000 f989 	bl	8001334 <MX_USART1_UART_Init>
  MX_TIM4_Init();
 8001022:	f000 f8c3 	bl	80011ac <MX_TIM4_Init>
  MX_USART2_UART_Init();
 8001026:	f000 f9af 	bl	8001388 <MX_USART2_UART_Init>
  /* USER CODE BEGIN 2 */
  HAL_TIM_Base_Start(&htim11);
 800102a:	4821      	ldr	r0, [pc, #132]	; (80010b0 <main+0xa8>)
 800102c:	f001 fbf0 	bl	8002810 <HAL_TIM_Base_Start>
  HAL_TIM_PWM_Start(&htim11,TIM_CHANNEL_1);
 8001030:	2100      	movs	r1, #0
 8001032:	481f      	ldr	r0, [pc, #124]	; (80010b0 <main+0xa8>)
 8001034:	f001 fca0 	bl	8002978 <HAL_TIM_PWM_Start>
  HAL_TIM_IC_Start(&htim4,TIM_CHANNEL_1);  //start input capture CHANNEL_1
 8001038:	2100      	movs	r1, #0
 800103a:	481e      	ldr	r0, [pc, #120]	; (80010b4 <main+0xac>)
 800103c:	f001 fda6 	bl	8002b8c <HAL_TIM_IC_Start>
  //HAL_TIM_IC_Start(&htim4,TIM_CHANNEL_2);  //start input capture CHANNEL_2
  TIM11->CCR1 = 3; //CCR1 value defines the pulse start time capturing values in TIM3->CCR1 Register, pag 419 datasheet
 8001040:	4b1d      	ldr	r3, [pc, #116]	; (80010b8 <main+0xb0>)
 8001042:	2203      	movs	r2, #3
 8001044:	635a      	str	r2, [r3, #52]	; 0x34
  /* USER CODE END 2 */

  /* Infinite loop */
  /* USER CODE BEGIN WHILE */
  uint32_t delay = HAL_GetTick();
 8001046:	f000 fcc5 	bl	80019d4 <HAL_GetTick>
 800104a:	6078      	str	r0, [r7, #4]
  while (1)
  {
	  if(HAL_GetTick()-delay>=200){
 800104c:	f000 fcc2 	bl	80019d4 <HAL_GetTick>
 8001050:	4602      	mov	r2, r0
 8001052:	687b      	ldr	r3, [r7, #4]
 8001054:	1ad3      	subs	r3, r2, r3
 8001056:	2bc7      	cmp	r3, #199	; 0xc7
 8001058:	d9f8      	bls.n	800104c <main+0x44>
		  delay = HAL_GetTick();
 800105a:	f000 fcbb 	bl	80019d4 <HAL_GetTick>
 800105e:	6078      	str	r0, [r7, #4]
		  echo = HAL_TIM_ReadCapturedValue(&htim4,TIM_CHANNEL_1); //lettura dal pin echo
 8001060:	2100      	movs	r1, #0
 8001062:	4814      	ldr	r0, [pc, #80]	; (80010b4 <main+0xac>)
 8001064:	f002 f800 	bl	8003068 <HAL_TIM_ReadCapturedValue>
 8001068:	4603      	mov	r3, r0
 800106a:	4a14      	ldr	r2, [pc, #80]	; (80010bc <main+0xb4>)
 800106c:	6013      	str	r3, [r2, #0]
		  dis = echo / 58.0f;
 800106e:	4b13      	ldr	r3, [pc, #76]	; (80010bc <main+0xb4>)
 8001070:	681b      	ldr	r3, [r3, #0]
 8001072:	ee07 3a90 	vmov	s15, r3
 8001076:	eeb8 7a67 	vcvt.f32.u32	s14, s15
 800107a:	eddf 6a11 	vldr	s13, [pc, #68]	; 80010c0 <main+0xb8>
 800107e:	eec7 7a26 	vdiv.f32	s15, s14, s13
 8001082:	4b10      	ldr	r3, [pc, #64]	; (80010c4 <main+0xbc>)
 8001084:	edc3 7a00 	vstr	s15, [r3]
		  sprintf(msg, "%f cm\r\n", dis); //scrittura valore distanza
 8001088:	4b0e      	ldr	r3, [pc, #56]	; (80010c4 <main+0xbc>)
 800108a:	681b      	ldr	r3, [r3, #0]
 800108c:	4618      	mov	r0, r3
 800108e:	f7ff fa63 	bl	8000558 <__aeabi_f2d>
 8001092:	4602      	mov	r2, r0
 8001094:	460b      	mov	r3, r1
 8001096:	490c      	ldr	r1, [pc, #48]	; (80010c8 <main+0xc0>)
 8001098:	480c      	ldr	r0, [pc, #48]	; (80010cc <main+0xc4>)
 800109a:	f003 ff6b 	bl	8004f74 <siprintf>
		  //printf("echo: %lu dis: %.2f\r\n", echo, dis); //formato % l long, decimale %u e float %f, lu unsigned long
		  HAL_UART_Transmit(&huart2, (uint8_t *)msg, sizeof(msg), 0xFFFF); //invio lettura distanza su seriale
 800109e:	f64f 73ff 	movw	r3, #65535	; 0xffff
 80010a2:	2240      	movs	r2, #64	; 0x40
 80010a4:	4909      	ldr	r1, [pc, #36]	; (80010cc <main+0xc4>)
 80010a6:	480a      	ldr	r0, [pc, #40]	; (80010d0 <main+0xc8>)
 80010a8:	f002 fd3d 	bl	8003b26 <HAL_UART_Transmit>
	  if(HAL_GetTick()-delay>=200){
 80010ac:	e7ce      	b.n	800104c <main+0x44>
 80010ae:	bf00      	nop
 80010b0:	20000244 	.word	0x20000244
 80010b4:	200001fc 	.word	0x200001fc
 80010b8:	40014800 	.word	0x40014800
 80010bc:	20000314 	.word	0x20000314
 80010c0:	42680000 	.word	0x42680000
 80010c4:	20000318 	.word	0x20000318
 80010c8:	08008b70 	.word	0x08008b70
 80010cc:	2000031c 	.word	0x2000031c
 80010d0:	200002d0 	.word	0x200002d0

080010d4 <SystemClock_Config>:
/**
  * @brief System Clock Configuration
  * @retval None
  */
void SystemClock_Config(void)
{
 80010d4:	b580      	push	{r7, lr}
 80010d6:	b094      	sub	sp, #80	; 0x50
 80010d8:	af00      	add	r7, sp, #0
  RCC_OscInitTypeDef RCC_OscInitStruct = {0};
 80010da:	f107 0320 	add.w	r3, r7, #32
 80010de:	2230      	movs	r2, #48	; 0x30
 80010e0:	2100      	movs	r1, #0
 80010e2:	4618      	mov	r0, r3
 80010e4:	f003 f8be 	bl	8004264 <memset>
  RCC_ClkInitTypeDef RCC_ClkInitStruct = {0};
 80010e8:	f107 030c 	add.w	r3, r7, #12
 80010ec:	2200      	movs	r2, #0
 80010ee:	601a      	str	r2, [r3, #0]
 80010f0:	605a      	str	r2, [r3, #4]
 80010f2:	609a      	str	r2, [r3, #8]
 80010f4:	60da      	str	r2, [r3, #12]
 80010f6:	611a      	str	r2, [r3, #16]

  /** Configure the main internal regulator output voltage
  */
  __HAL_RCC_PWR_CLK_ENABLE();
 80010f8:	2300      	movs	r3, #0
 80010fa:	60bb      	str	r3, [r7, #8]
 80010fc:	4b29      	ldr	r3, [pc, #164]	; (80011a4 <SystemClock_Config+0xd0>)
 80010fe:	6c1b      	ldr	r3, [r3, #64]	; 0x40
 8001100:	4a28      	ldr	r2, [pc, #160]	; (80011a4 <SystemClock_Config+0xd0>)
 8001102:	f043 5380 	orr.w	r3, r3, #268435456	; 0x10000000
 8001106:	6413      	str	r3, [r2, #64]	; 0x40
 8001108:	4b26      	ldr	r3, [pc, #152]	; (80011a4 <SystemClock_Config+0xd0>)
 800110a:	6c1b      	ldr	r3, [r3, #64]	; 0x40
 800110c:	f003 5380 	and.w	r3, r3, #268435456	; 0x10000000
 8001110:	60bb      	str	r3, [r7, #8]
 8001112:	68bb      	ldr	r3, [r7, #8]
  __HAL_PWR_VOLTAGESCALING_CONFIG(PWR_REGULATOR_VOLTAGE_SCALE2);
 8001114:	2300      	movs	r3, #0
 8001116:	607b      	str	r3, [r7, #4]
 8001118:	4b23      	ldr	r3, [pc, #140]	; (80011a8 <SystemClock_Config+0xd4>)
 800111a:	681b      	ldr	r3, [r3, #0]
 800111c:	f423 4340 	bic.w	r3, r3, #49152	; 0xc000
 8001120:	4a21      	ldr	r2, [pc, #132]	; (80011a8 <SystemClock_Config+0xd4>)
 8001122:	f443 4300 	orr.w	r3, r3, #32768	; 0x8000
 8001126:	6013      	str	r3, [r2, #0]
 8001128:	4b1f      	ldr	r3, [pc, #124]	; (80011a8 <SystemClock_Config+0xd4>)
 800112a:	681b      	ldr	r3, [r3, #0]
 800112c:	f403 4340 	and.w	r3, r3, #49152	; 0xc000
 8001130:	607b      	str	r3, [r7, #4]
 8001132:	687b      	ldr	r3, [r7, #4]

  /** Initializes the RCC Oscillators according to the specified parameters
  * in the RCC_OscInitTypeDef structure.
  */
  RCC_OscInitStruct.OscillatorType = RCC_OSCILLATORTYPE_HSI;
 8001134:	2302      	movs	r3, #2
 8001136:	623b      	str	r3, [r7, #32]
  RCC_OscInitStruct.HSIState = RCC_HSI_ON;
 8001138:	2301      	movs	r3, #1
 800113a:	62fb      	str	r3, [r7, #44]	; 0x2c
  RCC_OscInitStruct.HSICalibrationValue = RCC_HSICALIBRATION_DEFAULT;
 800113c:	2310      	movs	r3, #16
 800113e:	633b      	str	r3, [r7, #48]	; 0x30
  RCC_OscInitStruct.PLL.PLLState = RCC_PLL_ON;
 8001140:	2302      	movs	r3, #2
 8001142:	63bb      	str	r3, [r7, #56]	; 0x38
  RCC_OscInitStruct.PLL.PLLSource = RCC_PLLSOURCE_HSI;
 8001144:	2300      	movs	r3, #0
 8001146:	63fb      	str	r3, [r7, #60]	; 0x3c
  RCC_OscInitStruct.PLL.PLLM = 8;
 8001148:	2308      	movs	r3, #8
 800114a:	643b      	str	r3, [r7, #64]	; 0x40
  RCC_OscInitStruct.PLL.PLLN = 80;
 800114c:	2350      	movs	r3, #80	; 0x50
 800114e:	647b      	str	r3, [r7, #68]	; 0x44
  RCC_OscInitStruct.PLL.PLLP = RCC_PLLP_DIV2;
 8001150:	2302      	movs	r3, #2
 8001152:	64bb      	str	r3, [r7, #72]	; 0x48
  RCC_OscInitStruct.PLL.PLLQ = 4;
 8001154:	2304      	movs	r3, #4
 8001156:	64fb      	str	r3, [r7, #76]	; 0x4c
  if (HAL_RCC_OscConfig(&RCC_OscInitStruct) != HAL_OK)
 8001158:	f107 0320 	add.w	r3, r7, #32
 800115c:	4618      	mov	r0, r3
 800115e:	f000 feaf 	bl	8001ec0 <HAL_RCC_OscConfig>
 8001162:	4603      	mov	r3, r0
 8001164:	2b00      	cmp	r3, #0
 8001166:	d001      	beq.n	800116c <SystemClock_Config+0x98>
  {
    Error_Handler();
 8001168:	f000 f960 	bl	800142c <Error_Handler>
  }

  /** Initializes the CPU, AHB and APB buses clocks
  */
  RCC_ClkInitStruct.ClockType = RCC_CLOCKTYPE_HCLK|RCC_CLOCKTYPE_SYSCLK
 800116c:	230f      	movs	r3, #15
 800116e:	60fb      	str	r3, [r7, #12]
                              |RCC_CLOCKTYPE_PCLK1|RCC_CLOCKTYPE_PCLK2;
  RCC_ClkInitStruct.SYSCLKSource = RCC_SYSCLKSOURCE_PLLCLK;
 8001170:	2302      	movs	r3, #2
 8001172:	613b      	str	r3, [r7, #16]
  RCC_ClkInitStruct.AHBCLKDivider = RCC_SYSCLK_DIV1;
 8001174:	2300      	movs	r3, #0
 8001176:	617b      	str	r3, [r7, #20]
  RCC_ClkInitStruct.APB1CLKDivider = RCC_HCLK_DIV2;
 8001178:	f44f 5380 	mov.w	r3, #4096	; 0x1000
 800117c:	61bb      	str	r3, [r7, #24]
  RCC_ClkInitStruct.APB2CLKDivider = RCC_HCLK_DIV2;
 800117e:	f44f 5380 	mov.w	r3, #4096	; 0x1000
 8001182:	61fb      	str	r3, [r7, #28]

  if (HAL_RCC_ClockConfig(&RCC_ClkInitStruct, FLASH_LATENCY_2) != HAL_OK)
 8001184:	f107 030c 	add.w	r3, r7, #12
 8001188:	2102      	movs	r1, #2
 800118a:	4618      	mov	r0, r3
 800118c:	f001 f910 	bl	80023b0 <HAL_RCC_ClockConfig>
 8001190:	4603      	mov	r3, r0
 8001192:	2b00      	cmp	r3, #0
 8001194:	d001      	beq.n	800119a <SystemClock_Config+0xc6>
  {
    Error_Handler();
 8001196:	f000 f949 	bl	800142c <Error_Handler>
  }
}
 800119a:	bf00      	nop
 800119c:	3750      	adds	r7, #80	; 0x50
 800119e:	46bd      	mov	sp, r7
 80011a0:	bd80      	pop	{r7, pc}
 80011a2:	bf00      	nop
 80011a4:	40023800 	.word	0x40023800
 80011a8:	40007000 	.word	0x40007000

080011ac <MX_TIM4_Init>:
  * @brief TIM4 Initialization Function
  * @param None
  * @retval None
  */
static void MX_TIM4_Init(void)
{
 80011ac:	b580      	push	{r7, lr}
 80011ae:	b08c      	sub	sp, #48	; 0x30
 80011b0:	af00      	add	r7, sp, #0

  /* USER CODE BEGIN TIM4_Init 0 */

  /* USER CODE END TIM4_Init 0 */

  TIM_SlaveConfigTypeDef sSlaveConfig = {0};
 80011b2:	f107 031c 	add.w	r3, r7, #28
 80011b6:	2200      	movs	r2, #0
 80011b8:	601a      	str	r2, [r3, #0]
 80011ba:	605a      	str	r2, [r3, #4]
 80011bc:	609a      	str	r2, [r3, #8]
 80011be:	60da      	str	r2, [r3, #12]
 80011c0:	611a      	str	r2, [r3, #16]
  TIM_MasterConfigTypeDef sMasterConfig = {0};
 80011c2:	f107 0314 	add.w	r3, r7, #20
 80011c6:	2200      	movs	r2, #0
 80011c8:	601a      	str	r2, [r3, #0]
 80011ca:	605a      	str	r2, [r3, #4]
  TIM_IC_InitTypeDef sConfigIC = {0};
 80011cc:	1d3b      	adds	r3, r7, #4
 80011ce:	2200      	movs	r2, #0
 80011d0:	601a      	str	r2, [r3, #0]
 80011d2:	605a      	str	r2, [r3, #4]
 80011d4:	609a      	str	r2, [r3, #8]
 80011d6:	60da      	str	r2, [r3, #12]

  /* USER CODE BEGIN TIM4_Init 1 */

  /* USER CODE END TIM4_Init 1 */
  htim4.Instance = TIM4;
 80011d8:	4b2d      	ldr	r3, [pc, #180]	; (8001290 <MX_TIM4_Init+0xe4>)
 80011da:	4a2e      	ldr	r2, [pc, #184]	; (8001294 <MX_TIM4_Init+0xe8>)
 80011dc:	601a      	str	r2, [r3, #0]
  htim4.Init.Prescaler = 80-1;
 80011de:	4b2c      	ldr	r3, [pc, #176]	; (8001290 <MX_TIM4_Init+0xe4>)
 80011e0:	224f      	movs	r2, #79	; 0x4f
 80011e2:	605a      	str	r2, [r3, #4]
  htim4.Init.CounterMode = TIM_COUNTERMODE_UP;
 80011e4:	4b2a      	ldr	r3, [pc, #168]	; (8001290 <MX_TIM4_Init+0xe4>)
 80011e6:	2200      	movs	r2, #0
 80011e8:	609a      	str	r2, [r3, #8]
  htim4.Init.Period = 65535;
 80011ea:	4b29      	ldr	r3, [pc, #164]	; (8001290 <MX_TIM4_Init+0xe4>)
 80011ec:	f64f 72ff 	movw	r2, #65535	; 0xffff
 80011f0:	60da      	str	r2, [r3, #12]
  htim4.Init.ClockDivision = TIM_CLOCKDIVISION_DIV1;
 80011f2:	4b27      	ldr	r3, [pc, #156]	; (8001290 <MX_TIM4_Init+0xe4>)
 80011f4:	2200      	movs	r2, #0
 80011f6:	611a      	str	r2, [r3, #16]
  htim4.Init.AutoReloadPreload = TIM_AUTORELOAD_PRELOAD_DISABLE;
 80011f8:	4b25      	ldr	r3, [pc, #148]	; (8001290 <MX_TIM4_Init+0xe4>)
 80011fa:	2200      	movs	r2, #0
 80011fc:	619a      	str	r2, [r3, #24]
  if (HAL_TIM_Base_Init(&htim4) != HAL_OK)
 80011fe:	4824      	ldr	r0, [pc, #144]	; (8001290 <MX_TIM4_Init+0xe4>)
 8001200:	f001 fab6 	bl	8002770 <HAL_TIM_Base_Init>
 8001204:	4603      	mov	r3, r0
 8001206:	2b00      	cmp	r3, #0
 8001208:	d001      	beq.n	800120e <MX_TIM4_Init+0x62>
  {
    Error_Handler();
 800120a:	f000 f90f 	bl	800142c <Error_Handler>
  }
  if (HAL_TIM_IC_Init(&htim4) != HAL_OK)
 800120e:	4820      	ldr	r0, [pc, #128]	; (8001290 <MX_TIM4_Init+0xe4>)
 8001210:	f001 fc62 	bl	8002ad8 <HAL_TIM_IC_Init>
 8001214:	4603      	mov	r3, r0
 8001216:	2b00      	cmp	r3, #0
 8001218:	d001      	beq.n	800121e <MX_TIM4_Init+0x72>
  {
    Error_Handler();
 800121a:	f000 f907 	bl	800142c <Error_Handler>
  }
  sSlaveConfig.SlaveMode = TIM_SLAVEMODE_RESET;
 800121e:	2304      	movs	r3, #4
 8001220:	61fb      	str	r3, [r7, #28]
  sSlaveConfig.InputTrigger = TIM_TS_TI1FP1;
 8001222:	2350      	movs	r3, #80	; 0x50
 8001224:	623b      	str	r3, [r7, #32]
  sSlaveConfig.TriggerPolarity = TIM_TRIGGERPOLARITY_BOTHEDGE;
 8001226:	230a      	movs	r3, #10
 8001228:	627b      	str	r3, [r7, #36]	; 0x24
  sSlaveConfig.TriggerFilter = 0;
 800122a:	2300      	movs	r3, #0
 800122c:	62fb      	str	r3, [r7, #44]	; 0x2c
  if (HAL_TIM_SlaveConfigSynchro(&htim4, &sSlaveConfig) != HAL_OK)
 800122e:	f107 031c 	add.w	r3, r7, #28
 8001232:	4619      	mov	r1, r3
 8001234:	4816      	ldr	r0, [pc, #88]	; (8001290 <MX_TIM4_Init+0xe4>)
 8001236:	f001 fed5 	bl	8002fe4 <HAL_TIM_SlaveConfigSynchro>
 800123a:	4603      	mov	r3, r0
 800123c:	2b00      	cmp	r3, #0
 800123e:	d001      	beq.n	8001244 <MX_TIM4_Init+0x98>
  {
    Error_Handler();
 8001240:	f000 f8f4 	bl	800142c <Error_Handler>
  }
  sMasterConfig.MasterOutputTrigger = TIM_TRGO_RESET;
 8001244:	2300      	movs	r3, #0
 8001246:	617b      	str	r3, [r7, #20]
  sMasterConfig.MasterSlaveMode = TIM_MASTERSLAVEMODE_DISABLE;
 8001248:	2300      	movs	r3, #0
 800124a:	61bb      	str	r3, [r7, #24]
  if (HAL_TIMEx_MasterConfigSynchronization(&htim4, &sMasterConfig) != HAL_OK)
 800124c:	f107 0314 	add.w	r3, r7, #20
 8001250:	4619      	mov	r1, r3
 8001252:	480f      	ldr	r0, [pc, #60]	; (8001290 <MX_TIM4_Init+0xe4>)
 8001254:	f002 fbac 	bl	80039b0 <HAL_TIMEx_MasterConfigSynchronization>
 8001258:	4603      	mov	r3, r0
 800125a:	2b00      	cmp	r3, #0
 800125c:	d001      	beq.n	8001262 <MX_TIM4_Init+0xb6>
  {
    Error_Handler();
 800125e:	f000 f8e5 	bl	800142c <Error_Handler>
  }
  sConfigIC.ICPolarity = TIM_INPUTCHANNELPOLARITY_BOTHEDGE;
 8001262:	230a      	movs	r3, #10
 8001264:	607b      	str	r3, [r7, #4]
  sConfigIC.ICSelection = TIM_ICSELECTION_DIRECTTI;
 8001266:	2301      	movs	r3, #1
 8001268:	60bb      	str	r3, [r7, #8]
  sConfigIC.ICPrescaler = TIM_ICPSC_DIV1;
 800126a:	2300      	movs	r3, #0
 800126c:	60fb      	str	r3, [r7, #12]
  sConfigIC.ICFilter = 0;
 800126e:	2300      	movs	r3, #0
 8001270:	613b      	str	r3, [r7, #16]
  if (HAL_TIM_IC_ConfigChannel(&htim4, &sConfigIC, TIM_CHANNEL_1) != HAL_OK)
 8001272:	1d3b      	adds	r3, r7, #4
 8001274:	2200      	movs	r2, #0
 8001276:	4619      	mov	r1, r3
 8001278:	4805      	ldr	r0, [pc, #20]	; (8001290 <MX_TIM4_Init+0xe4>)
 800127a:	f001 fd55 	bl	8002d28 <HAL_TIM_IC_ConfigChannel>
 800127e:	4603      	mov	r3, r0
 8001280:	2b00      	cmp	r3, #0
 8001282:	d001      	beq.n	8001288 <MX_TIM4_Init+0xdc>
  {
    Error_Handler();
 8001284:	f000 f8d2 	bl	800142c <Error_Handler>
  }
  /* USER CODE BEGIN TIM4_Init 2 */

  /* USER CODE END TIM4_Init 2 */

}
 8001288:	bf00      	nop
 800128a:	3730      	adds	r7, #48	; 0x30
 800128c:	46bd      	mov	sp, r7
 800128e:	bd80      	pop	{r7, pc}
 8001290:	200001fc 	.word	0x200001fc
 8001294:	40000800 	.word	0x40000800

08001298 <MX_TIM11_Init>:
  * @brief TIM11 Initialization Function
  * @param None
  * @retval None
  */
static void MX_TIM11_Init(void)
{
 8001298:	b580      	push	{r7, lr}
 800129a:	b088      	sub	sp, #32
 800129c:	af00      	add	r7, sp, #0

  /* USER CODE BEGIN TIM11_Init 0 */

  /* USER CODE END TIM11_Init 0 */

  TIM_OC_InitTypeDef sConfigOC = {0};
 800129e:	1d3b      	adds	r3, r7, #4
 80012a0:	2200      	movs	r2, #0
 80012a2:	601a      	str	r2, [r3, #0]
 80012a4:	605a      	str	r2, [r3, #4]
 80012a6:	609a      	str	r2, [r3, #8]
 80012a8:	60da      	str	r2, [r3, #12]
 80012aa:	611a      	str	r2, [r3, #16]
 80012ac:	615a      	str	r2, [r3, #20]
 80012ae:	619a      	str	r2, [r3, #24]

  /* USER CODE BEGIN TIM11_Init 1 */

  /* USER CODE END TIM11_Init 1 */
  htim11.Instance = TIM11;
 80012b0:	4b1e      	ldr	r3, [pc, #120]	; (800132c <MX_TIM11_Init+0x94>)
 80012b2:	4a1f      	ldr	r2, [pc, #124]	; (8001330 <MX_TIM11_Init+0x98>)
 80012b4:	601a      	str	r2, [r3, #0]
  htim11.Init.Prescaler = 200-1;
 80012b6:	4b1d      	ldr	r3, [pc, #116]	; (800132c <MX_TIM11_Init+0x94>)
 80012b8:	22c7      	movs	r2, #199	; 0xc7
 80012ba:	605a      	str	r2, [r3, #4]
  htim11.Init.CounterMode = TIM_COUNTERMODE_UP;
 80012bc:	4b1b      	ldr	r3, [pc, #108]	; (800132c <MX_TIM11_Init+0x94>)
 80012be:	2200      	movs	r2, #0
 80012c0:	609a      	str	r2, [r3, #8]
  htim11.Init.Period = 40000-1;
 80012c2:	4b1a      	ldr	r3, [pc, #104]	; (800132c <MX_TIM11_Init+0x94>)
 80012c4:	f649 423f 	movw	r2, #39999	; 0x9c3f
 80012c8:	60da      	str	r2, [r3, #12]
  htim11.Init.ClockDivision = TIM_CLOCKDIVISION_DIV1;
 80012ca:	4b18      	ldr	r3, [pc, #96]	; (800132c <MX_TIM11_Init+0x94>)
 80012cc:	2200      	movs	r2, #0
 80012ce:	611a      	str	r2, [r3, #16]
  htim11.Init.AutoReloadPreload = TIM_AUTORELOAD_PRELOAD_DISABLE;
 80012d0:	4b16      	ldr	r3, [pc, #88]	; (800132c <MX_TIM11_Init+0x94>)
 80012d2:	2200      	movs	r2, #0
 80012d4:	619a      	str	r2, [r3, #24]
  if (HAL_TIM_Base_Init(&htim11) != HAL_OK)
 80012d6:	4815      	ldr	r0, [pc, #84]	; (800132c <MX_TIM11_Init+0x94>)
 80012d8:	f001 fa4a 	bl	8002770 <HAL_TIM_Base_Init>
 80012dc:	4603      	mov	r3, r0
 80012de:	2b00      	cmp	r3, #0
 80012e0:	d001      	beq.n	80012e6 <MX_TIM11_Init+0x4e>
  {
    Error_Handler();
 80012e2:	f000 f8a3 	bl	800142c <Error_Handler>
  }
  if (HAL_TIM_PWM_Init(&htim11) != HAL_OK)
 80012e6:	4811      	ldr	r0, [pc, #68]	; (800132c <MX_TIM11_Init+0x94>)
 80012e8:	f001 faec 	bl	80028c4 <HAL_TIM_PWM_Init>
 80012ec:	4603      	mov	r3, r0
 80012ee:	2b00      	cmp	r3, #0
 80012f0:	d001      	beq.n	80012f6 <MX_TIM11_Init+0x5e>
  {
    Error_Handler();
 80012f2:	f000 f89b 	bl	800142c <Error_Handler>
  }
  sConfigOC.OCMode = TIM_OCMODE_PWM1;
 80012f6:	2360      	movs	r3, #96	; 0x60
 80012f8:	607b      	str	r3, [r7, #4]
  sConfigOC.Pulse = 0;
 80012fa:	2300      	movs	r3, #0
 80012fc:	60bb      	str	r3, [r7, #8]
  sConfigOC.OCPolarity = TIM_OCPOLARITY_HIGH;
 80012fe:	2300      	movs	r3, #0
 8001300:	60fb      	str	r3, [r7, #12]
  sConfigOC.OCFastMode = TIM_OCFAST_DISABLE;
 8001302:	2300      	movs	r3, #0
 8001304:	617b      	str	r3, [r7, #20]
  if (HAL_TIM_PWM_ConfigChannel(&htim11, &sConfigOC, TIM_CHANNEL_1) != HAL_OK)
 8001306:	1d3b      	adds	r3, r7, #4
 8001308:	2200      	movs	r2, #0
 800130a:	4619      	mov	r1, r3
 800130c:	4807      	ldr	r0, [pc, #28]	; (800132c <MX_TIM11_Init+0x94>)
 800130e:	f001 fda7 	bl	8002e60 <HAL_TIM_PWM_ConfigChannel>
 8001312:	4603      	mov	r3, r0
 8001314:	2b00      	cmp	r3, #0
 8001316:	d001      	beq.n	800131c <MX_TIM11_Init+0x84>
  {
    Error_Handler();
 8001318:	f000 f888 	bl	800142c <Error_Handler>
  }
  /* USER CODE BEGIN TIM11_Init 2 */

  /* USER CODE END TIM11_Init 2 */
  HAL_TIM_MspPostInit(&htim11);
 800131c:	4803      	ldr	r0, [pc, #12]	; (800132c <MX_TIM11_Init+0x94>)
 800131e:	f000 f911 	bl	8001544 <HAL_TIM_MspPostInit>

}
 8001322:	bf00      	nop
 8001324:	3720      	adds	r7, #32
 8001326:	46bd      	mov	sp, r7
 8001328:	bd80      	pop	{r7, pc}
 800132a:	bf00      	nop
 800132c:	20000244 	.word	0x20000244
 8001330:	40014800 	.word	0x40014800

08001334 <MX_USART1_UART_Init>:
  * @brief USART1 Initialization Function
  * @param None
  * @retval None
  */
static void MX_USART1_UART_Init(void)
{
 8001334:	b580      	push	{r7, lr}
 8001336:	af00      	add	r7, sp, #0
  /* USER CODE END USART1_Init 0 */

  /* USER CODE BEGIN USART1_Init 1 */

  /* USER CODE END USART1_Init 1 */
  huart1.Instance = USART1;
 8001338:	4b11      	ldr	r3, [pc, #68]	; (8001380 <MX_USART1_UART_Init+0x4c>)
 800133a:	4a12      	ldr	r2, [pc, #72]	; (8001384 <MX_USART1_UART_Init+0x50>)
 800133c:	601a      	str	r2, [r3, #0]
  huart1.Init.BaudRate = 115200;
 800133e:	4b10      	ldr	r3, [pc, #64]	; (8001380 <MX_USART1_UART_Init+0x4c>)
 8001340:	f44f 32e1 	mov.w	r2, #115200	; 0x1c200
 8001344:	605a      	str	r2, [r3, #4]
  huart1.Init.WordLength = UART_WORDLENGTH_8B;
 8001346:	4b0e      	ldr	r3, [pc, #56]	; (8001380 <MX_USART1_UART_Init+0x4c>)
 8001348:	2200      	movs	r2, #0
 800134a:	609a      	str	r2, [r3, #8]
  huart1.Init.StopBits = UART_STOPBITS_1;
 800134c:	4b0c      	ldr	r3, [pc, #48]	; (8001380 <MX_USART1_UART_Init+0x4c>)
 800134e:	2200      	movs	r2, #0
 8001350:	60da      	str	r2, [r3, #12]
  huart1.Init.Parity = UART_PARITY_NONE;
 8001352:	4b0b      	ldr	r3, [pc, #44]	; (8001380 <MX_USART1_UART_Init+0x4c>)
 8001354:	2200      	movs	r2, #0
 8001356:	611a      	str	r2, [r3, #16]
  huart1.Init.Mode = UART_MODE_TX_RX;
 8001358:	4b09      	ldr	r3, [pc, #36]	; (8001380 <MX_USART1_UART_Init+0x4c>)
 800135a:	220c      	movs	r2, #12
 800135c:	615a      	str	r2, [r3, #20]
  huart1.Init.HwFlowCtl = UART_HWCONTROL_NONE;
 800135e:	4b08      	ldr	r3, [pc, #32]	; (8001380 <MX_USART1_UART_Init+0x4c>)
 8001360:	2200      	movs	r2, #0
 8001362:	619a      	str	r2, [r3, #24]
  huart1.Init.OverSampling = UART_OVERSAMPLING_16;
 8001364:	4b06      	ldr	r3, [pc, #24]	; (8001380 <MX_USART1_UART_Init+0x4c>)
 8001366:	2200      	movs	r2, #0
 8001368:	61da      	str	r2, [r3, #28]
  if (HAL_UART_Init(&huart1) != HAL_OK)
 800136a:	4805      	ldr	r0, [pc, #20]	; (8001380 <MX_USART1_UART_Init+0x4c>)
 800136c:	f002 fb8e 	bl	8003a8c <HAL_UART_Init>
 8001370:	4603      	mov	r3, r0
 8001372:	2b00      	cmp	r3, #0
 8001374:	d001      	beq.n	800137a <MX_USART1_UART_Init+0x46>
  {
    Error_Handler();
 8001376:	f000 f859 	bl	800142c <Error_Handler>
  }
  /* USER CODE BEGIN USART1_Init 2 */

  /* USER CODE END USART1_Init 2 */

}
 800137a:	bf00      	nop
 800137c:	bd80      	pop	{r7, pc}
 800137e:	bf00      	nop
 8001380:	2000028c 	.word	0x2000028c
 8001384:	40011000 	.word	0x40011000

08001388 <MX_USART2_UART_Init>:
  * @brief USART2 Initialization Function
  * @param None
  * @retval None
  */
static void MX_USART2_UART_Init(void)
{
 8001388:	b580      	push	{r7, lr}
 800138a:	af00      	add	r7, sp, #0
  /* USER CODE END USART2_Init 0 */

  /* USER CODE BEGIN USART2_Init 1 */

  /* USER CODE END USART2_Init 1 */
  huart2.Instance = USART2;
 800138c:	4b11      	ldr	r3, [pc, #68]	; (80013d4 <MX_USART2_UART_Init+0x4c>)
 800138e:	4a12      	ldr	r2, [pc, #72]	; (80013d8 <MX_USART2_UART_Init+0x50>)
 8001390:	601a      	str	r2, [r3, #0]
  huart2.Init.BaudRate = 115200;
 8001392:	4b10      	ldr	r3, [pc, #64]	; (80013d4 <MX_USART2_UART_Init+0x4c>)
 8001394:	f44f 32e1 	mov.w	r2, #115200	; 0x1c200
 8001398:	605a      	str	r2, [r3, #4]
  huart2.Init.WordLength = UART_WORDLENGTH_8B;
 800139a:	4b0e      	ldr	r3, [pc, #56]	; (80013d4 <MX_USART2_UART_Init+0x4c>)
 800139c:	2200      	movs	r2, #0
 800139e:	609a      	str	r2, [r3, #8]
  huart2.Init.StopBits = UART_STOPBITS_1;
 80013a0:	4b0c      	ldr	r3, [pc, #48]	; (80013d4 <MX_USART2_UART_Init+0x4c>)
 80013a2:	2200      	movs	r2, #0
 80013a4:	60da      	str	r2, [r3, #12]
  huart2.Init.Parity = UART_PARITY_NONE;
 80013a6:	4b0b      	ldr	r3, [pc, #44]	; (80013d4 <MX_USART2_UART_Init+0x4c>)
 80013a8:	2200      	movs	r2, #0
 80013aa:	611a      	str	r2, [r3, #16]
  huart2.Init.Mode = UART_MODE_TX_RX;
 80013ac:	4b09      	ldr	r3, [pc, #36]	; (80013d4 <MX_USART2_UART_Init+0x4c>)
 80013ae:	220c      	movs	r2, #12
 80013b0:	615a      	str	r2, [r3, #20]
  huart2.Init.HwFlowCtl = UART_HWCONTROL_NONE;
 80013b2:	4b08      	ldr	r3, [pc, #32]	; (80013d4 <MX_USART2_UART_Init+0x4c>)
 80013b4:	2200      	movs	r2, #0
 80013b6:	619a      	str	r2, [r3, #24]
  huart2.Init.OverSampling = UART_OVERSAMPLING_16;
 80013b8:	4b06      	ldr	r3, [pc, #24]	; (80013d4 <MX_USART2_UART_Init+0x4c>)
 80013ba:	2200      	movs	r2, #0
 80013bc:	61da      	str	r2, [r3, #28]
  if (HAL_UART_Init(&huart2) != HAL_OK)
 80013be:	4805      	ldr	r0, [pc, #20]	; (80013d4 <MX_USART2_UART_Init+0x4c>)
 80013c0:	f002 fb64 	bl	8003a8c <HAL_UART_Init>
 80013c4:	4603      	mov	r3, r0
 80013c6:	2b00      	cmp	r3, #0
 80013c8:	d001      	beq.n	80013ce <MX_USART2_UART_Init+0x46>
  {
    Error_Handler();
 80013ca:	f000 f82f 	bl	800142c <Error_Handler>
  }
  /* USER CODE BEGIN USART2_Init 2 */

  /* USER CODE END USART2_Init 2 */

}
 80013ce:	bf00      	nop
 80013d0:	bd80      	pop	{r7, pc}
 80013d2:	bf00      	nop
 80013d4:	200002d0 	.word	0x200002d0
 80013d8:	40004400 	.word	0x40004400

080013dc <MX_GPIO_Init>:
  * @brief GPIO Initialization Function
  * @param None
  * @retval None
  */
static void MX_GPIO_Init(void)
{
 80013dc:	b480      	push	{r7}
 80013de:	b083      	sub	sp, #12
 80013e0:	af00      	add	r7, sp, #0
/* USER CODE BEGIN MX_GPIO_Init_1 */
/* USER CODE END MX_GPIO_Init_1 */

  /* GPIO Ports Clock Enable */
  __HAL_RCC_GPIOA_CLK_ENABLE();
 80013e2:	2300      	movs	r3, #0
 80013e4:	607b      	str	r3, [r7, #4]
 80013e6:	4b10      	ldr	r3, [pc, #64]	; (8001428 <MX_GPIO_Init+0x4c>)
 80013e8:	6b1b      	ldr	r3, [r3, #48]	; 0x30
 80013ea:	4a0f      	ldr	r2, [pc, #60]	; (8001428 <MX_GPIO_Init+0x4c>)
 80013ec:	f043 0301 	orr.w	r3, r3, #1
 80013f0:	6313      	str	r3, [r2, #48]	; 0x30
 80013f2:	4b0d      	ldr	r3, [pc, #52]	; (8001428 <MX_GPIO_Init+0x4c>)
 80013f4:	6b1b      	ldr	r3, [r3, #48]	; 0x30
 80013f6:	f003 0301 	and.w	r3, r3, #1
 80013fa:	607b      	str	r3, [r7, #4]
 80013fc:	687b      	ldr	r3, [r7, #4]
  __HAL_RCC_GPIOB_CLK_ENABLE();
 80013fe:	2300      	movs	r3, #0
 8001400:	603b      	str	r3, [r7, #0]
 8001402:	4b09      	ldr	r3, [pc, #36]	; (8001428 <MX_GPIO_Init+0x4c>)
 8001404:	6b1b      	ldr	r3, [r3, #48]	; 0x30
 8001406:	4a08      	ldr	r2, [pc, #32]	; (8001428 <MX_GPIO_Init+0x4c>)
 8001408:	f043 0302 	orr.w	r3, r3, #2
 800140c:	6313      	str	r3, [r2, #48]	; 0x30
 800140e:	4b06      	ldr	r3, [pc, #24]	; (8001428 <MX_GPIO_Init+0x4c>)
 8001410:	6b1b      	ldr	r3, [r3, #48]	; 0x30
 8001412:	f003 0302 	and.w	r3, r3, #2
 8001416:	603b      	str	r3, [r7, #0]
 8001418:	683b      	ldr	r3, [r7, #0]

/* USER CODE BEGIN MX_GPIO_Init_2 */
/* USER CODE END MX_GPIO_Init_2 */
}
 800141a:	bf00      	nop
 800141c:	370c      	adds	r7, #12
 800141e:	46bd      	mov	sp, r7
 8001420:	f85d 7b04 	ldr.w	r7, [sp], #4
 8001424:	4770      	bx	lr
 8001426:	bf00      	nop
 8001428:	40023800 	.word	0x40023800

0800142c <Error_Handler>:
/**
  * @brief  This function is executed in case of error occurrence.
  * @retval None
  */
void Error_Handler(void)
{
 800142c:	b480      	push	{r7}
 800142e:	af00      	add	r7, sp, #0
  \details Disables IRQ interrupts by setting the I-bit in the CPSR.
           Can only be executed in Privileged modes.
 */
__STATIC_FORCEINLINE void __disable_irq(void)
{
  __ASM volatile ("cpsid i" : : : "memory");
 8001430:	b672      	cpsid	i
}
 8001432:	bf00      	nop
  /* USER CODE BEGIN Error_Handler_Debug */
  /* User can add his own implementation to report the HAL error return state */
  __disable_irq();
  while (1)
 8001434:	e7fe      	b.n	8001434 <Error_Handler+0x8>
	...

08001438 <HAL_MspInit>:
void HAL_TIM_MspPostInit(TIM_HandleTypeDef *htim);
                    /**
  * Initializes the Global MSP.
  */
void HAL_MspInit(void)
{
 8001438:	b480      	push	{r7}
 800143a:	b083      	sub	sp, #12
 800143c:	af00      	add	r7, sp, #0
  /* USER CODE BEGIN MspInit 0 */

  /* USER CODE END MspInit 0 */

  __HAL_RCC_SYSCFG_CLK_ENABLE();
 800143e:	2300      	movs	r3, #0
 8001440:	607b      	str	r3, [r7, #4]
 8001442:	4b10      	ldr	r3, [pc, #64]	; (8001484 <HAL_MspInit+0x4c>)
 8001444:	6c5b      	ldr	r3, [r3, #68]	; 0x44
 8001446:	4a0f      	ldr	r2, [pc, #60]	; (8001484 <HAL_MspInit+0x4c>)
 8001448:	f443 4380 	orr.w	r3, r3, #16384	; 0x4000
 800144c:	6453      	str	r3, [r2, #68]	; 0x44
 800144e:	4b0d      	ldr	r3, [pc, #52]	; (8001484 <HAL_MspInit+0x4c>)
 8001450:	6c5b      	ldr	r3, [r3, #68]	; 0x44
 8001452:	f403 4380 	and.w	r3, r3, #16384	; 0x4000
 8001456:	607b      	str	r3, [r7, #4]
 8001458:	687b      	ldr	r3, [r7, #4]
  __HAL_RCC_PWR_CLK_ENABLE();
 800145a:	2300      	movs	r3, #0
 800145c:	603b      	str	r3, [r7, #0]
 800145e:	4b09      	ldr	r3, [pc, #36]	; (8001484 <HAL_MspInit+0x4c>)
 8001460:	6c1b      	ldr	r3, [r3, #64]	; 0x40
 8001462:	4a08      	ldr	r2, [pc, #32]	; (8001484 <HAL_MspInit+0x4c>)
 8001464:	f043 5380 	orr.w	r3, r3, #268435456	; 0x10000000
 8001468:	6413      	str	r3, [r2, #64]	; 0x40
 800146a:	4b06      	ldr	r3, [pc, #24]	; (8001484 <HAL_MspInit+0x4c>)
 800146c:	6c1b      	ldr	r3, [r3, #64]	; 0x40
 800146e:	f003 5380 	and.w	r3, r3, #268435456	; 0x10000000
 8001472:	603b      	str	r3, [r7, #0]
 8001474:	683b      	ldr	r3, [r7, #0]
  /* System interrupt init*/

  /* USER CODE BEGIN MspInit 1 */

  /* USER CODE END MspInit 1 */
}
 8001476:	bf00      	nop
 8001478:	370c      	adds	r7, #12
 800147a:	46bd      	mov	sp, r7
 800147c:	f85d 7b04 	ldr.w	r7, [sp], #4
 8001480:	4770      	bx	lr
 8001482:	bf00      	nop
 8001484:	40023800 	.word	0x40023800

08001488 <HAL_TIM_Base_MspInit>:
* This function configures the hardware resources used in this example
* @param htim_base: TIM_Base handle pointer
* @retval None
*/
void HAL_TIM_Base_MspInit(TIM_HandleTypeDef* htim_base)
{
 8001488:	b580      	push	{r7, lr}
 800148a:	b08a      	sub	sp, #40	; 0x28
 800148c:	af00      	add	r7, sp, #0
 800148e:	6078      	str	r0, [r7, #4]
  GPIO_InitTypeDef GPIO_InitStruct = {0};
 8001490:	f107 0314 	add.w	r3, r7, #20
 8001494:	2200      	movs	r2, #0
 8001496:	601a      	str	r2, [r3, #0]
 8001498:	605a      	str	r2, [r3, #4]
 800149a:	609a      	str	r2, [r3, #8]
 800149c:	60da      	str	r2, [r3, #12]
 800149e:	611a      	str	r2, [r3, #16]
  if(htim_base->Instance==TIM4)
 80014a0:	687b      	ldr	r3, [r7, #4]
 80014a2:	681b      	ldr	r3, [r3, #0]
 80014a4:	4a23      	ldr	r2, [pc, #140]	; (8001534 <HAL_TIM_Base_MspInit+0xac>)
 80014a6:	4293      	cmp	r3, r2
 80014a8:	d12c      	bne.n	8001504 <HAL_TIM_Base_MspInit+0x7c>
  {
  /* USER CODE BEGIN TIM4_MspInit 0 */

  /* USER CODE END TIM4_MspInit 0 */
    /* Peripheral clock enable */
    __HAL_RCC_TIM4_CLK_ENABLE();
 80014aa:	2300      	movs	r3, #0
 80014ac:	613b      	str	r3, [r7, #16]
 80014ae:	4b22      	ldr	r3, [pc, #136]	; (8001538 <HAL_TIM_Base_MspInit+0xb0>)
 80014b0:	6c1b      	ldr	r3, [r3, #64]	; 0x40
 80014b2:	4a21      	ldr	r2, [pc, #132]	; (8001538 <HAL_TIM_Base_MspInit+0xb0>)
 80014b4:	f043 0304 	orr.w	r3, r3, #4
 80014b8:	6413      	str	r3, [r2, #64]	; 0x40
 80014ba:	4b1f      	ldr	r3, [pc, #124]	; (8001538 <HAL_TIM_Base_MspInit+0xb0>)
 80014bc:	6c1b      	ldr	r3, [r3, #64]	; 0x40
 80014be:	f003 0304 	and.w	r3, r3, #4
 80014c2:	613b      	str	r3, [r7, #16]
 80014c4:	693b      	ldr	r3, [r7, #16]

    __HAL_RCC_GPIOB_CLK_ENABLE();
 80014c6:	2300      	movs	r3, #0
 80014c8:	60fb      	str	r3, [r7, #12]
 80014ca:	4b1b      	ldr	r3, [pc, #108]	; (8001538 <HAL_TIM_Base_MspInit+0xb0>)
 80014cc:	6b1b      	ldr	r3, [r3, #48]	; 0x30
 80014ce:	4a1a      	ldr	r2, [pc, #104]	; (8001538 <HAL_TIM_Base_MspInit+0xb0>)
 80014d0:	f043 0302 	orr.w	r3, r3, #2
 80014d4:	6313      	str	r3, [r2, #48]	; 0x30
 80014d6:	4b18      	ldr	r3, [pc, #96]	; (8001538 <HAL_TIM_Base_MspInit+0xb0>)
 80014d8:	6b1b      	ldr	r3, [r3, #48]	; 0x30
 80014da:	f003 0302 	and.w	r3, r3, #2
 80014de:	60fb      	str	r3, [r7, #12]
 80014e0:	68fb      	ldr	r3, [r7, #12]
    /**TIM4 GPIO Configuration
    PB6     ------> TIM4_CH1
    */
    GPIO_InitStruct.Pin = GPIO_PIN_6;
 80014e2:	2340      	movs	r3, #64	; 0x40
 80014e4:	617b      	str	r3, [r7, #20]
    GPIO_InitStruct.Mode = GPIO_MODE_AF_PP;
 80014e6:	2302      	movs	r3, #2
 80014e8:	61bb      	str	r3, [r7, #24]
    GPIO_InitStruct.Pull = GPIO_NOPULL;
 80014ea:	2300      	movs	r3, #0
 80014ec:	61fb      	str	r3, [r7, #28]
    GPIO_InitStruct.Speed = GPIO_SPEED_FREQ_LOW;
 80014ee:	2300      	movs	r3, #0
 80014f0:	623b      	str	r3, [r7, #32]
    GPIO_InitStruct.Alternate = GPIO_AF2_TIM4;
 80014f2:	2302      	movs	r3, #2
 80014f4:	627b      	str	r3, [r7, #36]	; 0x24
    HAL_GPIO_Init(GPIOB, &GPIO_InitStruct);
 80014f6:	f107 0314 	add.w	r3, r7, #20
 80014fa:	4619      	mov	r1, r3
 80014fc:	480f      	ldr	r0, [pc, #60]	; (800153c <HAL_TIM_Base_MspInit+0xb4>)
 80014fe:	f000 fb5b 	bl	8001bb8 <HAL_GPIO_Init>
  /* USER CODE BEGIN TIM11_MspInit 1 */

  /* USER CODE END TIM11_MspInit 1 */
  }

}
 8001502:	e012      	b.n	800152a <HAL_TIM_Base_MspInit+0xa2>
  else if(htim_base->Instance==TIM11)
 8001504:	687b      	ldr	r3, [r7, #4]
 8001506:	681b      	ldr	r3, [r3, #0]
 8001508:	4a0d      	ldr	r2, [pc, #52]	; (8001540 <HAL_TIM_Base_MspInit+0xb8>)
 800150a:	4293      	cmp	r3, r2
 800150c:	d10d      	bne.n	800152a <HAL_TIM_Base_MspInit+0xa2>
    __HAL_RCC_TIM11_CLK_ENABLE();
 800150e:	2300      	movs	r3, #0
 8001510:	60bb      	str	r3, [r7, #8]
 8001512:	4b09      	ldr	r3, [pc, #36]	; (8001538 <HAL_TIM_Base_MspInit+0xb0>)
 8001514:	6c5b      	ldr	r3, [r3, #68]	; 0x44
 8001516:	4a08      	ldr	r2, [pc, #32]	; (8001538 <HAL_TIM_Base_MspInit+0xb0>)
 8001518:	f443 2380 	orr.w	r3, r3, #262144	; 0x40000
 800151c:	6453      	str	r3, [r2, #68]	; 0x44
 800151e:	4b06      	ldr	r3, [pc, #24]	; (8001538 <HAL_TIM_Base_MspInit+0xb0>)
 8001520:	6c5b      	ldr	r3, [r3, #68]	; 0x44
 8001522:	f403 2380 	and.w	r3, r3, #262144	; 0x40000
 8001526:	60bb      	str	r3, [r7, #8]
 8001528:	68bb      	ldr	r3, [r7, #8]
}
 800152a:	bf00      	nop
 800152c:	3728      	adds	r7, #40	; 0x28
 800152e:	46bd      	mov	sp, r7
 8001530:	bd80      	pop	{r7, pc}
 8001532:	bf00      	nop
 8001534:	40000800 	.word	0x40000800
 8001538:	40023800 	.word	0x40023800
 800153c:	40020400 	.word	0x40020400
 8001540:	40014800 	.word	0x40014800

08001544 <HAL_TIM_MspPostInit>:

void HAL_TIM_MspPostInit(TIM_HandleTypeDef* htim)
{
 8001544:	b580      	push	{r7, lr}
 8001546:	b088      	sub	sp, #32
 8001548:	af00      	add	r7, sp, #0
 800154a:	6078      	str	r0, [r7, #4]
  GPIO_InitTypeDef GPIO_InitStruct = {0};
 800154c:	f107 030c 	add.w	r3, r7, #12
 8001550:	2200      	movs	r2, #0
 8001552:	601a      	str	r2, [r3, #0]
 8001554:	605a      	str	r2, [r3, #4]
 8001556:	609a      	str	r2, [r3, #8]
 8001558:	60da      	str	r2, [r3, #12]
 800155a:	611a      	str	r2, [r3, #16]
  if(htim->Instance==TIM11)
 800155c:	687b      	ldr	r3, [r7, #4]
 800155e:	681b      	ldr	r3, [r3, #0]
 8001560:	4a12      	ldr	r2, [pc, #72]	; (80015ac <HAL_TIM_MspPostInit+0x68>)
 8001562:	4293      	cmp	r3, r2
 8001564:	d11e      	bne.n	80015a4 <HAL_TIM_MspPostInit+0x60>
  {
  /* USER CODE BEGIN TIM11_MspPostInit 0 */

  /* USER CODE END TIM11_MspPostInit 0 */

    __HAL_RCC_GPIOB_CLK_ENABLE();
 8001566:	2300      	movs	r3, #0
 8001568:	60bb      	str	r3, [r7, #8]
 800156a:	4b11      	ldr	r3, [pc, #68]	; (80015b0 <HAL_TIM_MspPostInit+0x6c>)
 800156c:	6b1b      	ldr	r3, [r3, #48]	; 0x30
 800156e:	4a10      	ldr	r2, [pc, #64]	; (80015b0 <HAL_TIM_MspPostInit+0x6c>)
 8001570:	f043 0302 	orr.w	r3, r3, #2
 8001574:	6313      	str	r3, [r2, #48]	; 0x30
 8001576:	4b0e      	ldr	r3, [pc, #56]	; (80015b0 <HAL_TIM_MspPostInit+0x6c>)
 8001578:	6b1b      	ldr	r3, [r3, #48]	; 0x30
 800157a:	f003 0302 	and.w	r3, r3, #2
 800157e:	60bb      	str	r3, [r7, #8]
 8001580:	68bb      	ldr	r3, [r7, #8]
    /**TIM11 GPIO Configuration
    PB9     ------> TIM11_CH1
    */
    GPIO_InitStruct.Pin = GPIO_PIN_9;
 8001582:	f44f 7300 	mov.w	r3, #512	; 0x200
 8001586:	60fb      	str	r3, [r7, #12]
    GPIO_InitStruct.Mode = GPIO_MODE_AF_PP;
 8001588:	2302      	movs	r3, #2
 800158a:	613b      	str	r3, [r7, #16]
    GPIO_InitStruct.Pull = GPIO_NOPULL;
 800158c:	2300      	movs	r3, #0
 800158e:	617b      	str	r3, [r7, #20]
    GPIO_InitStruct.Speed = GPIO_SPEED_FREQ_LOW;
 8001590:	2300      	movs	r3, #0
 8001592:	61bb      	str	r3, [r7, #24]
    GPIO_InitStruct.Alternate = GPIO_AF3_TIM11;
 8001594:	2303      	movs	r3, #3
 8001596:	61fb      	str	r3, [r7, #28]
    HAL_GPIO_Init(GPIOB, &GPIO_InitStruct);
 8001598:	f107 030c 	add.w	r3, r7, #12
 800159c:	4619      	mov	r1, r3
 800159e:	4805      	ldr	r0, [pc, #20]	; (80015b4 <HAL_TIM_MspPostInit+0x70>)
 80015a0:	f000 fb0a 	bl	8001bb8 <HAL_GPIO_Init>
  /* USER CODE BEGIN TIM11_MspPostInit 1 */

  /* USER CODE END TIM11_MspPostInit 1 */
  }

}
 80015a4:	bf00      	nop
 80015a6:	3720      	adds	r7, #32
 80015a8:	46bd      	mov	sp, r7
 80015aa:	bd80      	pop	{r7, pc}
 80015ac:	40014800 	.word	0x40014800
 80015b0:	40023800 	.word	0x40023800
 80015b4:	40020400 	.word	0x40020400

080015b8 <HAL_UART_MspInit>:
* This function configures the hardware resources used in this example
* @param huart: UART handle pointer
* @retval None
*/
void HAL_UART_MspInit(UART_HandleTypeDef* huart)
{
 80015b8:	b580      	push	{r7, lr}
 80015ba:	b08c      	sub	sp, #48	; 0x30
 80015bc:	af00      	add	r7, sp, #0
 80015be:	6078      	str	r0, [r7, #4]
  GPIO_InitTypeDef GPIO_InitStruct = {0};
 80015c0:	f107 031c 	add.w	r3, r7, #28
 80015c4:	2200      	movs	r2, #0
 80015c6:	601a      	str	r2, [r3, #0]
 80015c8:	605a      	str	r2, [r3, #4]
 80015ca:	609a      	str	r2, [r3, #8]
 80015cc:	60da      	str	r2, [r3, #12]
 80015ce:	611a      	str	r2, [r3, #16]
  if(huart->Instance==USART1)
 80015d0:	687b      	ldr	r3, [r7, #4]
 80015d2:	681b      	ldr	r3, [r3, #0]
 80015d4:	4a32      	ldr	r2, [pc, #200]	; (80016a0 <HAL_UART_MspInit+0xe8>)
 80015d6:	4293      	cmp	r3, r2
 80015d8:	d12d      	bne.n	8001636 <HAL_UART_MspInit+0x7e>
  {
  /* USER CODE BEGIN USART1_MspInit 0 */

  /* USER CODE END USART1_MspInit 0 */
    /* Peripheral clock enable */
    __HAL_RCC_USART1_CLK_ENABLE();
 80015da:	2300      	movs	r3, #0
 80015dc:	61bb      	str	r3, [r7, #24]
 80015de:	4b31      	ldr	r3, [pc, #196]	; (80016a4 <HAL_UART_MspInit+0xec>)
 80015e0:	6c5b      	ldr	r3, [r3, #68]	; 0x44
 80015e2:	4a30      	ldr	r2, [pc, #192]	; (80016a4 <HAL_UART_MspInit+0xec>)
 80015e4:	f043 0310 	orr.w	r3, r3, #16
 80015e8:	6453      	str	r3, [r2, #68]	; 0x44
 80015ea:	4b2e      	ldr	r3, [pc, #184]	; (80016a4 <HAL_UART_MspInit+0xec>)
 80015ec:	6c5b      	ldr	r3, [r3, #68]	; 0x44
 80015ee:	f003 0310 	and.w	r3, r3, #16
 80015f2:	61bb      	str	r3, [r7, #24]
 80015f4:	69bb      	ldr	r3, [r7, #24]

    __HAL_RCC_GPIOA_CLK_ENABLE();
 80015f6:	2300      	movs	r3, #0
 80015f8:	617b      	str	r3, [r7, #20]
 80015fa:	4b2a      	ldr	r3, [pc, #168]	; (80016a4 <HAL_UART_MspInit+0xec>)
 80015fc:	6b1b      	ldr	r3, [r3, #48]	; 0x30
 80015fe:	4a29      	ldr	r2, [pc, #164]	; (80016a4 <HAL_UART_MspInit+0xec>)
 8001600:	f043 0301 	orr.w	r3, r3, #1
 8001604:	6313      	str	r3, [r2, #48]	; 0x30
 8001606:	4b27      	ldr	r3, [pc, #156]	; (80016a4 <HAL_UART_MspInit+0xec>)
 8001608:	6b1b      	ldr	r3, [r3, #48]	; 0x30
 800160a:	f003 0301 	and.w	r3, r3, #1
 800160e:	617b      	str	r3, [r7, #20]
 8001610:	697b      	ldr	r3, [r7, #20]
    /**USART1 GPIO Configuration
    PA9     ------> USART1_TX
    PA10     ------> USART1_RX
    */
    GPIO_InitStruct.Pin = GPIO_PIN_9|GPIO_PIN_10;
 8001612:	f44f 63c0 	mov.w	r3, #1536	; 0x600
 8001616:	61fb      	str	r3, [r7, #28]
    GPIO_InitStruct.Mode = GPIO_MODE_AF_PP;
 8001618:	2302      	movs	r3, #2
 800161a:	623b      	str	r3, [r7, #32]
    GPIO_InitStruct.Pull = GPIO_NOPULL;
 800161c:	2300      	movs	r3, #0
 800161e:	627b      	str	r3, [r7, #36]	; 0x24
    GPIO_InitStruct.Speed = GPIO_SPEED_FREQ_VERY_HIGH;
 8001620:	2303      	movs	r3, #3
 8001622:	62bb      	str	r3, [r7, #40]	; 0x28
    GPIO_InitStruct.Alternate = GPIO_AF7_USART1;
 8001624:	2307      	movs	r3, #7
 8001626:	62fb      	str	r3, [r7, #44]	; 0x2c
    HAL_GPIO_Init(GPIOA, &GPIO_InitStruct);
 8001628:	f107 031c 	add.w	r3, r7, #28
 800162c:	4619      	mov	r1, r3
 800162e:	481e      	ldr	r0, [pc, #120]	; (80016a8 <HAL_UART_MspInit+0xf0>)
 8001630:	f000 fac2 	bl	8001bb8 <HAL_GPIO_Init>
  /* USER CODE BEGIN USART2_MspInit 1 */

  /* USER CODE END USART2_MspInit 1 */
  }

}
 8001634:	e030      	b.n	8001698 <HAL_UART_MspInit+0xe0>
  else if(huart->Instance==USART2)
 8001636:	687b      	ldr	r3, [r7, #4]
 8001638:	681b      	ldr	r3, [r3, #0]
 800163a:	4a1c      	ldr	r2, [pc, #112]	; (80016ac <HAL_UART_MspInit+0xf4>)
 800163c:	4293      	cmp	r3, r2
 800163e:	d12b      	bne.n	8001698 <HAL_UART_MspInit+0xe0>
    __HAL_RCC_USART2_CLK_ENABLE();
 8001640:	2300      	movs	r3, #0
 8001642:	613b      	str	r3, [r7, #16]
 8001644:	4b17      	ldr	r3, [pc, #92]	; (80016a4 <HAL_UART_MspInit+0xec>)
 8001646:	6c1b      	ldr	r3, [r3, #64]	; 0x40
 8001648:	4a16      	ldr	r2, [pc, #88]	; (80016a4 <HAL_UART_MspInit+0xec>)
 800164a:	f443 3300 	orr.w	r3, r3, #131072	; 0x20000
 800164e:	6413      	str	r3, [r2, #64]	; 0x40
 8001650:	4b14      	ldr	r3, [pc, #80]	; (80016a4 <HAL_UART_MspInit+0xec>)
 8001652:	6c1b      	ldr	r3, [r3, #64]	; 0x40
 8001654:	f403 3300 	and.w	r3, r3, #131072	; 0x20000
 8001658:	613b      	str	r3, [r7, #16]
 800165a:	693b      	ldr	r3, [r7, #16]
    __HAL_RCC_GPIOA_CLK_ENABLE();
 800165c:	2300      	movs	r3, #0
 800165e:	60fb      	str	r3, [r7, #12]
 8001660:	4b10      	ldr	r3, [pc, #64]	; (80016a4 <HAL_UART_MspInit+0xec>)
 8001662:	6b1b      	ldr	r3, [r3, #48]	; 0x30
 8001664:	4a0f      	ldr	r2, [pc, #60]	; (80016a4 <HAL_UART_MspInit+0xec>)
 8001666:	f043 0301 	orr.w	r3, r3, #1
 800166a:	6313      	str	r3, [r2, #48]	; 0x30
 800166c:	4b0d      	ldr	r3, [pc, #52]	; (80016a4 <HAL_UART_MspInit+0xec>)
 800166e:	6b1b      	ldr	r3, [r3, #48]	; 0x30
 8001670:	f003 0301 	and.w	r3, r3, #1
 8001674:	60fb      	str	r3, [r7, #12]
 8001676:	68fb      	ldr	r3, [r7, #12]
    GPIO_InitStruct.Pin = GPIO_PIN_2|GPIO_PIN_3;
 8001678:	230c      	movs	r3, #12
 800167a:	61fb      	str	r3, [r7, #28]
    GPIO_InitStruct.Mode = GPIO_MODE_AF_PP;
 800167c:	2302      	movs	r3, #2
 800167e:	623b      	str	r3, [r7, #32]
    GPIO_InitStruct.Pull = GPIO_NOPULL;
 8001680:	2300      	movs	r3, #0
 8001682:	627b      	str	r3, [r7, #36]	; 0x24
    GPIO_InitStruct.Speed = GPIO_SPEED_FREQ_VERY_HIGH;
 8001684:	2303      	movs	r3, #3
 8001686:	62bb      	str	r3, [r7, #40]	; 0x28
    GPIO_InitStruct.Alternate = GPIO_AF7_USART2;
 8001688:	2307      	movs	r3, #7
 800168a:	62fb      	str	r3, [r7, #44]	; 0x2c
    HAL_GPIO_Init(GPIOA, &GPIO_InitStruct);
 800168c:	f107 031c 	add.w	r3, r7, #28
 8001690:	4619      	mov	r1, r3
 8001692:	4805      	ldr	r0, [pc, #20]	; (80016a8 <HAL_UART_MspInit+0xf0>)
 8001694:	f000 fa90 	bl	8001bb8 <HAL_GPIO_Init>
}
 8001698:	bf00      	nop
 800169a:	3730      	adds	r7, #48	; 0x30
 800169c:	46bd      	mov	sp, r7
 800169e:	bd80      	pop	{r7, pc}
 80016a0:	40011000 	.word	0x40011000
 80016a4:	40023800 	.word	0x40023800
 80016a8:	40020000 	.word	0x40020000
 80016ac:	40004400 	.word	0x40004400

080016b0 <NMI_Handler>:
/******************************************************************************/
/**
  * @brief This function handles Non maskable interrupt.
  */
void NMI_Handler(void)
{
 80016b0:	b480      	push	{r7}
 80016b2:	af00      	add	r7, sp, #0
  /* USER CODE BEGIN NonMaskableInt_IRQn 0 */

  /* USER CODE END NonMaskableInt_IRQn 0 */
  /* USER CODE BEGIN NonMaskableInt_IRQn 1 */
  while (1)
 80016b4:	e7fe      	b.n	80016b4 <NMI_Handler+0x4>

080016b6 <HardFault_Handler>:

/**
  * @brief This function handles Hard fault interrupt.
  */
void HardFault_Handler(void)
{
 80016b6:	b480      	push	{r7}
 80016b8:	af00      	add	r7, sp, #0
  /* USER CODE BEGIN HardFault_IRQn 0 */

  /* USER CODE END HardFault_IRQn 0 */
  while (1)
 80016ba:	e7fe      	b.n	80016ba <HardFault_Handler+0x4>

080016bc <MemManage_Handler>:

/**
  * @brief This function handles Memory management fault.
  */
void MemManage_Handler(void)
{
 80016bc:	b480      	push	{r7}
 80016be:	af00      	add	r7, sp, #0
  /* USER CODE BEGIN MemoryManagement_IRQn 0 */

  /* USER CODE END MemoryManagement_IRQn 0 */
  while (1)
 80016c0:	e7fe      	b.n	80016c0 <MemManage_Handler+0x4>

080016c2 <BusFault_Handler>:

/**
  * @brief This function handles Pre-fetch fault, memory access fault.
  */
void BusFault_Handler(void)
{
 80016c2:	b480      	push	{r7}
 80016c4:	af00      	add	r7, sp, #0
  /* USER CODE BEGIN BusFault_IRQn 0 */

  /* USER CODE END BusFault_IRQn 0 */
  while (1)
 80016c6:	e7fe      	b.n	80016c6 <BusFault_Handler+0x4>

080016c8 <UsageFault_Handler>:

/**
  * @brief This function handles Undefined instruction or illegal state.
  */
void UsageFault_Handler(void)
{
 80016c8:	b480      	push	{r7}
 80016ca:	af00      	add	r7, sp, #0
  /* USER CODE BEGIN UsageFault_IRQn 0 */

  /* USER CODE END UsageFault_IRQn 0 */
  while (1)
 80016cc:	e7fe      	b.n	80016cc <UsageFault_Handler+0x4>

080016ce <SVC_Handler>:

/**
  * @brief This function handles System service call via SWI instruction.
  */
void SVC_Handler(void)
{
 80016ce:	b480      	push	{r7}
 80016d0:	af00      	add	r7, sp, #0

  /* USER CODE END SVCall_IRQn 0 */
  /* USER CODE BEGIN SVCall_IRQn 1 */

  /* USER CODE END SVCall_IRQn 1 */
}
 80016d2:	bf00      	nop
 80016d4:	46bd      	mov	sp, r7
 80016d6:	f85d 7b04 	ldr.w	r7, [sp], #4
 80016da:	4770      	bx	lr

080016dc <DebugMon_Handler>:

/**
  * @brief This function handles Debug monitor.
  */
void DebugMon_Handler(void)
{
 80016dc:	b480      	push	{r7}
 80016de:	af00      	add	r7, sp, #0

  /* USER CODE END DebugMonitor_IRQn 0 */
  /* USER CODE BEGIN DebugMonitor_IRQn 1 */

  /* USER CODE END DebugMonitor_IRQn 1 */
}
 80016e0:	bf00      	nop
 80016e2:	46bd      	mov	sp, r7
 80016e4:	f85d 7b04 	ldr.w	r7, [sp], #4
 80016e8:	4770      	bx	lr

080016ea <PendSV_Handler>:

/**
  * @brief This function handles Pendable request for system service.
  */
void PendSV_Handler(void)
{
 80016ea:	b480      	push	{r7}
 80016ec:	af00      	add	r7, sp, #0

  /* USER CODE END PendSV_IRQn 0 */
  /* USER CODE BEGIN PendSV_IRQn 1 */

  /* USER CODE END PendSV_IRQn 1 */
}
 80016ee:	bf00      	nop
 80016f0:	46bd      	mov	sp, r7
 80016f2:	f85d 7b04 	ldr.w	r7, [sp], #4
 80016f6:	4770      	bx	lr

080016f8 <SysTick_Handler>:

/**
  * @brief This function handles System tick timer.
  */
void SysTick_Handler(void)
{
 80016f8:	b580      	push	{r7, lr}
 80016fa:	af00      	add	r7, sp, #0
  /* USER CODE BEGIN SysTick_IRQn 0 */

  /* USER CODE END SysTick_IRQn 0 */
  HAL_IncTick();
 80016fc:	f000 f956 	bl	80019ac <HAL_IncTick>
  /* USER CODE BEGIN SysTick_IRQn 1 */

  /* USER CODE END SysTick_IRQn 1 */
}
 8001700:	bf00      	nop
 8001702:	bd80      	pop	{r7, pc}

08001704 <_getpid>:
void initialise_monitor_handles()
{
}

int _getpid(void)
{
 8001704:	b480      	push	{r7}
 8001706:	af00      	add	r7, sp, #0
  return 1;
 8001708:	2301      	movs	r3, #1
}
 800170a:	4618      	mov	r0, r3
 800170c:	46bd      	mov	sp, r7
 800170e:	f85d 7b04 	ldr.w	r7, [sp], #4
 8001712:	4770      	bx	lr

08001714 <_kill>:

int _kill(int pid, int sig)
{
 8001714:	b580      	push	{r7, lr}
 8001716:	b082      	sub	sp, #8
 8001718:	af00      	add	r7, sp, #0
 800171a:	6078      	str	r0, [r7, #4]
 800171c:	6039      	str	r1, [r7, #0]
  (void)pid;
  (void)sig;
  errno = EINVAL;
 800171e:	f002 fd77 	bl	8004210 <__errno>
 8001722:	4603      	mov	r3, r0
 8001724:	2216      	movs	r2, #22
 8001726:	601a      	str	r2, [r3, #0]
  return -1;
 8001728:	f04f 33ff 	mov.w	r3, #4294967295
}
 800172c:	4618      	mov	r0, r3
 800172e:	3708      	adds	r7, #8
 8001730:	46bd      	mov	sp, r7
 8001732:	bd80      	pop	{r7, pc}

08001734 <_exit>:

void _exit (int status)
{
 8001734:	b580      	push	{r7, lr}
 8001736:	b082      	sub	sp, #8
 8001738:	af00      	add	r7, sp, #0
 800173a:	6078      	str	r0, [r7, #4]
  _kill(status, -1);
 800173c:	f04f 31ff 	mov.w	r1, #4294967295
 8001740:	6878      	ldr	r0, [r7, #4]
 8001742:	f7ff ffe7 	bl	8001714 <_kill>
  while (1) {}    /* Make sure we hang here */
 8001746:	e7fe      	b.n	8001746 <_exit+0x12>

08001748 <_read>:
}

__attribute__((weak)) int _read(int file, char *ptr, int len)
{
 8001748:	b580      	push	{r7, lr}
 800174a:	b086      	sub	sp, #24
 800174c:	af00      	add	r7, sp, #0
 800174e:	60f8      	str	r0, [r7, #12]
 8001750:	60b9      	str	r1, [r7, #8]
 8001752:	607a      	str	r2, [r7, #4]
  (void)file;
  int DataIdx;

  for (DataIdx = 0; DataIdx < len; DataIdx++)
 8001754:	2300      	movs	r3, #0
 8001756:	617b      	str	r3, [r7, #20]
 8001758:	e00a      	b.n	8001770 <_read+0x28>
  {
    *ptr++ = __io_getchar();
 800175a:	f3af 8000 	nop.w
 800175e:	4601      	mov	r1, r0
 8001760:	68bb      	ldr	r3, [r7, #8]
 8001762:	1c5a      	adds	r2, r3, #1
 8001764:	60ba      	str	r2, [r7, #8]
 8001766:	b2ca      	uxtb	r2, r1
 8001768:	701a      	strb	r2, [r3, #0]
  for (DataIdx = 0; DataIdx < len; DataIdx++)
 800176a:	697b      	ldr	r3, [r7, #20]
 800176c:	3301      	adds	r3, #1
 800176e:	617b      	str	r3, [r7, #20]
 8001770:	697a      	ldr	r2, [r7, #20]
 8001772:	687b      	ldr	r3, [r7, #4]
 8001774:	429a      	cmp	r2, r3
 8001776:	dbf0      	blt.n	800175a <_read+0x12>
  }

  return len;
 8001778:	687b      	ldr	r3, [r7, #4]
}
 800177a:	4618      	mov	r0, r3
 800177c:	3718      	adds	r7, #24
 800177e:	46bd      	mov	sp, r7
 8001780:	bd80      	pop	{r7, pc}

08001782 <_write>:

__attribute__((weak)) int _write(int file, char *ptr, int len)
{
 8001782:	b580      	push	{r7, lr}
 8001784:	b086      	sub	sp, #24
 8001786:	af00      	add	r7, sp, #0
 8001788:	60f8      	str	r0, [r7, #12]
 800178a:	60b9      	str	r1, [r7, #8]
 800178c:	607a      	str	r2, [r7, #4]
  (void)file;
  int DataIdx;

  for (DataIdx = 0; DataIdx < len; DataIdx++)
 800178e:	2300      	movs	r3, #0
 8001790:	617b      	str	r3, [r7, #20]
 8001792:	e009      	b.n	80017a8 <_write+0x26>
  {
    __io_putchar(*ptr++);
 8001794:	68bb      	ldr	r3, [r7, #8]
 8001796:	1c5a      	adds	r2, r3, #1
 8001798:	60ba      	str	r2, [r7, #8]
 800179a:	781b      	ldrb	r3, [r3, #0]
 800179c:	4618      	mov	r0, r3
 800179e:	f3af 8000 	nop.w
  for (DataIdx = 0; DataIdx < len; DataIdx++)
 80017a2:	697b      	ldr	r3, [r7, #20]
 80017a4:	3301      	adds	r3, #1
 80017a6:	617b      	str	r3, [r7, #20]
 80017a8:	697a      	ldr	r2, [r7, #20]
 80017aa:	687b      	ldr	r3, [r7, #4]
 80017ac:	429a      	cmp	r2, r3
 80017ae:	dbf1      	blt.n	8001794 <_write+0x12>
  }
  return len;
 80017b0:	687b      	ldr	r3, [r7, #4]
}
 80017b2:	4618      	mov	r0, r3
 80017b4:	3718      	adds	r7, #24
 80017b6:	46bd      	mov	sp, r7
 80017b8:	bd80      	pop	{r7, pc}

080017ba <_close>:

int _close(int file)
{
 80017ba:	b480      	push	{r7}
 80017bc:	b083      	sub	sp, #12
 80017be:	af00      	add	r7, sp, #0
 80017c0:	6078      	str	r0, [r7, #4]
  (void)file;
  return -1;
 80017c2:	f04f 33ff 	mov.w	r3, #4294967295
}
 80017c6:	4618      	mov	r0, r3
 80017c8:	370c      	adds	r7, #12
 80017ca:	46bd      	mov	sp, r7
 80017cc:	f85d 7b04 	ldr.w	r7, [sp], #4
 80017d0:	4770      	bx	lr

080017d2 <_fstat>:


int _fstat(int file, struct stat *st)
{
 80017d2:	b480      	push	{r7}
 80017d4:	b083      	sub	sp, #12
 80017d6:	af00      	add	r7, sp, #0
 80017d8:	6078      	str	r0, [r7, #4]
 80017da:	6039      	str	r1, [r7, #0]
  (void)file;
  st->st_mode = S_IFCHR;
 80017dc:	683b      	ldr	r3, [r7, #0]
 80017de:	f44f 5200 	mov.w	r2, #8192	; 0x2000
 80017e2:	605a      	str	r2, [r3, #4]
  return 0;
 80017e4:	2300      	movs	r3, #0
}
 80017e6:	4618      	mov	r0, r3
 80017e8:	370c      	adds	r7, #12
 80017ea:	46bd      	mov	sp, r7
 80017ec:	f85d 7b04 	ldr.w	r7, [sp], #4
 80017f0:	4770      	bx	lr

080017f2 <_isatty>:

int _isatty(int file)
{
 80017f2:	b480      	push	{r7}
 80017f4:	b083      	sub	sp, #12
 80017f6:	af00      	add	r7, sp, #0
 80017f8:	6078      	str	r0, [r7, #4]
  (void)file;
  return 1;
 80017fa:	2301      	movs	r3, #1
}
 80017fc:	4618      	mov	r0, r3
 80017fe:	370c      	adds	r7, #12
 8001800:	46bd      	mov	sp, r7
 8001802:	f85d 7b04 	ldr.w	r7, [sp], #4
 8001806:	4770      	bx	lr

08001808 <_lseek>:

int _lseek(int file, int ptr, int dir)
{
 8001808:	b480      	push	{r7}
 800180a:	b085      	sub	sp, #20
 800180c:	af00      	add	r7, sp, #0
 800180e:	60f8      	str	r0, [r7, #12]
 8001810:	60b9      	str	r1, [r7, #8]
 8001812:	607a      	str	r2, [r7, #4]
  (void)file;
  (void)ptr;
  (void)dir;
  return 0;
 8001814:	2300      	movs	r3, #0
}
 8001816:	4618      	mov	r0, r3
 8001818:	3714      	adds	r7, #20
 800181a:	46bd      	mov	sp, r7
 800181c:	f85d 7b04 	ldr.w	r7, [sp], #4
 8001820:	4770      	bx	lr
	...

08001824 <_sbrk>:
 *
 * @param incr Memory size
 * @return Pointer to allocated memory
 */
void *_sbrk(ptrdiff_t incr)
{
 8001824:	b580      	push	{r7, lr}
 8001826:	b086      	sub	sp, #24
 8001828:	af00      	add	r7, sp, #0
 800182a:	6078      	str	r0, [r7, #4]
  extern uint8_t _end; /* Symbol defined in the linker script */
  extern uint8_t _estack; /* Symbol defined in the linker script */
  extern uint32_t _Min_Stack_Size; /* Symbol defined in the linker script */
  const uint32_t stack_limit = (uint32_t)&_estack - (uint32_t)&_Min_Stack_Size;
 800182c:	4a14      	ldr	r2, [pc, #80]	; (8001880 <_sbrk+0x5c>)
 800182e:	4b15      	ldr	r3, [pc, #84]	; (8001884 <_sbrk+0x60>)
 8001830:	1ad3      	subs	r3, r2, r3
 8001832:	617b      	str	r3, [r7, #20]
  const uint8_t *max_heap = (uint8_t *)stack_limit;
 8001834:	697b      	ldr	r3, [r7, #20]
 8001836:	613b      	str	r3, [r7, #16]
  uint8_t *prev_heap_end;

  /* Initialize heap end at first call */
  if (NULL == __sbrk_heap_end)
 8001838:	4b13      	ldr	r3, [pc, #76]	; (8001888 <_sbrk+0x64>)
 800183a:	681b      	ldr	r3, [r3, #0]
 800183c:	2b00      	cmp	r3, #0
 800183e:	d102      	bne.n	8001846 <_sbrk+0x22>
  {
    __sbrk_heap_end = &_end;
 8001840:	4b11      	ldr	r3, [pc, #68]	; (8001888 <_sbrk+0x64>)
 8001842:	4a12      	ldr	r2, [pc, #72]	; (800188c <_sbrk+0x68>)
 8001844:	601a      	str	r2, [r3, #0]
  }

  /* Protect heap from growing into the reserved MSP stack */
  if (__sbrk_heap_end + incr > max_heap)
 8001846:	4b10      	ldr	r3, [pc, #64]	; (8001888 <_sbrk+0x64>)
 8001848:	681a      	ldr	r2, [r3, #0]
 800184a:	687b      	ldr	r3, [r7, #4]
 800184c:	4413      	add	r3, r2
 800184e:	693a      	ldr	r2, [r7, #16]
 8001850:	429a      	cmp	r2, r3
 8001852:	d207      	bcs.n	8001864 <_sbrk+0x40>
  {
    errno = ENOMEM;
 8001854:	f002 fcdc 	bl	8004210 <__errno>
 8001858:	4603      	mov	r3, r0
 800185a:	220c      	movs	r2, #12
 800185c:	601a      	str	r2, [r3, #0]
    return (void *)-1;
 800185e:	f04f 33ff 	mov.w	r3, #4294967295
 8001862:	e009      	b.n	8001878 <_sbrk+0x54>
  }

  prev_heap_end = __sbrk_heap_end;
 8001864:	4b08      	ldr	r3, [pc, #32]	; (8001888 <_sbrk+0x64>)
 8001866:	681b      	ldr	r3, [r3, #0]
 8001868:	60fb      	str	r3, [r7, #12]
  __sbrk_heap_end += incr;
 800186a:	4b07      	ldr	r3, [pc, #28]	; (8001888 <_sbrk+0x64>)
 800186c:	681a      	ldr	r2, [r3, #0]
 800186e:	687b      	ldr	r3, [r7, #4]
 8001870:	4413      	add	r3, r2
 8001872:	4a05      	ldr	r2, [pc, #20]	; (8001888 <_sbrk+0x64>)
 8001874:	6013      	str	r3, [r2, #0]

  return (void *)prev_heap_end;
 8001876:	68fb      	ldr	r3, [r7, #12]
}
 8001878:	4618      	mov	r0, r3
 800187a:	3718      	adds	r7, #24
 800187c:	46bd      	mov	sp, r7
 800187e:	bd80      	pop	{r7, pc}
 8001880:	20018000 	.word	0x20018000
 8001884:	00000400 	.word	0x00000400
 8001888:	2000035c 	.word	0x2000035c
 800188c:	20000378 	.word	0x20000378

08001890 <SystemInit>:
  *         configuration.
  * @param  None
  * @retval None
  */
void SystemInit(void)
{
 8001890:	b480      	push	{r7}
 8001892:	af00      	add	r7, sp, #0
  /* FPU settings ------------------------------------------------------------*/
  #if (__FPU_PRESENT == 1) && (__FPU_USED == 1)
    SCB->CPACR |= ((3UL << 10*2)|(3UL << 11*2));  /* set CP10 and CP11 Full Access */
 8001894:	4b06      	ldr	r3, [pc, #24]	; (80018b0 <SystemInit+0x20>)
 8001896:	f8d3 3088 	ldr.w	r3, [r3, #136]	; 0x88
 800189a:	4a05      	ldr	r2, [pc, #20]	; (80018b0 <SystemInit+0x20>)
 800189c:	f443 0370 	orr.w	r3, r3, #15728640	; 0xf00000
 80018a0:	f8c2 3088 	str.w	r3, [r2, #136]	; 0x88

  /* Configure the Vector Table location -------------------------------------*/
#if defined(USER_VECT_TAB_ADDRESS)
  SCB->VTOR = VECT_TAB_BASE_ADDRESS | VECT_TAB_OFFSET; /* Vector Table Relocation in Internal SRAM */
#endif /* USER_VECT_TAB_ADDRESS */
}
 80018a4:	bf00      	nop
 80018a6:	46bd      	mov	sp, r7
 80018a8:	f85d 7b04 	ldr.w	r7, [sp], #4
 80018ac:	4770      	bx	lr
 80018ae:	bf00      	nop
 80018b0:	e000ed00 	.word	0xe000ed00

080018b4 <Reset_Handler>:

    .section  .text.Reset_Handler
  .weak  Reset_Handler
  .type  Reset_Handler, %function
Reset_Handler:  
  ldr   sp, =_estack    		 /* set stack pointer */
 80018b4:	f8df d034 	ldr.w	sp, [pc, #52]	; 80018ec <LoopFillZerobss+0x12>

/* Copy the data segment initializers from flash to SRAM */  
  ldr r0, =_sdata
 80018b8:	480d      	ldr	r0, [pc, #52]	; (80018f0 <LoopFillZerobss+0x16>)
  ldr r1, =_edata
 80018ba:	490e      	ldr	r1, [pc, #56]	; (80018f4 <LoopFillZerobss+0x1a>)
  ldr r2, =_sidata
 80018bc:	4a0e      	ldr	r2, [pc, #56]	; (80018f8 <LoopFillZerobss+0x1e>)
  movs r3, #0
 80018be:	2300      	movs	r3, #0
  b LoopCopyDataInit
 80018c0:	e002      	b.n	80018c8 <LoopCopyDataInit>

080018c2 <CopyDataInit>:

CopyDataInit:
  ldr r4, [r2, r3]
 80018c2:	58d4      	ldr	r4, [r2, r3]
  str r4, [r0, r3]
 80018c4:	50c4      	str	r4, [r0, r3]
  adds r3, r3, #4
 80018c6:	3304      	adds	r3, #4

080018c8 <LoopCopyDataInit>:

LoopCopyDataInit:
  adds r4, r0, r3
 80018c8:	18c4      	adds	r4, r0, r3
  cmp r4, r1
 80018ca:	428c      	cmp	r4, r1
  bcc CopyDataInit
 80018cc:	d3f9      	bcc.n	80018c2 <CopyDataInit>
  
/* Zero fill the bss segment. */
  ldr r2, =_sbss
 80018ce:	4a0b      	ldr	r2, [pc, #44]	; (80018fc <LoopFillZerobss+0x22>)
  ldr r4, =_ebss
 80018d0:	4c0b      	ldr	r4, [pc, #44]	; (8001900 <LoopFillZerobss+0x26>)
  movs r3, #0
 80018d2:	2300      	movs	r3, #0
  b LoopFillZerobss
 80018d4:	e001      	b.n	80018da <LoopFillZerobss>

080018d6 <FillZerobss>:

FillZerobss:
  str  r3, [r2]
 80018d6:	6013      	str	r3, [r2, #0]
  adds r2, r2, #4
 80018d8:	3204      	adds	r2, #4

080018da <LoopFillZerobss>:

LoopFillZerobss:
  cmp r2, r4
 80018da:	42a2      	cmp	r2, r4
  bcc FillZerobss
 80018dc:	d3fb      	bcc.n	80018d6 <FillZerobss>

/* Call the clock system initialization function.*/
  bl  SystemInit   
 80018de:	f7ff ffd7 	bl	8001890 <SystemInit>
/* Call static constructors */
    bl __libc_init_array
 80018e2:	f002 fc9b 	bl	800421c <__libc_init_array>
/* Call the application's entry point.*/
  bl  main
 80018e6:	f7ff fb8f 	bl	8001008 <main>
  bx  lr    
 80018ea:	4770      	bx	lr
  ldr   sp, =_estack    		 /* set stack pointer */
 80018ec:	20018000 	.word	0x20018000
  ldr r0, =_sdata
 80018f0:	20000000 	.word	0x20000000
  ldr r1, =_edata
 80018f4:	200001e0 	.word	0x200001e0
  ldr r2, =_sidata
 80018f8:	08009044 	.word	0x08009044
  ldr r2, =_sbss
 80018fc:	200001e0 	.word	0x200001e0
  ldr r4, =_ebss
 8001900:	20000374 	.word	0x20000374

08001904 <ADC_IRQHandler>:
 * @retval None       
*/
    .section  .text.Default_Handler,"ax",%progbits
Default_Handler:
Infinite_Loop:
  b  Infinite_Loop
 8001904:	e7fe      	b.n	8001904 <ADC_IRQHandler>
	...

08001908 <HAL_Init>:
  *         need to ensure that the SysTick time base is always set to 1 millisecond
  *         to have correct HAL operation.
  * @retval HAL status
  */
HAL_StatusTypeDef HAL_Init(void)
{
 8001908:	b580      	push	{r7, lr}
 800190a:	af00      	add	r7, sp, #0
  /* Configure Flash prefetch, Instruction cache, Data cache */ 
#if (INSTRUCTION_CACHE_ENABLE != 0U)
  __HAL_FLASH_INSTRUCTION_CACHE_ENABLE();
 800190c:	4b0e      	ldr	r3, [pc, #56]	; (8001948 <HAL_Init+0x40>)
 800190e:	681b      	ldr	r3, [r3, #0]
 8001910:	4a0d      	ldr	r2, [pc, #52]	; (8001948 <HAL_Init+0x40>)
 8001912:	f443 7300 	orr.w	r3, r3, #512	; 0x200
 8001916:	6013      	str	r3, [r2, #0]
#endif /* INSTRUCTION_CACHE_ENABLE */

#if (DATA_CACHE_ENABLE != 0U)
  __HAL_FLASH_DATA_CACHE_ENABLE();
 8001918:	4b0b      	ldr	r3, [pc, #44]	; (8001948 <HAL_Init+0x40>)
 800191a:	681b      	ldr	r3, [r3, #0]
 800191c:	4a0a      	ldr	r2, [pc, #40]	; (8001948 <HAL_Init+0x40>)
 800191e:	f443 6380 	orr.w	r3, r3, #1024	; 0x400
 8001922:	6013      	str	r3, [r2, #0]
#endif /* DATA_CACHE_ENABLE */

#if (PREFETCH_ENABLE != 0U)
  __HAL_FLASH_PREFETCH_BUFFER_ENABLE();
 8001924:	4b08      	ldr	r3, [pc, #32]	; (8001948 <HAL_Init+0x40>)
 8001926:	681b      	ldr	r3, [r3, #0]
 8001928:	4a07      	ldr	r2, [pc, #28]	; (8001948 <HAL_Init+0x40>)
 800192a:	f443 7380 	orr.w	r3, r3, #256	; 0x100
 800192e:	6013      	str	r3, [r2, #0]
#endif /* PREFETCH_ENABLE */

  /* Set Interrupt Group Priority */
  HAL_NVIC_SetPriorityGrouping(NVIC_PRIORITYGROUP_4);
 8001930:	2003      	movs	r0, #3
 8001932:	f000 f90d 	bl	8001b50 <HAL_NVIC_SetPriorityGrouping>

  /* Use systick as time base source and configure 1ms tick (default clock after Reset is HSI) */
  HAL_InitTick(TICK_INT_PRIORITY);
 8001936:	200f      	movs	r0, #15
 8001938:	f000 f808 	bl	800194c <HAL_InitTick>

  /* Init the low level hardware */
  HAL_MspInit();
 800193c:	f7ff fd7c 	bl	8001438 <HAL_MspInit>

  /* Return function status */
  return HAL_OK;
 8001940:	2300      	movs	r3, #0
}
 8001942:	4618      	mov	r0, r3
 8001944:	bd80      	pop	{r7, pc}
 8001946:	bf00      	nop
 8001948:	40023c00 	.word	0x40023c00

0800194c <HAL_InitTick>:
  *       implementation  in user file.
  * @param TickPriority Tick interrupt priority.
  * @retval HAL status
  */
__weak HAL_StatusTypeDef HAL_InitTick(uint32_t TickPriority)
{
 800194c:	b580      	push	{r7, lr}
 800194e:	b082      	sub	sp, #8
 8001950:	af00      	add	r7, sp, #0
 8001952:	6078      	str	r0, [r7, #4]
  /* Configure the SysTick to have interrupt in 1ms time basis*/
  if (HAL_SYSTICK_Config(SystemCoreClock / (1000U / uwTickFreq)) > 0U)
 8001954:	4b12      	ldr	r3, [pc, #72]	; (80019a0 <HAL_InitTick+0x54>)
 8001956:	681a      	ldr	r2, [r3, #0]
 8001958:	4b12      	ldr	r3, [pc, #72]	; (80019a4 <HAL_InitTick+0x58>)
 800195a:	781b      	ldrb	r3, [r3, #0]
 800195c:	4619      	mov	r1, r3
 800195e:	f44f 737a 	mov.w	r3, #1000	; 0x3e8
 8001962:	fbb3 f3f1 	udiv	r3, r3, r1
 8001966:	fbb2 f3f3 	udiv	r3, r2, r3
 800196a:	4618      	mov	r0, r3
 800196c:	f000 f917 	bl	8001b9e <HAL_SYSTICK_Config>
 8001970:	4603      	mov	r3, r0
 8001972:	2b00      	cmp	r3, #0
 8001974:	d001      	beq.n	800197a <HAL_InitTick+0x2e>
  {
    return HAL_ERROR;
 8001976:	2301      	movs	r3, #1
 8001978:	e00e      	b.n	8001998 <HAL_InitTick+0x4c>
  }

  /* Configure the SysTick IRQ priority */
  if (TickPriority < (1UL << __NVIC_PRIO_BITS))
 800197a:	687b      	ldr	r3, [r7, #4]
 800197c:	2b0f      	cmp	r3, #15
 800197e:	d80a      	bhi.n	8001996 <HAL_InitTick+0x4a>
  {
    HAL_NVIC_SetPriority(SysTick_IRQn, TickPriority, 0U);
 8001980:	2200      	movs	r2, #0
 8001982:	6879      	ldr	r1, [r7, #4]
 8001984:	f04f 30ff 	mov.w	r0, #4294967295
 8001988:	f000 f8ed 	bl	8001b66 <HAL_NVIC_SetPriority>
    uwTickPrio = TickPriority;
 800198c:	4a06      	ldr	r2, [pc, #24]	; (80019a8 <HAL_InitTick+0x5c>)
 800198e:	687b      	ldr	r3, [r7, #4]
 8001990:	6013      	str	r3, [r2, #0]
  {
    return HAL_ERROR;
  }

  /* Return function status */
  return HAL_OK;
 8001992:	2300      	movs	r3, #0
 8001994:	e000      	b.n	8001998 <HAL_InitTick+0x4c>
    return HAL_ERROR;
 8001996:	2301      	movs	r3, #1
}
 8001998:	4618      	mov	r0, r3
 800199a:	3708      	adds	r7, #8
 800199c:	46bd      	mov	sp, r7
 800199e:	bd80      	pop	{r7, pc}
 80019a0:	20000000 	.word	0x20000000
 80019a4:	20000008 	.word	0x20000008
 80019a8:	20000004 	.word	0x20000004

080019ac <HAL_IncTick>:
 * @note This function is declared as __weak to be overwritten in case of other 
  *      implementations in user file.
  * @retval None
  */
__weak void HAL_IncTick(void)
{
 80019ac:	b480      	push	{r7}
 80019ae:	af00      	add	r7, sp, #0
  uwTick += uwTickFreq;
 80019b0:	4b06      	ldr	r3, [pc, #24]	; (80019cc <HAL_IncTick+0x20>)
 80019b2:	781b      	ldrb	r3, [r3, #0]
 80019b4:	461a      	mov	r2, r3
 80019b6:	4b06      	ldr	r3, [pc, #24]	; (80019d0 <HAL_IncTick+0x24>)
 80019b8:	681b      	ldr	r3, [r3, #0]
 80019ba:	4413      	add	r3, r2
 80019bc:	4a04      	ldr	r2, [pc, #16]	; (80019d0 <HAL_IncTick+0x24>)
 80019be:	6013      	str	r3, [r2, #0]
}
 80019c0:	bf00      	nop
 80019c2:	46bd      	mov	sp, r7
 80019c4:	f85d 7b04 	ldr.w	r7, [sp], #4
 80019c8:	4770      	bx	lr
 80019ca:	bf00      	nop
 80019cc:	20000008 	.word	0x20000008
 80019d0:	20000360 	.word	0x20000360

080019d4 <HAL_GetTick>:
  * @note This function is declared as __weak to be overwritten in case of other 
  *       implementations in user file.
  * @retval tick value
  */
__weak uint32_t HAL_GetTick(void)
{
 80019d4:	b480      	push	{r7}
 80019d6:	af00      	add	r7, sp, #0
  return uwTick;
 80019d8:	4b03      	ldr	r3, [pc, #12]	; (80019e8 <HAL_GetTick+0x14>)
 80019da:	681b      	ldr	r3, [r3, #0]
}
 80019dc:	4618      	mov	r0, r3
 80019de:	46bd      	mov	sp, r7
 80019e0:	f85d 7b04 	ldr.w	r7, [sp], #4
 80019e4:	4770      	bx	lr
 80019e6:	bf00      	nop
 80019e8:	20000360 	.word	0x20000360

080019ec <__NVIC_SetPriorityGrouping>:
           In case of a conflict between priority grouping and available
           priority bits (__NVIC_PRIO_BITS), the smallest possible priority group is set.
  \param [in]      PriorityGroup  Priority grouping field.
 */
__STATIC_INLINE void __NVIC_SetPriorityGrouping(uint32_t PriorityGroup)
{
 80019ec:	b480      	push	{r7}
 80019ee:	b085      	sub	sp, #20
 80019f0:	af00      	add	r7, sp, #0
 80019f2:	6078      	str	r0, [r7, #4]
  uint32_t reg_value;
  uint32_t PriorityGroupTmp = (PriorityGroup & (uint32_t)0x07UL);             /* only values 0..7 are used          */
 80019f4:	687b      	ldr	r3, [r7, #4]
 80019f6:	f003 0307 	and.w	r3, r3, #7
 80019fa:	60fb      	str	r3, [r7, #12]

  reg_value  =  SCB->AIRCR;                                                   /* read old register configuration    */
 80019fc:	4b0c      	ldr	r3, [pc, #48]	; (8001a30 <__NVIC_SetPriorityGrouping+0x44>)
 80019fe:	68db      	ldr	r3, [r3, #12]
 8001a00:	60bb      	str	r3, [r7, #8]
  reg_value &= ~((uint32_t)(SCB_AIRCR_VECTKEY_Msk | SCB_AIRCR_PRIGROUP_Msk)); /* clear bits to change               */
 8001a02:	68ba      	ldr	r2, [r7, #8]
 8001a04:	f64f 03ff 	movw	r3, #63743	; 0xf8ff
 8001a08:	4013      	ands	r3, r2
 8001a0a:	60bb      	str	r3, [r7, #8]
  reg_value  =  (reg_value                                   |
                ((uint32_t)0x5FAUL << SCB_AIRCR_VECTKEY_Pos) |
                (PriorityGroupTmp << SCB_AIRCR_PRIGROUP_Pos)  );              /* Insert write key and priority group */
 8001a0c:	68fb      	ldr	r3, [r7, #12]
 8001a0e:	021a      	lsls	r2, r3, #8
                ((uint32_t)0x5FAUL << SCB_AIRCR_VECTKEY_Pos) |
 8001a10:	68bb      	ldr	r3, [r7, #8]
 8001a12:	4313      	orrs	r3, r2
  reg_value  =  (reg_value                                   |
 8001a14:	f043 63bf 	orr.w	r3, r3, #100139008	; 0x5f80000
 8001a18:	f443 3300 	orr.w	r3, r3, #131072	; 0x20000
 8001a1c:	60bb      	str	r3, [r7, #8]
  SCB->AIRCR =  reg_value;
 8001a1e:	4a04      	ldr	r2, [pc, #16]	; (8001a30 <__NVIC_SetPriorityGrouping+0x44>)
 8001a20:	68bb      	ldr	r3, [r7, #8]
 8001a22:	60d3      	str	r3, [r2, #12]
}
 8001a24:	bf00      	nop
 8001a26:	3714      	adds	r7, #20
 8001a28:	46bd      	mov	sp, r7
 8001a2a:	f85d 7b04 	ldr.w	r7, [sp], #4
 8001a2e:	4770      	bx	lr
 8001a30:	e000ed00 	.word	0xe000ed00

08001a34 <__NVIC_GetPriorityGrouping>:
  \brief   Get Priority Grouping
  \details Reads the priority grouping field from the NVIC Interrupt Controller.
  \return                Priority grouping field (SCB->AIRCR [10:8] PRIGROUP field).
 */
__STATIC_INLINE uint32_t __NVIC_GetPriorityGrouping(void)
{
 8001a34:	b480      	push	{r7}
 8001a36:	af00      	add	r7, sp, #0
  return ((uint32_t)((SCB->AIRCR & SCB_AIRCR_PRIGROUP_Msk) >> SCB_AIRCR_PRIGROUP_Pos));
 8001a38:	4b04      	ldr	r3, [pc, #16]	; (8001a4c <__NVIC_GetPriorityGrouping+0x18>)
 8001a3a:	68db      	ldr	r3, [r3, #12]
 8001a3c:	0a1b      	lsrs	r3, r3, #8
 8001a3e:	f003 0307 	and.w	r3, r3, #7
}
 8001a42:	4618      	mov	r0, r3
 8001a44:	46bd      	mov	sp, r7
 8001a46:	f85d 7b04 	ldr.w	r7, [sp], #4
 8001a4a:	4770      	bx	lr
 8001a4c:	e000ed00 	.word	0xe000ed00

08001a50 <__NVIC_SetPriority>:
  \param [in]      IRQn  Interrupt number.
  \param [in]  priority  Priority to set.
  \note    The priority cannot be set for every processor exception.
 */
__STATIC_INLINE void __NVIC_SetPriority(IRQn_Type IRQn, uint32_t priority)
{
 8001a50:	b480      	push	{r7}
 8001a52:	b083      	sub	sp, #12
 8001a54:	af00      	add	r7, sp, #0
 8001a56:	4603      	mov	r3, r0
 8001a58:	6039      	str	r1, [r7, #0]
 8001a5a:	71fb      	strb	r3, [r7, #7]
  if ((int32_t)(IRQn) >= 0)
 8001a5c:	f997 3007 	ldrsb.w	r3, [r7, #7]
 8001a60:	2b00      	cmp	r3, #0
 8001a62:	db0a      	blt.n	8001a7a <__NVIC_SetPriority+0x2a>
  {
    NVIC->IP[((uint32_t)IRQn)]               = (uint8_t)((priority << (8U - __NVIC_PRIO_BITS)) & (uint32_t)0xFFUL);
 8001a64:	683b      	ldr	r3, [r7, #0]
 8001a66:	b2da      	uxtb	r2, r3
 8001a68:	490c      	ldr	r1, [pc, #48]	; (8001a9c <__NVIC_SetPriority+0x4c>)
 8001a6a:	f997 3007 	ldrsb.w	r3, [r7, #7]
 8001a6e:	0112      	lsls	r2, r2, #4
 8001a70:	b2d2      	uxtb	r2, r2
 8001a72:	440b      	add	r3, r1
 8001a74:	f883 2300 	strb.w	r2, [r3, #768]	; 0x300
  }
  else
  {
    SCB->SHP[(((uint32_t)IRQn) & 0xFUL)-4UL] = (uint8_t)((priority << (8U - __NVIC_PRIO_BITS)) & (uint32_t)0xFFUL);
  }
}
 8001a78:	e00a      	b.n	8001a90 <__NVIC_SetPriority+0x40>
    SCB->SHP[(((uint32_t)IRQn) & 0xFUL)-4UL] = (uint8_t)((priority << (8U - __NVIC_PRIO_BITS)) & (uint32_t)0xFFUL);
 8001a7a:	683b      	ldr	r3, [r7, #0]
 8001a7c:	b2da      	uxtb	r2, r3
 8001a7e:	4908      	ldr	r1, [pc, #32]	; (8001aa0 <__NVIC_SetPriority+0x50>)
 8001a80:	79fb      	ldrb	r3, [r7, #7]
 8001a82:	f003 030f 	and.w	r3, r3, #15
 8001a86:	3b04      	subs	r3, #4
 8001a88:	0112      	lsls	r2, r2, #4
 8001a8a:	b2d2      	uxtb	r2, r2
 8001a8c:	440b      	add	r3, r1
 8001a8e:	761a      	strb	r2, [r3, #24]
}
 8001a90:	bf00      	nop
 8001a92:	370c      	adds	r7, #12
 8001a94:	46bd      	mov	sp, r7
 8001a96:	f85d 7b04 	ldr.w	r7, [sp], #4
 8001a9a:	4770      	bx	lr
 8001a9c:	e000e100 	.word	0xe000e100
 8001aa0:	e000ed00 	.word	0xe000ed00

08001aa4 <NVIC_EncodePriority>:
  \param [in]   PreemptPriority  Preemptive priority value (starting from 0).
  \param [in]       SubPriority  Subpriority value (starting from 0).
  \return                        Encoded priority. Value can be used in the function \ref NVIC_SetPriority().
 */
__STATIC_INLINE uint32_t NVIC_EncodePriority (uint32_t PriorityGroup, uint32_t PreemptPriority, uint32_t SubPriority)
{
 8001aa4:	b480      	push	{r7}
 8001aa6:	b089      	sub	sp, #36	; 0x24
 8001aa8:	af00      	add	r7, sp, #0
 8001aaa:	60f8      	str	r0, [r7, #12]
 8001aac:	60b9      	str	r1, [r7, #8]
 8001aae:	607a      	str	r2, [r7, #4]
  uint32_t PriorityGroupTmp = (PriorityGroup & (uint32_t)0x07UL);   /* only values 0..7 are used          */
 8001ab0:	68fb      	ldr	r3, [r7, #12]
 8001ab2:	f003 0307 	and.w	r3, r3, #7
 8001ab6:	61fb      	str	r3, [r7, #28]
  uint32_t PreemptPriorityBits;
  uint32_t SubPriorityBits;

  PreemptPriorityBits = ((7UL - PriorityGroupTmp) > (uint32_t)(__NVIC_PRIO_BITS)) ? (uint32_t)(__NVIC_PRIO_BITS) : (uint32_t)(7UL - PriorityGroupTmp);
 8001ab8:	69fb      	ldr	r3, [r7, #28]
 8001aba:	f1c3 0307 	rsb	r3, r3, #7
 8001abe:	2b04      	cmp	r3, #4
 8001ac0:	bf28      	it	cs
 8001ac2:	2304      	movcs	r3, #4
 8001ac4:	61bb      	str	r3, [r7, #24]
  SubPriorityBits     = ((PriorityGroupTmp + (uint32_t)(__NVIC_PRIO_BITS)) < (uint32_t)7UL) ? (uint32_t)0UL : (uint32_t)((PriorityGroupTmp - 7UL) + (uint32_t)(__NVIC_PRIO_BITS));
 8001ac6:	69fb      	ldr	r3, [r7, #28]
 8001ac8:	3304      	adds	r3, #4
 8001aca:	2b06      	cmp	r3, #6
 8001acc:	d902      	bls.n	8001ad4 <NVIC_EncodePriority+0x30>
 8001ace:	69fb      	ldr	r3, [r7, #28]
 8001ad0:	3b03      	subs	r3, #3
 8001ad2:	e000      	b.n	8001ad6 <NVIC_EncodePriority+0x32>
 8001ad4:	2300      	movs	r3, #0
 8001ad6:	617b      	str	r3, [r7, #20]

  return (
           ((PreemptPriority & (uint32_t)((1UL << (PreemptPriorityBits)) - 1UL)) << SubPriorityBits) |
 8001ad8:	f04f 32ff 	mov.w	r2, #4294967295
 8001adc:	69bb      	ldr	r3, [r7, #24]
 8001ade:	fa02 f303 	lsl.w	r3, r2, r3
 8001ae2:	43da      	mvns	r2, r3
 8001ae4:	68bb      	ldr	r3, [r7, #8]
 8001ae6:	401a      	ands	r2, r3
 8001ae8:	697b      	ldr	r3, [r7, #20]
 8001aea:	409a      	lsls	r2, r3
           ((SubPriority     & (uint32_t)((1UL << (SubPriorityBits    )) - 1UL)))
 8001aec:	f04f 31ff 	mov.w	r1, #4294967295
 8001af0:	697b      	ldr	r3, [r7, #20]
 8001af2:	fa01 f303 	lsl.w	r3, r1, r3
 8001af6:	43d9      	mvns	r1, r3
 8001af8:	687b      	ldr	r3, [r7, #4]
 8001afa:	400b      	ands	r3, r1
           ((PreemptPriority & (uint32_t)((1UL << (PreemptPriorityBits)) - 1UL)) << SubPriorityBits) |
 8001afc:	4313      	orrs	r3, r2
         );
}
 8001afe:	4618      	mov	r0, r3
 8001b00:	3724      	adds	r7, #36	; 0x24
 8001b02:	46bd      	mov	sp, r7
 8001b04:	f85d 7b04 	ldr.w	r7, [sp], #4
 8001b08:	4770      	bx	lr
	...

08001b0c <SysTick_Config>:
  \note    When the variable <b>__Vendor_SysTickConfig</b> is set to 1, then the
           function <b>SysTick_Config</b> is not included. In this case, the file <b><i>device</i>.h</b>
           must contain a vendor-specific implementation of this function.
 */
__STATIC_INLINE uint32_t SysTick_Config(uint32_t ticks)
{
 8001b0c:	b580      	push	{r7, lr}
 8001b0e:	b082      	sub	sp, #8
 8001b10:	af00      	add	r7, sp, #0
 8001b12:	6078      	str	r0, [r7, #4]
  if ((ticks - 1UL) > SysTick_LOAD_RELOAD_Msk)
 8001b14:	687b      	ldr	r3, [r7, #4]
 8001b16:	3b01      	subs	r3, #1
 8001b18:	f1b3 7f80 	cmp.w	r3, #16777216	; 0x1000000
 8001b1c:	d301      	bcc.n	8001b22 <SysTick_Config+0x16>
  {
    return (1UL);                                                   /* Reload value impossible */
 8001b1e:	2301      	movs	r3, #1
 8001b20:	e00f      	b.n	8001b42 <SysTick_Config+0x36>
  }

  SysTick->LOAD  = (uint32_t)(ticks - 1UL);                         /* set reload register */
 8001b22:	4a0a      	ldr	r2, [pc, #40]	; (8001b4c <SysTick_Config+0x40>)
 8001b24:	687b      	ldr	r3, [r7, #4]
 8001b26:	3b01      	subs	r3, #1
 8001b28:	6053      	str	r3, [r2, #4]
  NVIC_SetPriority (SysTick_IRQn, (1UL << __NVIC_PRIO_BITS) - 1UL); /* set Priority for Systick Interrupt */
 8001b2a:	210f      	movs	r1, #15
 8001b2c:	f04f 30ff 	mov.w	r0, #4294967295
 8001b30:	f7ff ff8e 	bl	8001a50 <__NVIC_SetPriority>
  SysTick->VAL   = 0UL;                                             /* Load the SysTick Counter Value */
 8001b34:	4b05      	ldr	r3, [pc, #20]	; (8001b4c <SysTick_Config+0x40>)
 8001b36:	2200      	movs	r2, #0
 8001b38:	609a      	str	r2, [r3, #8]
  SysTick->CTRL  = SysTick_CTRL_CLKSOURCE_Msk |
 8001b3a:	4b04      	ldr	r3, [pc, #16]	; (8001b4c <SysTick_Config+0x40>)
 8001b3c:	2207      	movs	r2, #7
 8001b3e:	601a      	str	r2, [r3, #0]
                   SysTick_CTRL_TICKINT_Msk   |
                   SysTick_CTRL_ENABLE_Msk;                         /* Enable SysTick IRQ and SysTick Timer */
  return (0UL);                                                     /* Function successful */
 8001b40:	2300      	movs	r3, #0
}
 8001b42:	4618      	mov	r0, r3
 8001b44:	3708      	adds	r7, #8
 8001b46:	46bd      	mov	sp, r7
 8001b48:	bd80      	pop	{r7, pc}
 8001b4a:	bf00      	nop
 8001b4c:	e000e010 	.word	0xe000e010

08001b50 <HAL_NVIC_SetPriorityGrouping>:
  * @note   When the NVIC_PriorityGroup_0 is selected, IRQ preemption is no more possible. 
  *         The pending IRQ priority will be managed only by the subpriority. 
  * @retval None
  */
void HAL_NVIC_SetPriorityGrouping(uint32_t PriorityGroup)
{
 8001b50:	b580      	push	{r7, lr}
 8001b52:	b082      	sub	sp, #8
 8001b54:	af00      	add	r7, sp, #0
 8001b56:	6078      	str	r0, [r7, #4]
  /* Check the parameters */
  assert_param(IS_NVIC_PRIORITY_GROUP(PriorityGroup));
  
  /* Set the PRIGROUP[10:8] bits according to the PriorityGroup parameter value */
  NVIC_SetPriorityGrouping(PriorityGroup);
 8001b58:	6878      	ldr	r0, [r7, #4]
 8001b5a:	f7ff ff47 	bl	80019ec <__NVIC_SetPriorityGrouping>
}
 8001b5e:	bf00      	nop
 8001b60:	3708      	adds	r7, #8
 8001b62:	46bd      	mov	sp, r7
 8001b64:	bd80      	pop	{r7, pc}

08001b66 <HAL_NVIC_SetPriority>:
  *         This parameter can be a value between 0 and 15
  *         A lower priority value indicates a higher priority.          
  * @retval None
  */
void HAL_NVIC_SetPriority(IRQn_Type IRQn, uint32_t PreemptPriority, uint32_t SubPriority)
{ 
 8001b66:	b580      	push	{r7, lr}
 8001b68:	b086      	sub	sp, #24
 8001b6a:	af00      	add	r7, sp, #0
 8001b6c:	4603      	mov	r3, r0
 8001b6e:	60b9      	str	r1, [r7, #8]
 8001b70:	607a      	str	r2, [r7, #4]
 8001b72:	73fb      	strb	r3, [r7, #15]
  uint32_t prioritygroup = 0x00U;
 8001b74:	2300      	movs	r3, #0
 8001b76:	617b      	str	r3, [r7, #20]
  
  /* Check the parameters */
  assert_param(IS_NVIC_SUB_PRIORITY(SubPriority));
  assert_param(IS_NVIC_PREEMPTION_PRIORITY(PreemptPriority));
  
  prioritygroup = NVIC_GetPriorityGrouping();
 8001b78:	f7ff ff5c 	bl	8001a34 <__NVIC_GetPriorityGrouping>
 8001b7c:	6178      	str	r0, [r7, #20]
  
  NVIC_SetPriority(IRQn, NVIC_EncodePriority(prioritygroup, PreemptPriority, SubPriority));
 8001b7e:	687a      	ldr	r2, [r7, #4]
 8001b80:	68b9      	ldr	r1, [r7, #8]
 8001b82:	6978      	ldr	r0, [r7, #20]
 8001b84:	f7ff ff8e 	bl	8001aa4 <NVIC_EncodePriority>
 8001b88:	4602      	mov	r2, r0
 8001b8a:	f997 300f 	ldrsb.w	r3, [r7, #15]
 8001b8e:	4611      	mov	r1, r2
 8001b90:	4618      	mov	r0, r3
 8001b92:	f7ff ff5d 	bl	8001a50 <__NVIC_SetPriority>
}
 8001b96:	bf00      	nop
 8001b98:	3718      	adds	r7, #24
 8001b9a:	46bd      	mov	sp, r7
 8001b9c:	bd80      	pop	{r7, pc}

08001b9e <HAL_SYSTICK_Config>:
  * @param  TicksNumb Specifies the ticks Number of ticks between two interrupts.
  * @retval status:  - 0  Function succeeded.
  *                  - 1  Function failed.
  */
uint32_t HAL_SYSTICK_Config(uint32_t TicksNumb)
{
 8001b9e:	b580      	push	{r7, lr}
 8001ba0:	b082      	sub	sp, #8
 8001ba2:	af00      	add	r7, sp, #0
 8001ba4:	6078      	str	r0, [r7, #4]
   return SysTick_Config(TicksNumb);
 8001ba6:	6878      	ldr	r0, [r7, #4]
 8001ba8:	f7ff ffb0 	bl	8001b0c <SysTick_Config>
 8001bac:	4603      	mov	r3, r0
}
 8001bae:	4618      	mov	r0, r3
 8001bb0:	3708      	adds	r7, #8
 8001bb2:	46bd      	mov	sp, r7
 8001bb4:	bd80      	pop	{r7, pc}
	...

08001bb8 <HAL_GPIO_Init>:
  * @param  GPIO_Init pointer to a GPIO_InitTypeDef structure that contains
  *         the configuration information for the specified GPIO peripheral.
  * @retval None
  */
void HAL_GPIO_Init(GPIO_TypeDef  *GPIOx, GPIO_InitTypeDef *GPIO_Init)
{
 8001bb8:	b480      	push	{r7}
 8001bba:	b089      	sub	sp, #36	; 0x24
 8001bbc:	af00      	add	r7, sp, #0
 8001bbe:	6078      	str	r0, [r7, #4]
 8001bc0:	6039      	str	r1, [r7, #0]
  uint32_t position;
  uint32_t ioposition = 0x00U;
 8001bc2:	2300      	movs	r3, #0
 8001bc4:	617b      	str	r3, [r7, #20]
  uint32_t iocurrent = 0x00U;
 8001bc6:	2300      	movs	r3, #0
 8001bc8:	613b      	str	r3, [r7, #16]
  uint32_t temp = 0x00U;
 8001bca:	2300      	movs	r3, #0
 8001bcc:	61bb      	str	r3, [r7, #24]
  assert_param(IS_GPIO_ALL_INSTANCE(GPIOx));
  assert_param(IS_GPIO_PIN(GPIO_Init->Pin));
  assert_param(IS_GPIO_MODE(GPIO_Init->Mode));

  /* Configure the port pins */
  for(position = 0U; position < GPIO_NUMBER; position++)
 8001bce:	2300      	movs	r3, #0
 8001bd0:	61fb      	str	r3, [r7, #28]
 8001bd2:	e159      	b.n	8001e88 <HAL_GPIO_Init+0x2d0>
  {
    /* Get the IO position */
    ioposition = 0x01U << position;
 8001bd4:	2201      	movs	r2, #1
 8001bd6:	69fb      	ldr	r3, [r7, #28]
 8001bd8:	fa02 f303 	lsl.w	r3, r2, r3
 8001bdc:	617b      	str	r3, [r7, #20]
    /* Get the current IO position */
    iocurrent = (uint32_t)(GPIO_Init->Pin) & ioposition;
 8001bde:	683b      	ldr	r3, [r7, #0]
 8001be0:	681b      	ldr	r3, [r3, #0]
 8001be2:	697a      	ldr	r2, [r7, #20]
 8001be4:	4013      	ands	r3, r2
 8001be6:	613b      	str	r3, [r7, #16]

    if(iocurrent == ioposition)
 8001be8:	693a      	ldr	r2, [r7, #16]
 8001bea:	697b      	ldr	r3, [r7, #20]
 8001bec:	429a      	cmp	r2, r3
 8001bee:	f040 8148 	bne.w	8001e82 <HAL_GPIO_Init+0x2ca>
    {
      /*--------------------- GPIO Mode Configuration ------------------------*/
      /* In case of Output or Alternate function mode selection */
      if(((GPIO_Init->Mode & GPIO_MODE) == MODE_OUTPUT) || \
 8001bf2:	683b      	ldr	r3, [r7, #0]
 8001bf4:	685b      	ldr	r3, [r3, #4]
 8001bf6:	f003 0303 	and.w	r3, r3, #3
 8001bfa:	2b01      	cmp	r3, #1
 8001bfc:	d005      	beq.n	8001c0a <HAL_GPIO_Init+0x52>
          (GPIO_Init->Mode & GPIO_MODE) == MODE_AF)
 8001bfe:	683b      	ldr	r3, [r7, #0]
 8001c00:	685b      	ldr	r3, [r3, #4]
 8001c02:	f003 0303 	and.w	r3, r3, #3
      if(((GPIO_Init->Mode & GPIO_MODE) == MODE_OUTPUT) || \
 8001c06:	2b02      	cmp	r3, #2
 8001c08:	d130      	bne.n	8001c6c <HAL_GPIO_Init+0xb4>
      {
        /* Check the Speed parameter */
        assert_param(IS_GPIO_SPEED(GPIO_Init->Speed));
        /* Configure the IO Speed */
        temp = GPIOx->OSPEEDR; 
 8001c0a:	687b      	ldr	r3, [r7, #4]
 8001c0c:	689b      	ldr	r3, [r3, #8]
 8001c0e:	61bb      	str	r3, [r7, #24]
        temp &= ~(GPIO_OSPEEDER_OSPEEDR0 << (position * 2U));
 8001c10:	69fb      	ldr	r3, [r7, #28]
 8001c12:	005b      	lsls	r3, r3, #1
 8001c14:	2203      	movs	r2, #3
 8001c16:	fa02 f303 	lsl.w	r3, r2, r3
 8001c1a:	43db      	mvns	r3, r3
 8001c1c:	69ba      	ldr	r2, [r7, #24]
 8001c1e:	4013      	ands	r3, r2
 8001c20:	61bb      	str	r3, [r7, #24]
        temp |= (GPIO_Init->Speed << (position * 2U));
 8001c22:	683b      	ldr	r3, [r7, #0]
 8001c24:	68da      	ldr	r2, [r3, #12]
 8001c26:	69fb      	ldr	r3, [r7, #28]
 8001c28:	005b      	lsls	r3, r3, #1
 8001c2a:	fa02 f303 	lsl.w	r3, r2, r3
 8001c2e:	69ba      	ldr	r2, [r7, #24]
 8001c30:	4313      	orrs	r3, r2
 8001c32:	61bb      	str	r3, [r7, #24]
        GPIOx->OSPEEDR = temp;
 8001c34:	687b      	ldr	r3, [r7, #4]
 8001c36:	69ba      	ldr	r2, [r7, #24]
 8001c38:	609a      	str	r2, [r3, #8]

        /* Configure the IO Output Type */
        temp = GPIOx->OTYPER;
 8001c3a:	687b      	ldr	r3, [r7, #4]
 8001c3c:	685b      	ldr	r3, [r3, #4]
 8001c3e:	61bb      	str	r3, [r7, #24]
        temp &= ~(GPIO_OTYPER_OT_0 << position) ;
 8001c40:	2201      	movs	r2, #1
 8001c42:	69fb      	ldr	r3, [r7, #28]
 8001c44:	fa02 f303 	lsl.w	r3, r2, r3
 8001c48:	43db      	mvns	r3, r3
 8001c4a:	69ba      	ldr	r2, [r7, #24]
 8001c4c:	4013      	ands	r3, r2
 8001c4e:	61bb      	str	r3, [r7, #24]
        temp |= (((GPIO_Init->Mode & OUTPUT_TYPE) >> OUTPUT_TYPE_Pos) << position);
 8001c50:	683b      	ldr	r3, [r7, #0]
 8001c52:	685b      	ldr	r3, [r3, #4]
 8001c54:	091b      	lsrs	r3, r3, #4
 8001c56:	f003 0201 	and.w	r2, r3, #1
 8001c5a:	69fb      	ldr	r3, [r7, #28]
 8001c5c:	fa02 f303 	lsl.w	r3, r2, r3
 8001c60:	69ba      	ldr	r2, [r7, #24]
 8001c62:	4313      	orrs	r3, r2
 8001c64:	61bb      	str	r3, [r7, #24]
        GPIOx->OTYPER = temp;
 8001c66:	687b      	ldr	r3, [r7, #4]
 8001c68:	69ba      	ldr	r2, [r7, #24]
 8001c6a:	605a      	str	r2, [r3, #4]
       }

      if((GPIO_Init->Mode & GPIO_MODE) != MODE_ANALOG)
 8001c6c:	683b      	ldr	r3, [r7, #0]
 8001c6e:	685b      	ldr	r3, [r3, #4]
 8001c70:	f003 0303 	and.w	r3, r3, #3
 8001c74:	2b03      	cmp	r3, #3
 8001c76:	d017      	beq.n	8001ca8 <HAL_GPIO_Init+0xf0>
      {
        /* Check the parameters */
        assert_param(IS_GPIO_PULL(GPIO_Init->Pull));
        
        /* Activate the Pull-up or Pull down resistor for the current IO */
        temp = GPIOx->PUPDR;
 8001c78:	687b      	ldr	r3, [r7, #4]
 8001c7a:	68db      	ldr	r3, [r3, #12]
 8001c7c:	61bb      	str	r3, [r7, #24]
        temp &= ~(GPIO_PUPDR_PUPDR0 << (position * 2U));
 8001c7e:	69fb      	ldr	r3, [r7, #28]
 8001c80:	005b      	lsls	r3, r3, #1
 8001c82:	2203      	movs	r2, #3
 8001c84:	fa02 f303 	lsl.w	r3, r2, r3
 8001c88:	43db      	mvns	r3, r3
 8001c8a:	69ba      	ldr	r2, [r7, #24]
 8001c8c:	4013      	ands	r3, r2
 8001c8e:	61bb      	str	r3, [r7, #24]
        temp |= ((GPIO_Init->Pull) << (position * 2U));
 8001c90:	683b      	ldr	r3, [r7, #0]
 8001c92:	689a      	ldr	r2, [r3, #8]
 8001c94:	69fb      	ldr	r3, [r7, #28]
 8001c96:	005b      	lsls	r3, r3, #1
 8001c98:	fa02 f303 	lsl.w	r3, r2, r3
 8001c9c:	69ba      	ldr	r2, [r7, #24]
 8001c9e:	4313      	orrs	r3, r2
 8001ca0:	61bb      	str	r3, [r7, #24]
        GPIOx->PUPDR = temp;
 8001ca2:	687b      	ldr	r3, [r7, #4]
 8001ca4:	69ba      	ldr	r2, [r7, #24]
 8001ca6:	60da      	str	r2, [r3, #12]
      }

      /* In case of Alternate function mode selection */
      if((GPIO_Init->Mode & GPIO_MODE) == MODE_AF)
 8001ca8:	683b      	ldr	r3, [r7, #0]
 8001caa:	685b      	ldr	r3, [r3, #4]
 8001cac:	f003 0303 	and.w	r3, r3, #3
 8001cb0:	2b02      	cmp	r3, #2
 8001cb2:	d123      	bne.n	8001cfc <HAL_GPIO_Init+0x144>
      {
        /* Check the Alternate function parameter */
        assert_param(IS_GPIO_AF(GPIO_Init->Alternate));
        /* Configure Alternate function mapped with the current IO */
        temp = GPIOx->AFR[position >> 3U];
 8001cb4:	69fb      	ldr	r3, [r7, #28]
 8001cb6:	08da      	lsrs	r2, r3, #3
 8001cb8:	687b      	ldr	r3, [r7, #4]
 8001cba:	3208      	adds	r2, #8
 8001cbc:	f853 3022 	ldr.w	r3, [r3, r2, lsl #2]
 8001cc0:	61bb      	str	r3, [r7, #24]
        temp &= ~(0xFU << ((uint32_t)(position & 0x07U) * 4U)) ;
 8001cc2:	69fb      	ldr	r3, [r7, #28]
 8001cc4:	f003 0307 	and.w	r3, r3, #7
 8001cc8:	009b      	lsls	r3, r3, #2
 8001cca:	220f      	movs	r2, #15
 8001ccc:	fa02 f303 	lsl.w	r3, r2, r3
 8001cd0:	43db      	mvns	r3, r3
 8001cd2:	69ba      	ldr	r2, [r7, #24]
 8001cd4:	4013      	ands	r3, r2
 8001cd6:	61bb      	str	r3, [r7, #24]
        temp |= ((uint32_t)(GPIO_Init->Alternate) << (((uint32_t)position & 0x07U) * 4U));
 8001cd8:	683b      	ldr	r3, [r7, #0]
 8001cda:	691a      	ldr	r2, [r3, #16]
 8001cdc:	69fb      	ldr	r3, [r7, #28]
 8001cde:	f003 0307 	and.w	r3, r3, #7
 8001ce2:	009b      	lsls	r3, r3, #2
 8001ce4:	fa02 f303 	lsl.w	r3, r2, r3
 8001ce8:	69ba      	ldr	r2, [r7, #24]
 8001cea:	4313      	orrs	r3, r2
 8001cec:	61bb      	str	r3, [r7, #24]
        GPIOx->AFR[position >> 3U] = temp;
 8001cee:	69fb      	ldr	r3, [r7, #28]
 8001cf0:	08da      	lsrs	r2, r3, #3
 8001cf2:	687b      	ldr	r3, [r7, #4]
 8001cf4:	3208      	adds	r2, #8
 8001cf6:	69b9      	ldr	r1, [r7, #24]
 8001cf8:	f843 1022 	str.w	r1, [r3, r2, lsl #2]
      }

      /* Configure IO Direction mode (Input, Output, Alternate or Analog) */
      temp = GPIOx->MODER;
 8001cfc:	687b      	ldr	r3, [r7, #4]
 8001cfe:	681b      	ldr	r3, [r3, #0]
 8001d00:	61bb      	str	r3, [r7, #24]
      temp &= ~(GPIO_MODER_MODER0 << (position * 2U));
 8001d02:	69fb      	ldr	r3, [r7, #28]
 8001d04:	005b      	lsls	r3, r3, #1
 8001d06:	2203      	movs	r2, #3
 8001d08:	fa02 f303 	lsl.w	r3, r2, r3
 8001d0c:	43db      	mvns	r3, r3
 8001d0e:	69ba      	ldr	r2, [r7, #24]
 8001d10:	4013      	ands	r3, r2
 8001d12:	61bb      	str	r3, [r7, #24]
      temp |= ((GPIO_Init->Mode & GPIO_MODE) << (position * 2U));
 8001d14:	683b      	ldr	r3, [r7, #0]
 8001d16:	685b      	ldr	r3, [r3, #4]
 8001d18:	f003 0203 	and.w	r2, r3, #3
 8001d1c:	69fb      	ldr	r3, [r7, #28]
 8001d1e:	005b      	lsls	r3, r3, #1
 8001d20:	fa02 f303 	lsl.w	r3, r2, r3
 8001d24:	69ba      	ldr	r2, [r7, #24]
 8001d26:	4313      	orrs	r3, r2
 8001d28:	61bb      	str	r3, [r7, #24]
      GPIOx->MODER = temp;
 8001d2a:	687b      	ldr	r3, [r7, #4]
 8001d2c:	69ba      	ldr	r2, [r7, #24]
 8001d2e:	601a      	str	r2, [r3, #0]

      /*--------------------- EXTI Mode Configuration ------------------------*/
      /* Configure the External Interrupt or event for the current IO */
      if((GPIO_Init->Mode & EXTI_MODE) != 0x00U)
 8001d30:	683b      	ldr	r3, [r7, #0]
 8001d32:	685b      	ldr	r3, [r3, #4]
 8001d34:	f403 3340 	and.w	r3, r3, #196608	; 0x30000
 8001d38:	2b00      	cmp	r3, #0
 8001d3a:	f000 80a2 	beq.w	8001e82 <HAL_GPIO_Init+0x2ca>
      {
        /* Enable SYSCFG Clock */
        __HAL_RCC_SYSCFG_CLK_ENABLE();
 8001d3e:	2300      	movs	r3, #0
 8001d40:	60fb      	str	r3, [r7, #12]
 8001d42:	4b57      	ldr	r3, [pc, #348]	; (8001ea0 <HAL_GPIO_Init+0x2e8>)
 8001d44:	6c5b      	ldr	r3, [r3, #68]	; 0x44
 8001d46:	4a56      	ldr	r2, [pc, #344]	; (8001ea0 <HAL_GPIO_Init+0x2e8>)
 8001d48:	f443 4380 	orr.w	r3, r3, #16384	; 0x4000
 8001d4c:	6453      	str	r3, [r2, #68]	; 0x44
 8001d4e:	4b54      	ldr	r3, [pc, #336]	; (8001ea0 <HAL_GPIO_Init+0x2e8>)
 8001d50:	6c5b      	ldr	r3, [r3, #68]	; 0x44
 8001d52:	f403 4380 	and.w	r3, r3, #16384	; 0x4000
 8001d56:	60fb      	str	r3, [r7, #12]
 8001d58:	68fb      	ldr	r3, [r7, #12]

        temp = SYSCFG->EXTICR[position >> 2U];
 8001d5a:	4a52      	ldr	r2, [pc, #328]	; (8001ea4 <HAL_GPIO_Init+0x2ec>)
 8001d5c:	69fb      	ldr	r3, [r7, #28]
 8001d5e:	089b      	lsrs	r3, r3, #2
 8001d60:	3302      	adds	r3, #2
 8001d62:	f852 3023 	ldr.w	r3, [r2, r3, lsl #2]
 8001d66:	61bb      	str	r3, [r7, #24]
        temp &= ~(0x0FU << (4U * (position & 0x03U)));
 8001d68:	69fb      	ldr	r3, [r7, #28]
 8001d6a:	f003 0303 	and.w	r3, r3, #3
 8001d6e:	009b      	lsls	r3, r3, #2
 8001d70:	220f      	movs	r2, #15
 8001d72:	fa02 f303 	lsl.w	r3, r2, r3
 8001d76:	43db      	mvns	r3, r3
 8001d78:	69ba      	ldr	r2, [r7, #24]
 8001d7a:	4013      	ands	r3, r2
 8001d7c:	61bb      	str	r3, [r7, #24]
        temp |= ((uint32_t)(GPIO_GET_INDEX(GPIOx)) << (4U * (position & 0x03U)));
 8001d7e:	687b      	ldr	r3, [r7, #4]
 8001d80:	4a49      	ldr	r2, [pc, #292]	; (8001ea8 <HAL_GPIO_Init+0x2f0>)
 8001d82:	4293      	cmp	r3, r2
 8001d84:	d019      	beq.n	8001dba <HAL_GPIO_Init+0x202>
 8001d86:	687b      	ldr	r3, [r7, #4]
 8001d88:	4a48      	ldr	r2, [pc, #288]	; (8001eac <HAL_GPIO_Init+0x2f4>)
 8001d8a:	4293      	cmp	r3, r2
 8001d8c:	d013      	beq.n	8001db6 <HAL_GPIO_Init+0x1fe>
 8001d8e:	687b      	ldr	r3, [r7, #4]
 8001d90:	4a47      	ldr	r2, [pc, #284]	; (8001eb0 <HAL_GPIO_Init+0x2f8>)
 8001d92:	4293      	cmp	r3, r2
 8001d94:	d00d      	beq.n	8001db2 <HAL_GPIO_Init+0x1fa>
 8001d96:	687b      	ldr	r3, [r7, #4]
 8001d98:	4a46      	ldr	r2, [pc, #280]	; (8001eb4 <HAL_GPIO_Init+0x2fc>)
 8001d9a:	4293      	cmp	r3, r2
 8001d9c:	d007      	beq.n	8001dae <HAL_GPIO_Init+0x1f6>
 8001d9e:	687b      	ldr	r3, [r7, #4]
 8001da0:	4a45      	ldr	r2, [pc, #276]	; (8001eb8 <HAL_GPIO_Init+0x300>)
 8001da2:	4293      	cmp	r3, r2
 8001da4:	d101      	bne.n	8001daa <HAL_GPIO_Init+0x1f2>
 8001da6:	2304      	movs	r3, #4
 8001da8:	e008      	b.n	8001dbc <HAL_GPIO_Init+0x204>
 8001daa:	2307      	movs	r3, #7
 8001dac:	e006      	b.n	8001dbc <HAL_GPIO_Init+0x204>
 8001dae:	2303      	movs	r3, #3
 8001db0:	e004      	b.n	8001dbc <HAL_GPIO_Init+0x204>
 8001db2:	2302      	movs	r3, #2
 8001db4:	e002      	b.n	8001dbc <HAL_GPIO_Init+0x204>
 8001db6:	2301      	movs	r3, #1
 8001db8:	e000      	b.n	8001dbc <HAL_GPIO_Init+0x204>
 8001dba:	2300      	movs	r3, #0
 8001dbc:	69fa      	ldr	r2, [r7, #28]
 8001dbe:	f002 0203 	and.w	r2, r2, #3
 8001dc2:	0092      	lsls	r2, r2, #2
 8001dc4:	4093      	lsls	r3, r2
 8001dc6:	69ba      	ldr	r2, [r7, #24]
 8001dc8:	4313      	orrs	r3, r2
 8001dca:	61bb      	str	r3, [r7, #24]
        SYSCFG->EXTICR[position >> 2U] = temp;
 8001dcc:	4935      	ldr	r1, [pc, #212]	; (8001ea4 <HAL_GPIO_Init+0x2ec>)
 8001dce:	69fb      	ldr	r3, [r7, #28]
 8001dd0:	089b      	lsrs	r3, r3, #2
 8001dd2:	3302      	adds	r3, #2
 8001dd4:	69ba      	ldr	r2, [r7, #24]
 8001dd6:	f841 2023 	str.w	r2, [r1, r3, lsl #2]

        /* Clear Rising Falling edge configuration */
        temp = EXTI->RTSR;
 8001dda:	4b38      	ldr	r3, [pc, #224]	; (8001ebc <HAL_GPIO_Init+0x304>)
 8001ddc:	689b      	ldr	r3, [r3, #8]
 8001dde:	61bb      	str	r3, [r7, #24]
        temp &= ~((uint32_t)iocurrent);
 8001de0:	693b      	ldr	r3, [r7, #16]
 8001de2:	43db      	mvns	r3, r3
 8001de4:	69ba      	ldr	r2, [r7, #24]
 8001de6:	4013      	ands	r3, r2
 8001de8:	61bb      	str	r3, [r7, #24]
        if((GPIO_Init->Mode & TRIGGER_RISING) != 0x00U)
 8001dea:	683b      	ldr	r3, [r7, #0]
 8001dec:	685b      	ldr	r3, [r3, #4]
 8001dee:	f403 1380 	and.w	r3, r3, #1048576	; 0x100000
 8001df2:	2b00      	cmp	r3, #0
 8001df4:	d003      	beq.n	8001dfe <HAL_GPIO_Init+0x246>
        {
          temp |= iocurrent;
 8001df6:	69ba      	ldr	r2, [r7, #24]
 8001df8:	693b      	ldr	r3, [r7, #16]
 8001dfa:	4313      	orrs	r3, r2
 8001dfc:	61bb      	str	r3, [r7, #24]
        }
        EXTI->RTSR = temp;
 8001dfe:	4a2f      	ldr	r2, [pc, #188]	; (8001ebc <HAL_GPIO_Init+0x304>)
 8001e00:	69bb      	ldr	r3, [r7, #24]
 8001e02:	6093      	str	r3, [r2, #8]

        temp = EXTI->FTSR;
 8001e04:	4b2d      	ldr	r3, [pc, #180]	; (8001ebc <HAL_GPIO_Init+0x304>)
 8001e06:	68db      	ldr	r3, [r3, #12]
 8001e08:	61bb      	str	r3, [r7, #24]
        temp &= ~((uint32_t)iocurrent);
 8001e0a:	693b      	ldr	r3, [r7, #16]
 8001e0c:	43db      	mvns	r3, r3
 8001e0e:	69ba      	ldr	r2, [r7, #24]
 8001e10:	4013      	ands	r3, r2
 8001e12:	61bb      	str	r3, [r7, #24]
        if((GPIO_Init->Mode & TRIGGER_FALLING) != 0x00U)
 8001e14:	683b      	ldr	r3, [r7, #0]
 8001e16:	685b      	ldr	r3, [r3, #4]
 8001e18:	f403 1300 	and.w	r3, r3, #2097152	; 0x200000
 8001e1c:	2b00      	cmp	r3, #0
 8001e1e:	d003      	beq.n	8001e28 <HAL_GPIO_Init+0x270>
        {
          temp |= iocurrent;
 8001e20:	69ba      	ldr	r2, [r7, #24]
 8001e22:	693b      	ldr	r3, [r7, #16]
 8001e24:	4313      	orrs	r3, r2
 8001e26:	61bb      	str	r3, [r7, #24]
        }
        EXTI->FTSR = temp;
 8001e28:	4a24      	ldr	r2, [pc, #144]	; (8001ebc <HAL_GPIO_Init+0x304>)
 8001e2a:	69bb      	ldr	r3, [r7, #24]
 8001e2c:	60d3      	str	r3, [r2, #12]

        temp = EXTI->EMR;
 8001e2e:	4b23      	ldr	r3, [pc, #140]	; (8001ebc <HAL_GPIO_Init+0x304>)
 8001e30:	685b      	ldr	r3, [r3, #4]
 8001e32:	61bb      	str	r3, [r7, #24]
        temp &= ~((uint32_t)iocurrent);
 8001e34:	693b      	ldr	r3, [r7, #16]
 8001e36:	43db      	mvns	r3, r3
 8001e38:	69ba      	ldr	r2, [r7, #24]
 8001e3a:	4013      	ands	r3, r2
 8001e3c:	61bb      	str	r3, [r7, #24]
        if((GPIO_Init->Mode & EXTI_EVT) != 0x00U)
 8001e3e:	683b      	ldr	r3, [r7, #0]
 8001e40:	685b      	ldr	r3, [r3, #4]
 8001e42:	f403 3300 	and.w	r3, r3, #131072	; 0x20000
 8001e46:	2b00      	cmp	r3, #0
 8001e48:	d003      	beq.n	8001e52 <HAL_GPIO_Init+0x29a>
        {
          temp |= iocurrent;
 8001e4a:	69ba      	ldr	r2, [r7, #24]
 8001e4c:	693b      	ldr	r3, [r7, #16]
 8001e4e:	4313      	orrs	r3, r2
 8001e50:	61bb      	str	r3, [r7, #24]
        }
        EXTI->EMR = temp;
 8001e52:	4a1a      	ldr	r2, [pc, #104]	; (8001ebc <HAL_GPIO_Init+0x304>)
 8001e54:	69bb      	ldr	r3, [r7, #24]
 8001e56:	6053      	str	r3, [r2, #4]

        /* Clear EXTI line configuration */
        temp = EXTI->IMR;
 8001e58:	4b18      	ldr	r3, [pc, #96]	; (8001ebc <HAL_GPIO_Init+0x304>)
 8001e5a:	681b      	ldr	r3, [r3, #0]
 8001e5c:	61bb      	str	r3, [r7, #24]
        temp &= ~((uint32_t)iocurrent);
 8001e5e:	693b      	ldr	r3, [r7, #16]
 8001e60:	43db      	mvns	r3, r3
 8001e62:	69ba      	ldr	r2, [r7, #24]
 8001e64:	4013      	ands	r3, r2
 8001e66:	61bb      	str	r3, [r7, #24]
        if((GPIO_Init->Mode & EXTI_IT) != 0x00U)
 8001e68:	683b      	ldr	r3, [r7, #0]
 8001e6a:	685b      	ldr	r3, [r3, #4]
 8001e6c:	f403 3380 	and.w	r3, r3, #65536	; 0x10000
 8001e70:	2b00      	cmp	r3, #0
 8001e72:	d003      	beq.n	8001e7c <HAL_GPIO_Init+0x2c4>
        {
          temp |= iocurrent;
 8001e74:	69ba      	ldr	r2, [r7, #24]
 8001e76:	693b      	ldr	r3, [r7, #16]
 8001e78:	4313      	orrs	r3, r2
 8001e7a:	61bb      	str	r3, [r7, #24]
        }
        EXTI->IMR = temp;
 8001e7c:	4a0f      	ldr	r2, [pc, #60]	; (8001ebc <HAL_GPIO_Init+0x304>)
 8001e7e:	69bb      	ldr	r3, [r7, #24]
 8001e80:	6013      	str	r3, [r2, #0]
  for(position = 0U; position < GPIO_NUMBER; position++)
 8001e82:	69fb      	ldr	r3, [r7, #28]
 8001e84:	3301      	adds	r3, #1
 8001e86:	61fb      	str	r3, [r7, #28]
 8001e88:	69fb      	ldr	r3, [r7, #28]
 8001e8a:	2b0f      	cmp	r3, #15
 8001e8c:	f67f aea2 	bls.w	8001bd4 <HAL_GPIO_Init+0x1c>
      }
    }
  }
}
 8001e90:	bf00      	nop
 8001e92:	bf00      	nop
 8001e94:	3724      	adds	r7, #36	; 0x24
 8001e96:	46bd      	mov	sp, r7
 8001e98:	f85d 7b04 	ldr.w	r7, [sp], #4
 8001e9c:	4770      	bx	lr
 8001e9e:	bf00      	nop
 8001ea0:	40023800 	.word	0x40023800
 8001ea4:	40013800 	.word	0x40013800
 8001ea8:	40020000 	.word	0x40020000
 8001eac:	40020400 	.word	0x40020400
 8001eb0:	40020800 	.word	0x40020800
 8001eb4:	40020c00 	.word	0x40020c00
 8001eb8:	40021000 	.word	0x40021000
 8001ebc:	40013c00 	.word	0x40013c00

08001ec0 <HAL_RCC_OscConfig>:
  *         supported by this API. User should request a transition to HSE Off
  *         first and then HSE On or HSE Bypass.
  * @retval HAL status
  */
__weak HAL_StatusTypeDef HAL_RCC_OscConfig(RCC_OscInitTypeDef  *RCC_OscInitStruct)
{
 8001ec0:	b580      	push	{r7, lr}
 8001ec2:	b086      	sub	sp, #24
 8001ec4:	af00      	add	r7, sp, #0
 8001ec6:	6078      	str	r0, [r7, #4]
  uint32_t tickstart, pll_config;

  /* Check Null pointer */
  if(RCC_OscInitStruct == NULL)
 8001ec8:	687b      	ldr	r3, [r7, #4]
 8001eca:	2b00      	cmp	r3, #0
 8001ecc:	d101      	bne.n	8001ed2 <HAL_RCC_OscConfig+0x12>
  {
    return HAL_ERROR;
 8001ece:	2301      	movs	r3, #1
 8001ed0:	e267      	b.n	80023a2 <HAL_RCC_OscConfig+0x4e2>
  }

  /* Check the parameters */
  assert_param(IS_RCC_OSCILLATORTYPE(RCC_OscInitStruct->OscillatorType));
  /*------------------------------- HSE Configuration ------------------------*/
  if(((RCC_OscInitStruct->OscillatorType) & RCC_OSCILLATORTYPE_HSE) == RCC_OSCILLATORTYPE_HSE)
 8001ed2:	687b      	ldr	r3, [r7, #4]
 8001ed4:	681b      	ldr	r3, [r3, #0]
 8001ed6:	f003 0301 	and.w	r3, r3, #1
 8001eda:	2b00      	cmp	r3, #0
 8001edc:	d075      	beq.n	8001fca <HAL_RCC_OscConfig+0x10a>
  {
    /* Check the parameters */
    assert_param(IS_RCC_HSE(RCC_OscInitStruct->HSEState));
    /* When the HSE is used as system clock or clock source for PLL in these cases HSE will not disabled */
    if((__HAL_RCC_GET_SYSCLK_SOURCE() == RCC_CFGR_SWS_HSE) ||\
 8001ede:	4b88      	ldr	r3, [pc, #544]	; (8002100 <HAL_RCC_OscConfig+0x240>)
 8001ee0:	689b      	ldr	r3, [r3, #8]
 8001ee2:	f003 030c 	and.w	r3, r3, #12
 8001ee6:	2b04      	cmp	r3, #4
 8001ee8:	d00c      	beq.n	8001f04 <HAL_RCC_OscConfig+0x44>
      ((__HAL_RCC_GET_SYSCLK_SOURCE() == RCC_CFGR_SWS_PLL) && ((RCC->PLLCFGR & RCC_PLLCFGR_PLLSRC) == RCC_PLLCFGR_PLLSRC_HSE)))
 8001eea:	4b85      	ldr	r3, [pc, #532]	; (8002100 <HAL_RCC_OscConfig+0x240>)
 8001eec:	689b      	ldr	r3, [r3, #8]
 8001eee:	f003 030c 	and.w	r3, r3, #12
    if((__HAL_RCC_GET_SYSCLK_SOURCE() == RCC_CFGR_SWS_HSE) ||\
 8001ef2:	2b08      	cmp	r3, #8
 8001ef4:	d112      	bne.n	8001f1c <HAL_RCC_OscConfig+0x5c>
      ((__HAL_RCC_GET_SYSCLK_SOURCE() == RCC_CFGR_SWS_PLL) && ((RCC->PLLCFGR & RCC_PLLCFGR_PLLSRC) == RCC_PLLCFGR_PLLSRC_HSE)))
 8001ef6:	4b82      	ldr	r3, [pc, #520]	; (8002100 <HAL_RCC_OscConfig+0x240>)
 8001ef8:	685b      	ldr	r3, [r3, #4]
 8001efa:	f403 0380 	and.w	r3, r3, #4194304	; 0x400000
 8001efe:	f5b3 0f80 	cmp.w	r3, #4194304	; 0x400000
 8001f02:	d10b      	bne.n	8001f1c <HAL_RCC_OscConfig+0x5c>
    {
      if((__HAL_RCC_GET_FLAG(RCC_FLAG_HSERDY) != RESET) && (RCC_OscInitStruct->HSEState == RCC_HSE_OFF))
 8001f04:	4b7e      	ldr	r3, [pc, #504]	; (8002100 <HAL_RCC_OscConfig+0x240>)
 8001f06:	681b      	ldr	r3, [r3, #0]
 8001f08:	f403 3300 	and.w	r3, r3, #131072	; 0x20000
 8001f0c:	2b00      	cmp	r3, #0
 8001f0e:	d05b      	beq.n	8001fc8 <HAL_RCC_OscConfig+0x108>
 8001f10:	687b      	ldr	r3, [r7, #4]
 8001f12:	685b      	ldr	r3, [r3, #4]
 8001f14:	2b00      	cmp	r3, #0
 8001f16:	d157      	bne.n	8001fc8 <HAL_RCC_OscConfig+0x108>
      {
        return HAL_ERROR;
 8001f18:	2301      	movs	r3, #1
 8001f1a:	e242      	b.n	80023a2 <HAL_RCC_OscConfig+0x4e2>
      }
    }
    else
    {
      /* Set the new HSE configuration ---------------------------------------*/
      __HAL_RCC_HSE_CONFIG(RCC_OscInitStruct->HSEState);
 8001f1c:	687b      	ldr	r3, [r7, #4]
 8001f1e:	685b      	ldr	r3, [r3, #4]
 8001f20:	f5b3 3f80 	cmp.w	r3, #65536	; 0x10000
 8001f24:	d106      	bne.n	8001f34 <HAL_RCC_OscConfig+0x74>
 8001f26:	4b76      	ldr	r3, [pc, #472]	; (8002100 <HAL_RCC_OscConfig+0x240>)
 8001f28:	681b      	ldr	r3, [r3, #0]
 8001f2a:	4a75      	ldr	r2, [pc, #468]	; (8002100 <HAL_RCC_OscConfig+0x240>)
 8001f2c:	f443 3380 	orr.w	r3, r3, #65536	; 0x10000
 8001f30:	6013      	str	r3, [r2, #0]
 8001f32:	e01d      	b.n	8001f70 <HAL_RCC_OscConfig+0xb0>
 8001f34:	687b      	ldr	r3, [r7, #4]
 8001f36:	685b      	ldr	r3, [r3, #4]
 8001f38:	f5b3 2fa0 	cmp.w	r3, #327680	; 0x50000
 8001f3c:	d10c      	bne.n	8001f58 <HAL_RCC_OscConfig+0x98>
 8001f3e:	4b70      	ldr	r3, [pc, #448]	; (8002100 <HAL_RCC_OscConfig+0x240>)
 8001f40:	681b      	ldr	r3, [r3, #0]
 8001f42:	4a6f      	ldr	r2, [pc, #444]	; (8002100 <HAL_RCC_OscConfig+0x240>)
 8001f44:	f443 2380 	orr.w	r3, r3, #262144	; 0x40000
 8001f48:	6013      	str	r3, [r2, #0]
 8001f4a:	4b6d      	ldr	r3, [pc, #436]	; (8002100 <HAL_RCC_OscConfig+0x240>)
 8001f4c:	681b      	ldr	r3, [r3, #0]
 8001f4e:	4a6c      	ldr	r2, [pc, #432]	; (8002100 <HAL_RCC_OscConfig+0x240>)
 8001f50:	f443 3380 	orr.w	r3, r3, #65536	; 0x10000
 8001f54:	6013      	str	r3, [r2, #0]
 8001f56:	e00b      	b.n	8001f70 <HAL_RCC_OscConfig+0xb0>
 8001f58:	4b69      	ldr	r3, [pc, #420]	; (8002100 <HAL_RCC_OscConfig+0x240>)
 8001f5a:	681b      	ldr	r3, [r3, #0]
 8001f5c:	4a68      	ldr	r2, [pc, #416]	; (8002100 <HAL_RCC_OscConfig+0x240>)
 8001f5e:	f423 3380 	bic.w	r3, r3, #65536	; 0x10000
 8001f62:	6013      	str	r3, [r2, #0]
 8001f64:	4b66      	ldr	r3, [pc, #408]	; (8002100 <HAL_RCC_OscConfig+0x240>)
 8001f66:	681b      	ldr	r3, [r3, #0]
 8001f68:	4a65      	ldr	r2, [pc, #404]	; (8002100 <HAL_RCC_OscConfig+0x240>)
 8001f6a:	f423 2380 	bic.w	r3, r3, #262144	; 0x40000
 8001f6e:	6013      	str	r3, [r2, #0]

      /* Check the HSE State */
      if((RCC_OscInitStruct->HSEState) != RCC_HSE_OFF)
 8001f70:	687b      	ldr	r3, [r7, #4]
 8001f72:	685b      	ldr	r3, [r3, #4]
 8001f74:	2b00      	cmp	r3, #0
 8001f76:	d013      	beq.n	8001fa0 <HAL_RCC_OscConfig+0xe0>
      {
        /* Get Start Tick */
        tickstart = HAL_GetTick();
 8001f78:	f7ff fd2c 	bl	80019d4 <HAL_GetTick>
 8001f7c:	6138      	str	r0, [r7, #16]

        /* Wait till HSE is ready */
        while(__HAL_RCC_GET_FLAG(RCC_FLAG_HSERDY) == RESET)
 8001f7e:	e008      	b.n	8001f92 <HAL_RCC_OscConfig+0xd2>
        {
          if((HAL_GetTick() - tickstart ) > HSE_TIMEOUT_VALUE)
 8001f80:	f7ff fd28 	bl	80019d4 <HAL_GetTick>
 8001f84:	4602      	mov	r2, r0
 8001f86:	693b      	ldr	r3, [r7, #16]
 8001f88:	1ad3      	subs	r3, r2, r3
 8001f8a:	2b64      	cmp	r3, #100	; 0x64
 8001f8c:	d901      	bls.n	8001f92 <HAL_RCC_OscConfig+0xd2>
          {
            return HAL_TIMEOUT;
 8001f8e:	2303      	movs	r3, #3
 8001f90:	e207      	b.n	80023a2 <HAL_RCC_OscConfig+0x4e2>
        while(__HAL_RCC_GET_FLAG(RCC_FLAG_HSERDY) == RESET)
 8001f92:	4b5b      	ldr	r3, [pc, #364]	; (8002100 <HAL_RCC_OscConfig+0x240>)
 8001f94:	681b      	ldr	r3, [r3, #0]
 8001f96:	f403 3300 	and.w	r3, r3, #131072	; 0x20000
 8001f9a:	2b00      	cmp	r3, #0
 8001f9c:	d0f0      	beq.n	8001f80 <HAL_RCC_OscConfig+0xc0>
 8001f9e:	e014      	b.n	8001fca <HAL_RCC_OscConfig+0x10a>
        }
      }
      else
      {
        /* Get Start Tick */
        tickstart = HAL_GetTick();
 8001fa0:	f7ff fd18 	bl	80019d4 <HAL_GetTick>
 8001fa4:	6138      	str	r0, [r7, #16]

        /* Wait till HSE is bypassed or disabled */
        while(__HAL_RCC_GET_FLAG(RCC_FLAG_HSERDY) != RESET)
 8001fa6:	e008      	b.n	8001fba <HAL_RCC_OscConfig+0xfa>
        {
          if((HAL_GetTick() - tickstart ) > HSE_TIMEOUT_VALUE)
 8001fa8:	f7ff fd14 	bl	80019d4 <HAL_GetTick>
 8001fac:	4602      	mov	r2, r0
 8001fae:	693b      	ldr	r3, [r7, #16]
 8001fb0:	1ad3      	subs	r3, r2, r3
 8001fb2:	2b64      	cmp	r3, #100	; 0x64
 8001fb4:	d901      	bls.n	8001fba <HAL_RCC_OscConfig+0xfa>
          {
            return HAL_TIMEOUT;
 8001fb6:	2303      	movs	r3, #3
 8001fb8:	e1f3      	b.n	80023a2 <HAL_RCC_OscConfig+0x4e2>
        while(__HAL_RCC_GET_FLAG(RCC_FLAG_HSERDY) != RESET)
 8001fba:	4b51      	ldr	r3, [pc, #324]	; (8002100 <HAL_RCC_OscConfig+0x240>)
 8001fbc:	681b      	ldr	r3, [r3, #0]
 8001fbe:	f403 3300 	and.w	r3, r3, #131072	; 0x20000
 8001fc2:	2b00      	cmp	r3, #0
 8001fc4:	d1f0      	bne.n	8001fa8 <HAL_RCC_OscConfig+0xe8>
 8001fc6:	e000      	b.n	8001fca <HAL_RCC_OscConfig+0x10a>
      if((__HAL_RCC_GET_FLAG(RCC_FLAG_HSERDY) != RESET) && (RCC_OscInitStruct->HSEState == RCC_HSE_OFF))
 8001fc8:	bf00      	nop
        }
      }
    }
  }
  /*----------------------------- HSI Configuration --------------------------*/
  if(((RCC_OscInitStruct->OscillatorType) & RCC_OSCILLATORTYPE_HSI) == RCC_OSCILLATORTYPE_HSI)
 8001fca:	687b      	ldr	r3, [r7, #4]
 8001fcc:	681b      	ldr	r3, [r3, #0]
 8001fce:	f003 0302 	and.w	r3, r3, #2
 8001fd2:	2b00      	cmp	r3, #0
 8001fd4:	d063      	beq.n	800209e <HAL_RCC_OscConfig+0x1de>
    /* Check the parameters */
    assert_param(IS_RCC_HSI(RCC_OscInitStruct->HSIState));
    assert_param(IS_RCC_CALIBRATION_VALUE(RCC_OscInitStruct->HSICalibrationValue));

    /* Check if HSI is used as system clock or as PLL source when PLL is selected as system clock */
    if((__HAL_RCC_GET_SYSCLK_SOURCE() == RCC_CFGR_SWS_HSI) ||\
 8001fd6:	4b4a      	ldr	r3, [pc, #296]	; (8002100 <HAL_RCC_OscConfig+0x240>)
 8001fd8:	689b      	ldr	r3, [r3, #8]
 8001fda:	f003 030c 	and.w	r3, r3, #12
 8001fde:	2b00      	cmp	r3, #0
 8001fe0:	d00b      	beq.n	8001ffa <HAL_RCC_OscConfig+0x13a>
      ((__HAL_RCC_GET_SYSCLK_SOURCE() == RCC_CFGR_SWS_PLL) && ((RCC->PLLCFGR & RCC_PLLCFGR_PLLSRC) == RCC_PLLCFGR_PLLSRC_HSI)))
 8001fe2:	4b47      	ldr	r3, [pc, #284]	; (8002100 <HAL_RCC_OscConfig+0x240>)
 8001fe4:	689b      	ldr	r3, [r3, #8]
 8001fe6:	f003 030c 	and.w	r3, r3, #12
    if((__HAL_RCC_GET_SYSCLK_SOURCE() == RCC_CFGR_SWS_HSI) ||\
 8001fea:	2b08      	cmp	r3, #8
 8001fec:	d11c      	bne.n	8002028 <HAL_RCC_OscConfig+0x168>
      ((__HAL_RCC_GET_SYSCLK_SOURCE() == RCC_CFGR_SWS_PLL) && ((RCC->PLLCFGR & RCC_PLLCFGR_PLLSRC) == RCC_PLLCFGR_PLLSRC_HSI)))
 8001fee:	4b44      	ldr	r3, [pc, #272]	; (8002100 <HAL_RCC_OscConfig+0x240>)
 8001ff0:	685b      	ldr	r3, [r3, #4]
 8001ff2:	f403 0380 	and.w	r3, r3, #4194304	; 0x400000
 8001ff6:	2b00      	cmp	r3, #0
 8001ff8:	d116      	bne.n	8002028 <HAL_RCC_OscConfig+0x168>
    {
      /* When HSI is used as system clock it will not disabled */
      if((__HAL_RCC_GET_FLAG(RCC_FLAG_HSIRDY) != RESET) && (RCC_OscInitStruct->HSIState != RCC_HSI_ON))
 8001ffa:	4b41      	ldr	r3, [pc, #260]	; (8002100 <HAL_RCC_OscConfig+0x240>)
 8001ffc:	681b      	ldr	r3, [r3, #0]
 8001ffe:	f003 0302 	and.w	r3, r3, #2
 8002002:	2b00      	cmp	r3, #0
 8002004:	d005      	beq.n	8002012 <HAL_RCC_OscConfig+0x152>
 8002006:	687b      	ldr	r3, [r7, #4]
 8002008:	68db      	ldr	r3, [r3, #12]
 800200a:	2b01      	cmp	r3, #1
 800200c:	d001      	beq.n	8002012 <HAL_RCC_OscConfig+0x152>
      {
        return HAL_ERROR;
 800200e:	2301      	movs	r3, #1
 8002010:	e1c7      	b.n	80023a2 <HAL_RCC_OscConfig+0x4e2>
      }
      /* Otherwise, just the calibration is allowed */
      else
      {
        /* Adjusts the Internal High Speed oscillator (HSI) calibration value.*/
        __HAL_RCC_HSI_CALIBRATIONVALUE_ADJUST(RCC_OscInitStruct->HSICalibrationValue);
 8002012:	4b3b      	ldr	r3, [pc, #236]	; (8002100 <HAL_RCC_OscConfig+0x240>)
 8002014:	681b      	ldr	r3, [r3, #0]
 8002016:	f023 02f8 	bic.w	r2, r3, #248	; 0xf8
 800201a:	687b      	ldr	r3, [r7, #4]
 800201c:	691b      	ldr	r3, [r3, #16]
 800201e:	00db      	lsls	r3, r3, #3
 8002020:	4937      	ldr	r1, [pc, #220]	; (8002100 <HAL_RCC_OscConfig+0x240>)
 8002022:	4313      	orrs	r3, r2
 8002024:	600b      	str	r3, [r1, #0]
      if((__HAL_RCC_GET_FLAG(RCC_FLAG_HSIRDY) != RESET) && (RCC_OscInitStruct->HSIState != RCC_HSI_ON))
 8002026:	e03a      	b.n	800209e <HAL_RCC_OscConfig+0x1de>
      }
    }
    else
    {
      /* Check the HSI State */
      if((RCC_OscInitStruct->HSIState)!= RCC_HSI_OFF)
 8002028:	687b      	ldr	r3, [r7, #4]
 800202a:	68db      	ldr	r3, [r3, #12]
 800202c:	2b00      	cmp	r3, #0
 800202e:	d020      	beq.n	8002072 <HAL_RCC_OscConfig+0x1b2>
      {
        /* Enable the Internal High Speed oscillator (HSI). */
        __HAL_RCC_HSI_ENABLE();
 8002030:	4b34      	ldr	r3, [pc, #208]	; (8002104 <HAL_RCC_OscConfig+0x244>)
 8002032:	2201      	movs	r2, #1
 8002034:	601a      	str	r2, [r3, #0]

        /* Get Start Tick*/
        tickstart = HAL_GetTick();
 8002036:	f7ff fccd 	bl	80019d4 <HAL_GetTick>
 800203a:	6138      	str	r0, [r7, #16]

        /* Wait till HSI is ready */
        while(__HAL_RCC_GET_FLAG(RCC_FLAG_HSIRDY) == RESET)
 800203c:	e008      	b.n	8002050 <HAL_RCC_OscConfig+0x190>
        {
          if((HAL_GetTick() - tickstart ) > HSI_TIMEOUT_VALUE)
 800203e:	f7ff fcc9 	bl	80019d4 <HAL_GetTick>
 8002042:	4602      	mov	r2, r0
 8002044:	693b      	ldr	r3, [r7, #16]
 8002046:	1ad3      	subs	r3, r2, r3
 8002048:	2b02      	cmp	r3, #2
 800204a:	d901      	bls.n	8002050 <HAL_RCC_OscConfig+0x190>
          {
            return HAL_TIMEOUT;
 800204c:	2303      	movs	r3, #3
 800204e:	e1a8      	b.n	80023a2 <HAL_RCC_OscConfig+0x4e2>
        while(__HAL_RCC_GET_FLAG(RCC_FLAG_HSIRDY) == RESET)
 8002050:	4b2b      	ldr	r3, [pc, #172]	; (8002100 <HAL_RCC_OscConfig+0x240>)
 8002052:	681b      	ldr	r3, [r3, #0]
 8002054:	f003 0302 	and.w	r3, r3, #2
 8002058:	2b00      	cmp	r3, #0
 800205a:	d0f0      	beq.n	800203e <HAL_RCC_OscConfig+0x17e>
          }
        }

        /* Adjusts the Internal High Speed oscillator (HSI) calibration value. */
        __HAL_RCC_HSI_CALIBRATIONVALUE_ADJUST(RCC_OscInitStruct->HSICalibrationValue);
 800205c:	4b28      	ldr	r3, [pc, #160]	; (8002100 <HAL_RCC_OscConfig+0x240>)
 800205e:	681b      	ldr	r3, [r3, #0]
 8002060:	f023 02f8 	bic.w	r2, r3, #248	; 0xf8
 8002064:	687b      	ldr	r3, [r7, #4]
 8002066:	691b      	ldr	r3, [r3, #16]
 8002068:	00db      	lsls	r3, r3, #3
 800206a:	4925      	ldr	r1, [pc, #148]	; (8002100 <HAL_RCC_OscConfig+0x240>)
 800206c:	4313      	orrs	r3, r2
 800206e:	600b      	str	r3, [r1, #0]
 8002070:	e015      	b.n	800209e <HAL_RCC_OscConfig+0x1de>
      }
      else
      {
        /* Disable the Internal High Speed oscillator (HSI). */
        __HAL_RCC_HSI_DISABLE();
 8002072:	4b24      	ldr	r3, [pc, #144]	; (8002104 <HAL_RCC_OscConfig+0x244>)
 8002074:	2200      	movs	r2, #0
 8002076:	601a      	str	r2, [r3, #0]

        /* Get Start Tick*/
        tickstart = HAL_GetTick();
 8002078:	f7ff fcac 	bl	80019d4 <HAL_GetTick>
 800207c:	6138      	str	r0, [r7, #16]

        /* Wait till HSI is ready */
        while(__HAL_RCC_GET_FLAG(RCC_FLAG_HSIRDY) != RESET)
 800207e:	e008      	b.n	8002092 <HAL_RCC_OscConfig+0x1d2>
        {
          if((HAL_GetTick() - tickstart ) > HSI_TIMEOUT_VALUE)
 8002080:	f7ff fca8 	bl	80019d4 <HAL_GetTick>
 8002084:	4602      	mov	r2, r0
 8002086:	693b      	ldr	r3, [r7, #16]
 8002088:	1ad3      	subs	r3, r2, r3
 800208a:	2b02      	cmp	r3, #2
 800208c:	d901      	bls.n	8002092 <HAL_RCC_OscConfig+0x1d2>
          {
            return HAL_TIMEOUT;
 800208e:	2303      	movs	r3, #3
 8002090:	e187      	b.n	80023a2 <HAL_RCC_OscConfig+0x4e2>
        while(__HAL_RCC_GET_FLAG(RCC_FLAG_HSIRDY) != RESET)
 8002092:	4b1b      	ldr	r3, [pc, #108]	; (8002100 <HAL_RCC_OscConfig+0x240>)
 8002094:	681b      	ldr	r3, [r3, #0]
 8002096:	f003 0302 	and.w	r3, r3, #2
 800209a:	2b00      	cmp	r3, #0
 800209c:	d1f0      	bne.n	8002080 <HAL_RCC_OscConfig+0x1c0>
        }
      }
    }
  }
  /*------------------------------ LSI Configuration -------------------------*/
  if(((RCC_OscInitStruct->OscillatorType) & RCC_OSCILLATORTYPE_LSI) == RCC_OSCILLATORTYPE_LSI)
 800209e:	687b      	ldr	r3, [r7, #4]
 80020a0:	681b      	ldr	r3, [r3, #0]
 80020a2:	f003 0308 	and.w	r3, r3, #8
 80020a6:	2b00      	cmp	r3, #0
 80020a8:	d036      	beq.n	8002118 <HAL_RCC_OscConfig+0x258>
  {
    /* Check the parameters */
    assert_param(IS_RCC_LSI(RCC_OscInitStruct->LSIState));

    /* Check the LSI State */
    if((RCC_OscInitStruct->LSIState)!= RCC_LSI_OFF)
 80020aa:	687b      	ldr	r3, [r7, #4]
 80020ac:	695b      	ldr	r3, [r3, #20]
 80020ae:	2b00      	cmp	r3, #0
 80020b0:	d016      	beq.n	80020e0 <HAL_RCC_OscConfig+0x220>
    {
      /* Enable the Internal Low Speed oscillator (LSI). */
      __HAL_RCC_LSI_ENABLE();
 80020b2:	4b15      	ldr	r3, [pc, #84]	; (8002108 <HAL_RCC_OscConfig+0x248>)
 80020b4:	2201      	movs	r2, #1
 80020b6:	601a      	str	r2, [r3, #0]

      /* Get Start Tick*/
      tickstart = HAL_GetTick();
 80020b8:	f7ff fc8c 	bl	80019d4 <HAL_GetTick>
 80020bc:	6138      	str	r0, [r7, #16]

      /* Wait till LSI is ready */
      while(__HAL_RCC_GET_FLAG(RCC_FLAG_LSIRDY) == RESET)
 80020be:	e008      	b.n	80020d2 <HAL_RCC_OscConfig+0x212>
      {
        if((HAL_GetTick() - tickstart ) > LSI_TIMEOUT_VALUE)
 80020c0:	f7ff fc88 	bl	80019d4 <HAL_GetTick>
 80020c4:	4602      	mov	r2, r0
 80020c6:	693b      	ldr	r3, [r7, #16]
 80020c8:	1ad3      	subs	r3, r2, r3
 80020ca:	2b02      	cmp	r3, #2
 80020cc:	d901      	bls.n	80020d2 <HAL_RCC_OscConfig+0x212>
        {
          return HAL_TIMEOUT;
 80020ce:	2303      	movs	r3, #3
 80020d0:	e167      	b.n	80023a2 <HAL_RCC_OscConfig+0x4e2>
      while(__HAL_RCC_GET_FLAG(RCC_FLAG_LSIRDY) == RESET)
 80020d2:	4b0b      	ldr	r3, [pc, #44]	; (8002100 <HAL_RCC_OscConfig+0x240>)
 80020d4:	6f5b      	ldr	r3, [r3, #116]	; 0x74
 80020d6:	f003 0302 	and.w	r3, r3, #2
 80020da:	2b00      	cmp	r3, #0
 80020dc:	d0f0      	beq.n	80020c0 <HAL_RCC_OscConfig+0x200>
 80020de:	e01b      	b.n	8002118 <HAL_RCC_OscConfig+0x258>
      }
    }
    else
    {
      /* Disable the Internal Low Speed oscillator (LSI). */
      __HAL_RCC_LSI_DISABLE();
 80020e0:	4b09      	ldr	r3, [pc, #36]	; (8002108 <HAL_RCC_OscConfig+0x248>)
 80020e2:	2200      	movs	r2, #0
 80020e4:	601a      	str	r2, [r3, #0]

      /* Get Start Tick */
      tickstart = HAL_GetTick();
 80020e6:	f7ff fc75 	bl	80019d4 <HAL_GetTick>
 80020ea:	6138      	str	r0, [r7, #16]

      /* Wait till LSI is ready */
      while(__HAL_RCC_GET_FLAG(RCC_FLAG_LSIRDY) != RESET)
 80020ec:	e00e      	b.n	800210c <HAL_RCC_OscConfig+0x24c>
      {
        if((HAL_GetTick() - tickstart ) > LSI_TIMEOUT_VALUE)
 80020ee:	f7ff fc71 	bl	80019d4 <HAL_GetTick>
 80020f2:	4602      	mov	r2, r0
 80020f4:	693b      	ldr	r3, [r7, #16]
 80020f6:	1ad3      	subs	r3, r2, r3
 80020f8:	2b02      	cmp	r3, #2
 80020fa:	d907      	bls.n	800210c <HAL_RCC_OscConfig+0x24c>
        {
          return HAL_TIMEOUT;
 80020fc:	2303      	movs	r3, #3
 80020fe:	e150      	b.n	80023a2 <HAL_RCC_OscConfig+0x4e2>
 8002100:	40023800 	.word	0x40023800
 8002104:	42470000 	.word	0x42470000
 8002108:	42470e80 	.word	0x42470e80
      while(__HAL_RCC_GET_FLAG(RCC_FLAG_LSIRDY) != RESET)
 800210c:	4b88      	ldr	r3, [pc, #544]	; (8002330 <HAL_RCC_OscConfig+0x470>)
 800210e:	6f5b      	ldr	r3, [r3, #116]	; 0x74
 8002110:	f003 0302 	and.w	r3, r3, #2
 8002114:	2b00      	cmp	r3, #0
 8002116:	d1ea      	bne.n	80020ee <HAL_RCC_OscConfig+0x22e>
        }
      }
    }
  }
  /*------------------------------ LSE Configuration -------------------------*/
  if(((RCC_OscInitStruct->OscillatorType) & RCC_OSCILLATORTYPE_LSE) == RCC_OSCILLATORTYPE_LSE)
 8002118:	687b      	ldr	r3, [r7, #4]
 800211a:	681b      	ldr	r3, [r3, #0]
 800211c:	f003 0304 	and.w	r3, r3, #4
 8002120:	2b00      	cmp	r3, #0
 8002122:	f000 8097 	beq.w	8002254 <HAL_RCC_OscConfig+0x394>
  {
    FlagStatus       pwrclkchanged = RESET;
 8002126:	2300      	movs	r3, #0
 8002128:	75fb      	strb	r3, [r7, #23]
    /* Check the parameters */
    assert_param(IS_RCC_LSE(RCC_OscInitStruct->LSEState));

    /* Update LSE configuration in Backup Domain control register    */
    /* Requires to enable write access to Backup Domain of necessary */
    if(__HAL_RCC_PWR_IS_CLK_DISABLED())
 800212a:	4b81      	ldr	r3, [pc, #516]	; (8002330 <HAL_RCC_OscConfig+0x470>)
 800212c:	6c1b      	ldr	r3, [r3, #64]	; 0x40
 800212e:	f003 5380 	and.w	r3, r3, #268435456	; 0x10000000
 8002132:	2b00      	cmp	r3, #0
 8002134:	d10f      	bne.n	8002156 <HAL_RCC_OscConfig+0x296>
    {
      __HAL_RCC_PWR_CLK_ENABLE();
 8002136:	2300      	movs	r3, #0
 8002138:	60bb      	str	r3, [r7, #8]
 800213a:	4b7d      	ldr	r3, [pc, #500]	; (8002330 <HAL_RCC_OscConfig+0x470>)
 800213c:	6c1b      	ldr	r3, [r3, #64]	; 0x40
 800213e:	4a7c      	ldr	r2, [pc, #496]	; (8002330 <HAL_RCC_OscConfig+0x470>)
 8002140:	f043 5380 	orr.w	r3, r3, #268435456	; 0x10000000
 8002144:	6413      	str	r3, [r2, #64]	; 0x40
 8002146:	4b7a      	ldr	r3, [pc, #488]	; (8002330 <HAL_RCC_OscConfig+0x470>)
 8002148:	6c1b      	ldr	r3, [r3, #64]	; 0x40
 800214a:	f003 5380 	and.w	r3, r3, #268435456	; 0x10000000
 800214e:	60bb      	str	r3, [r7, #8]
 8002150:	68bb      	ldr	r3, [r7, #8]
      pwrclkchanged = SET;
 8002152:	2301      	movs	r3, #1
 8002154:	75fb      	strb	r3, [r7, #23]
    }

    if(HAL_IS_BIT_CLR(PWR->CR, PWR_CR_DBP))
 8002156:	4b77      	ldr	r3, [pc, #476]	; (8002334 <HAL_RCC_OscConfig+0x474>)
 8002158:	681b      	ldr	r3, [r3, #0]
 800215a:	f403 7380 	and.w	r3, r3, #256	; 0x100
 800215e:	2b00      	cmp	r3, #0
 8002160:	d118      	bne.n	8002194 <HAL_RCC_OscConfig+0x2d4>
    {
      /* Enable write access to Backup domain */
      SET_BIT(PWR->CR, PWR_CR_DBP);
 8002162:	4b74      	ldr	r3, [pc, #464]	; (8002334 <HAL_RCC_OscConfig+0x474>)
 8002164:	681b      	ldr	r3, [r3, #0]
 8002166:	4a73      	ldr	r2, [pc, #460]	; (8002334 <HAL_RCC_OscConfig+0x474>)
 8002168:	f443 7380 	orr.w	r3, r3, #256	; 0x100
 800216c:	6013      	str	r3, [r2, #0]

      /* Wait for Backup domain Write protection disable */
      tickstart = HAL_GetTick();
 800216e:	f7ff fc31 	bl	80019d4 <HAL_GetTick>
 8002172:	6138      	str	r0, [r7, #16]

      while(HAL_IS_BIT_CLR(PWR->CR, PWR_CR_DBP))
 8002174:	e008      	b.n	8002188 <HAL_RCC_OscConfig+0x2c8>
      {
        if((HAL_GetTick() - tickstart) > RCC_DBP_TIMEOUT_VALUE)
 8002176:	f7ff fc2d 	bl	80019d4 <HAL_GetTick>
 800217a:	4602      	mov	r2, r0
 800217c:	693b      	ldr	r3, [r7, #16]
 800217e:	1ad3      	subs	r3, r2, r3
 8002180:	2b02      	cmp	r3, #2
 8002182:	d901      	bls.n	8002188 <HAL_RCC_OscConfig+0x2c8>
        {
          return HAL_TIMEOUT;
 8002184:	2303      	movs	r3, #3
 8002186:	e10c      	b.n	80023a2 <HAL_RCC_OscConfig+0x4e2>
      while(HAL_IS_BIT_CLR(PWR->CR, PWR_CR_DBP))
 8002188:	4b6a      	ldr	r3, [pc, #424]	; (8002334 <HAL_RCC_OscConfig+0x474>)
 800218a:	681b      	ldr	r3, [r3, #0]
 800218c:	f403 7380 	and.w	r3, r3, #256	; 0x100
 8002190:	2b00      	cmp	r3, #0
 8002192:	d0f0      	beq.n	8002176 <HAL_RCC_OscConfig+0x2b6>
        }
      }
    }

    /* Set the new LSE configuration -----------------------------------------*/
    __HAL_RCC_LSE_CONFIG(RCC_OscInitStruct->LSEState);
 8002194:	687b      	ldr	r3, [r7, #4]
 8002196:	689b      	ldr	r3, [r3, #8]
 8002198:	2b01      	cmp	r3, #1
 800219a:	d106      	bne.n	80021aa <HAL_RCC_OscConfig+0x2ea>
 800219c:	4b64      	ldr	r3, [pc, #400]	; (8002330 <HAL_RCC_OscConfig+0x470>)
 800219e:	6f1b      	ldr	r3, [r3, #112]	; 0x70
 80021a0:	4a63      	ldr	r2, [pc, #396]	; (8002330 <HAL_RCC_OscConfig+0x470>)
 80021a2:	f043 0301 	orr.w	r3, r3, #1
 80021a6:	6713      	str	r3, [r2, #112]	; 0x70
 80021a8:	e01c      	b.n	80021e4 <HAL_RCC_OscConfig+0x324>
 80021aa:	687b      	ldr	r3, [r7, #4]
 80021ac:	689b      	ldr	r3, [r3, #8]
 80021ae:	2b05      	cmp	r3, #5
 80021b0:	d10c      	bne.n	80021cc <HAL_RCC_OscConfig+0x30c>
 80021b2:	4b5f      	ldr	r3, [pc, #380]	; (8002330 <HAL_RCC_OscConfig+0x470>)
 80021b4:	6f1b      	ldr	r3, [r3, #112]	; 0x70
 80021b6:	4a5e      	ldr	r2, [pc, #376]	; (8002330 <HAL_RCC_OscConfig+0x470>)
 80021b8:	f043 0304 	orr.w	r3, r3, #4
 80021bc:	6713      	str	r3, [r2, #112]	; 0x70
 80021be:	4b5c      	ldr	r3, [pc, #368]	; (8002330 <HAL_RCC_OscConfig+0x470>)
 80021c0:	6f1b      	ldr	r3, [r3, #112]	; 0x70
 80021c2:	4a5b      	ldr	r2, [pc, #364]	; (8002330 <HAL_RCC_OscConfig+0x470>)
 80021c4:	f043 0301 	orr.w	r3, r3, #1
 80021c8:	6713      	str	r3, [r2, #112]	; 0x70
 80021ca:	e00b      	b.n	80021e4 <HAL_RCC_OscConfig+0x324>
 80021cc:	4b58      	ldr	r3, [pc, #352]	; (8002330 <HAL_RCC_OscConfig+0x470>)
 80021ce:	6f1b      	ldr	r3, [r3, #112]	; 0x70
 80021d0:	4a57      	ldr	r2, [pc, #348]	; (8002330 <HAL_RCC_OscConfig+0x470>)
 80021d2:	f023 0301 	bic.w	r3, r3, #1
 80021d6:	6713      	str	r3, [r2, #112]	; 0x70
 80021d8:	4b55      	ldr	r3, [pc, #340]	; (8002330 <HAL_RCC_OscConfig+0x470>)
 80021da:	6f1b      	ldr	r3, [r3, #112]	; 0x70
 80021dc:	4a54      	ldr	r2, [pc, #336]	; (8002330 <HAL_RCC_OscConfig+0x470>)
 80021de:	f023 0304 	bic.w	r3, r3, #4
 80021e2:	6713      	str	r3, [r2, #112]	; 0x70
    /* Check the LSE State */
    if((RCC_OscInitStruct->LSEState) != RCC_LSE_OFF)
 80021e4:	687b      	ldr	r3, [r7, #4]
 80021e6:	689b      	ldr	r3, [r3, #8]
 80021e8:	2b00      	cmp	r3, #0
 80021ea:	d015      	beq.n	8002218 <HAL_RCC_OscConfig+0x358>
    {
      /* Get Start Tick*/
      tickstart = HAL_GetTick();
 80021ec:	f7ff fbf2 	bl	80019d4 <HAL_GetTick>
 80021f0:	6138      	str	r0, [r7, #16]

      /* Wait till LSE is ready */
      while(__HAL_RCC_GET_FLAG(RCC_FLAG_LSERDY) == RESET)
 80021f2:	e00a      	b.n	800220a <HAL_RCC_OscConfig+0x34a>
      {
        if((HAL_GetTick() - tickstart ) > RCC_LSE_TIMEOUT_VALUE)
 80021f4:	f7ff fbee 	bl	80019d4 <HAL_GetTick>
 80021f8:	4602      	mov	r2, r0
 80021fa:	693b      	ldr	r3, [r7, #16]
 80021fc:	1ad3      	subs	r3, r2, r3
 80021fe:	f241 3288 	movw	r2, #5000	; 0x1388
 8002202:	4293      	cmp	r3, r2
 8002204:	d901      	bls.n	800220a <HAL_RCC_OscConfig+0x34a>
        {
          return HAL_TIMEOUT;
 8002206:	2303      	movs	r3, #3
 8002208:	e0cb      	b.n	80023a2 <HAL_RCC_OscConfig+0x4e2>
      while(__HAL_RCC_GET_FLAG(RCC_FLAG_LSERDY) == RESET)
 800220a:	4b49      	ldr	r3, [pc, #292]	; (8002330 <HAL_RCC_OscConfig+0x470>)
 800220c:	6f1b      	ldr	r3, [r3, #112]	; 0x70
 800220e:	f003 0302 	and.w	r3, r3, #2
 8002212:	2b00      	cmp	r3, #0
 8002214:	d0ee      	beq.n	80021f4 <HAL_RCC_OscConfig+0x334>
 8002216:	e014      	b.n	8002242 <HAL_RCC_OscConfig+0x382>
      }
    }
    else
    {
      /* Get Start Tick */
      tickstart = HAL_GetTick();
 8002218:	f7ff fbdc 	bl	80019d4 <HAL_GetTick>
 800221c:	6138      	str	r0, [r7, #16]

      /* Wait till LSE is ready */
      while(__HAL_RCC_GET_FLAG(RCC_FLAG_LSERDY) != RESET)
 800221e:	e00a      	b.n	8002236 <HAL_RCC_OscConfig+0x376>
      {
        if((HAL_GetTick() - tickstart ) > RCC_LSE_TIMEOUT_VALUE)
 8002220:	f7ff fbd8 	bl	80019d4 <HAL_GetTick>
 8002224:	4602      	mov	r2, r0
 8002226:	693b      	ldr	r3, [r7, #16]
 8002228:	1ad3      	subs	r3, r2, r3
 800222a:	f241 3288 	movw	r2, #5000	; 0x1388
 800222e:	4293      	cmp	r3, r2
 8002230:	d901      	bls.n	8002236 <HAL_RCC_OscConfig+0x376>
        {
          return HAL_TIMEOUT;
 8002232:	2303      	movs	r3, #3
 8002234:	e0b5      	b.n	80023a2 <HAL_RCC_OscConfig+0x4e2>
      while(__HAL_RCC_GET_FLAG(RCC_FLAG_LSERDY) != RESET)
 8002236:	4b3e      	ldr	r3, [pc, #248]	; (8002330 <HAL_RCC_OscConfig+0x470>)
 8002238:	6f1b      	ldr	r3, [r3, #112]	; 0x70
 800223a:	f003 0302 	and.w	r3, r3, #2
 800223e:	2b00      	cmp	r3, #0
 8002240:	d1ee      	bne.n	8002220 <HAL_RCC_OscConfig+0x360>
        }
      }
    }

    /* Restore clock configuration if changed */
    if(pwrclkchanged == SET)
 8002242:	7dfb      	ldrb	r3, [r7, #23]
 8002244:	2b01      	cmp	r3, #1
 8002246:	d105      	bne.n	8002254 <HAL_RCC_OscConfig+0x394>
    {
      __HAL_RCC_PWR_CLK_DISABLE();
 8002248:	4b39      	ldr	r3, [pc, #228]	; (8002330 <HAL_RCC_OscConfig+0x470>)
 800224a:	6c1b      	ldr	r3, [r3, #64]	; 0x40
 800224c:	4a38      	ldr	r2, [pc, #224]	; (8002330 <HAL_RCC_OscConfig+0x470>)
 800224e:	f023 5380 	bic.w	r3, r3, #268435456	; 0x10000000
 8002252:	6413      	str	r3, [r2, #64]	; 0x40
    }
  }
  /*-------------------------------- PLL Configuration -----------------------*/
  /* Check the parameters */
  assert_param(IS_RCC_PLL(RCC_OscInitStruct->PLL.PLLState));
  if ((RCC_OscInitStruct->PLL.PLLState) != RCC_PLL_NONE)
 8002254:	687b      	ldr	r3, [r7, #4]
 8002256:	699b      	ldr	r3, [r3, #24]
 8002258:	2b00      	cmp	r3, #0
 800225a:	f000 80a1 	beq.w	80023a0 <HAL_RCC_OscConfig+0x4e0>
  {
    /* Check if the PLL is used as system clock or not */
    if(__HAL_RCC_GET_SYSCLK_SOURCE() != RCC_CFGR_SWS_PLL)
 800225e:	4b34      	ldr	r3, [pc, #208]	; (8002330 <HAL_RCC_OscConfig+0x470>)
 8002260:	689b      	ldr	r3, [r3, #8]
 8002262:	f003 030c 	and.w	r3, r3, #12
 8002266:	2b08      	cmp	r3, #8
 8002268:	d05c      	beq.n	8002324 <HAL_RCC_OscConfig+0x464>
    {
      if((RCC_OscInitStruct->PLL.PLLState) == RCC_PLL_ON)
 800226a:	687b      	ldr	r3, [r7, #4]
 800226c:	699b      	ldr	r3, [r3, #24]
 800226e:	2b02      	cmp	r3, #2
 8002270:	d141      	bne.n	80022f6 <HAL_RCC_OscConfig+0x436>
        assert_param(IS_RCC_PLLN_VALUE(RCC_OscInitStruct->PLL.PLLN));
        assert_param(IS_RCC_PLLP_VALUE(RCC_OscInitStruct->PLL.PLLP));
        assert_param(IS_RCC_PLLQ_VALUE(RCC_OscInitStruct->PLL.PLLQ));

        /* Disable the main PLL. */
        __HAL_RCC_PLL_DISABLE();
 8002272:	4b31      	ldr	r3, [pc, #196]	; (8002338 <HAL_RCC_OscConfig+0x478>)
 8002274:	2200      	movs	r2, #0
 8002276:	601a      	str	r2, [r3, #0]

        /* Get Start Tick */
        tickstart = HAL_GetTick();
 8002278:	f7ff fbac 	bl	80019d4 <HAL_GetTick>
 800227c:	6138      	str	r0, [r7, #16]

        /* Wait till PLL is ready */
        while(__HAL_RCC_GET_FLAG(RCC_FLAG_PLLRDY) != RESET)
 800227e:	e008      	b.n	8002292 <HAL_RCC_OscConfig+0x3d2>
        {
          if((HAL_GetTick() - tickstart ) > PLL_TIMEOUT_VALUE)
 8002280:	f7ff fba8 	bl	80019d4 <HAL_GetTick>
 8002284:	4602      	mov	r2, r0
 8002286:	693b      	ldr	r3, [r7, #16]
 8002288:	1ad3      	subs	r3, r2, r3
 800228a:	2b02      	cmp	r3, #2
 800228c:	d901      	bls.n	8002292 <HAL_RCC_OscConfig+0x3d2>
          {
            return HAL_TIMEOUT;
 800228e:	2303      	movs	r3, #3
 8002290:	e087      	b.n	80023a2 <HAL_RCC_OscConfig+0x4e2>
        while(__HAL_RCC_GET_FLAG(RCC_FLAG_PLLRDY) != RESET)
 8002292:	4b27      	ldr	r3, [pc, #156]	; (8002330 <HAL_RCC_OscConfig+0x470>)
 8002294:	681b      	ldr	r3, [r3, #0]
 8002296:	f003 7300 	and.w	r3, r3, #33554432	; 0x2000000
 800229a:	2b00      	cmp	r3, #0
 800229c:	d1f0      	bne.n	8002280 <HAL_RCC_OscConfig+0x3c0>
          }
        }

        /* Configure the main PLL clock source, multiplication and division factors. */
        WRITE_REG(RCC->PLLCFGR, (RCC_OscInitStruct->PLL.PLLSource                                            | \
 800229e:	687b      	ldr	r3, [r7, #4]
 80022a0:	69da      	ldr	r2, [r3, #28]
 80022a2:	687b      	ldr	r3, [r7, #4]
 80022a4:	6a1b      	ldr	r3, [r3, #32]
 80022a6:	431a      	orrs	r2, r3
 80022a8:	687b      	ldr	r3, [r7, #4]
 80022aa:	6a5b      	ldr	r3, [r3, #36]	; 0x24
 80022ac:	019b      	lsls	r3, r3, #6
 80022ae:	431a      	orrs	r2, r3
 80022b0:	687b      	ldr	r3, [r7, #4]
 80022b2:	6a9b      	ldr	r3, [r3, #40]	; 0x28
 80022b4:	085b      	lsrs	r3, r3, #1
 80022b6:	3b01      	subs	r3, #1
 80022b8:	041b      	lsls	r3, r3, #16
 80022ba:	431a      	orrs	r2, r3
 80022bc:	687b      	ldr	r3, [r7, #4]
 80022be:	6adb      	ldr	r3, [r3, #44]	; 0x2c
 80022c0:	061b      	lsls	r3, r3, #24
 80022c2:	491b      	ldr	r1, [pc, #108]	; (8002330 <HAL_RCC_OscConfig+0x470>)
 80022c4:	4313      	orrs	r3, r2
 80022c6:	604b      	str	r3, [r1, #4]
                                 RCC_OscInitStruct->PLL.PLLM                                                 | \
                                 (RCC_OscInitStruct->PLL.PLLN << RCC_PLLCFGR_PLLN_Pos)             | \
                                 (((RCC_OscInitStruct->PLL.PLLP >> 1U) - 1U) << RCC_PLLCFGR_PLLP_Pos) | \
                                 (RCC_OscInitStruct->PLL.PLLQ << RCC_PLLCFGR_PLLQ_Pos)));
        /* Enable the main PLL. */
        __HAL_RCC_PLL_ENABLE();
 80022c8:	4b1b      	ldr	r3, [pc, #108]	; (8002338 <HAL_RCC_OscConfig+0x478>)
 80022ca:	2201      	movs	r2, #1
 80022cc:	601a      	str	r2, [r3, #0]

        /* Get Start Tick */
        tickstart = HAL_GetTick();
 80022ce:	f7ff fb81 	bl	80019d4 <HAL_GetTick>
 80022d2:	6138      	str	r0, [r7, #16]

        /* Wait till PLL is ready */
        while(__HAL_RCC_GET_FLAG(RCC_FLAG_PLLRDY) == RESET)
 80022d4:	e008      	b.n	80022e8 <HAL_RCC_OscConfig+0x428>
        {
          if((HAL_GetTick() - tickstart ) > PLL_TIMEOUT_VALUE)
 80022d6:	f7ff fb7d 	bl	80019d4 <HAL_GetTick>
 80022da:	4602      	mov	r2, r0
 80022dc:	693b      	ldr	r3, [r7, #16]
 80022de:	1ad3      	subs	r3, r2, r3
 80022e0:	2b02      	cmp	r3, #2
 80022e2:	d901      	bls.n	80022e8 <HAL_RCC_OscConfig+0x428>
          {
            return HAL_TIMEOUT;
 80022e4:	2303      	movs	r3, #3
 80022e6:	e05c      	b.n	80023a2 <HAL_RCC_OscConfig+0x4e2>
        while(__HAL_RCC_GET_FLAG(RCC_FLAG_PLLRDY) == RESET)
 80022e8:	4b11      	ldr	r3, [pc, #68]	; (8002330 <HAL_RCC_OscConfig+0x470>)
 80022ea:	681b      	ldr	r3, [r3, #0]
 80022ec:	f003 7300 	and.w	r3, r3, #33554432	; 0x2000000
 80022f0:	2b00      	cmp	r3, #0
 80022f2:	d0f0      	beq.n	80022d6 <HAL_RCC_OscConfig+0x416>
 80022f4:	e054      	b.n	80023a0 <HAL_RCC_OscConfig+0x4e0>
        }
      }
      else
      {
        /* Disable the main PLL. */
        __HAL_RCC_PLL_DISABLE();
 80022f6:	4b10      	ldr	r3, [pc, #64]	; (8002338 <HAL_RCC_OscConfig+0x478>)
 80022f8:	2200      	movs	r2, #0
 80022fa:	601a      	str	r2, [r3, #0]

        /* Get Start Tick */
        tickstart = HAL_GetTick();
 80022fc:	f7ff fb6a 	bl	80019d4 <HAL_GetTick>
 8002300:	6138      	str	r0, [r7, #16]

        /* Wait till PLL is ready */
        while(__HAL_RCC_GET_FLAG(RCC_FLAG_PLLRDY) != RESET)
 8002302:	e008      	b.n	8002316 <HAL_RCC_OscConfig+0x456>
        {
          if((HAL_GetTick() - tickstart ) > PLL_TIMEOUT_VALUE)
 8002304:	f7ff fb66 	bl	80019d4 <HAL_GetTick>
 8002308:	4602      	mov	r2, r0
 800230a:	693b      	ldr	r3, [r7, #16]
 800230c:	1ad3      	subs	r3, r2, r3
 800230e:	2b02      	cmp	r3, #2
 8002310:	d901      	bls.n	8002316 <HAL_RCC_OscConfig+0x456>
          {
            return HAL_TIMEOUT;
 8002312:	2303      	movs	r3, #3
 8002314:	e045      	b.n	80023a2 <HAL_RCC_OscConfig+0x4e2>
        while(__HAL_RCC_GET_FLAG(RCC_FLAG_PLLRDY) != RESET)
 8002316:	4b06      	ldr	r3, [pc, #24]	; (8002330 <HAL_RCC_OscConfig+0x470>)
 8002318:	681b      	ldr	r3, [r3, #0]
 800231a:	f003 7300 	and.w	r3, r3, #33554432	; 0x2000000
 800231e:	2b00      	cmp	r3, #0
 8002320:	d1f0      	bne.n	8002304 <HAL_RCC_OscConfig+0x444>
 8002322:	e03d      	b.n	80023a0 <HAL_RCC_OscConfig+0x4e0>
      }
    }
    else
    {
      /* Check if there is a request to disable the PLL used as System clock source */
      if((RCC_OscInitStruct->PLL.PLLState) == RCC_PLL_OFF)
 8002324:	687b      	ldr	r3, [r7, #4]
 8002326:	699b      	ldr	r3, [r3, #24]
 8002328:	2b01      	cmp	r3, #1
 800232a:	d107      	bne.n	800233c <HAL_RCC_OscConfig+0x47c>
      {
        return HAL_ERROR;
 800232c:	2301      	movs	r3, #1
 800232e:	e038      	b.n	80023a2 <HAL_RCC_OscConfig+0x4e2>
 8002330:	40023800 	.word	0x40023800
 8002334:	40007000 	.word	0x40007000
 8002338:	42470060 	.word	0x42470060
      }
      else
      {
        /* Do not return HAL_ERROR if request repeats the current configuration */
        pll_config = RCC->PLLCFGR;
 800233c:	4b1b      	ldr	r3, [pc, #108]	; (80023ac <HAL_RCC_OscConfig+0x4ec>)
 800233e:	685b      	ldr	r3, [r3, #4]
 8002340:	60fb      	str	r3, [r7, #12]
            (READ_BIT(pll_config, RCC_PLLCFGR_PLLN) != (RCC_OscInitStruct->PLL.PLLN) << RCC_PLLCFGR_PLLN_Pos) ||
            (READ_BIT(pll_config, RCC_PLLCFGR_PLLP) != (((RCC_OscInitStruct->PLL.PLLP >> 1U) - 1U)) << RCC_PLLCFGR_PLLP_Pos) ||
            (READ_BIT(pll_config, RCC_PLLCFGR_PLLQ) != (RCC_OscInitStruct->PLL.PLLQ << RCC_PLLCFGR_PLLQ_Pos)) ||
            (READ_BIT(pll_config, RCC_PLLCFGR_PLLR) != (RCC_OscInitStruct->PLL.PLLR << RCC_PLLCFGR_PLLR_Pos)))
#else
        if (((RCC_OscInitStruct->PLL.PLLState) == RCC_PLL_OFF) ||
 8002342:	687b      	ldr	r3, [r7, #4]
 8002344:	699b      	ldr	r3, [r3, #24]
 8002346:	2b01      	cmp	r3, #1
 8002348:	d028      	beq.n	800239c <HAL_RCC_OscConfig+0x4dc>
            (READ_BIT(pll_config, RCC_PLLCFGR_PLLSRC) != RCC_OscInitStruct->PLL.PLLSource) ||
 800234a:	68fb      	ldr	r3, [r7, #12]
 800234c:	f403 0280 	and.w	r2, r3, #4194304	; 0x400000
 8002350:	687b      	ldr	r3, [r7, #4]
 8002352:	69db      	ldr	r3, [r3, #28]
        if (((RCC_OscInitStruct->PLL.PLLState) == RCC_PLL_OFF) ||
 8002354:	429a      	cmp	r2, r3
 8002356:	d121      	bne.n	800239c <HAL_RCC_OscConfig+0x4dc>
            (READ_BIT(pll_config, RCC_PLLCFGR_PLLM) != (RCC_OscInitStruct->PLL.PLLM) << RCC_PLLCFGR_PLLM_Pos) ||
 8002358:	68fb      	ldr	r3, [r7, #12]
 800235a:	f003 023f 	and.w	r2, r3, #63	; 0x3f
 800235e:	687b      	ldr	r3, [r7, #4]
 8002360:	6a1b      	ldr	r3, [r3, #32]
            (READ_BIT(pll_config, RCC_PLLCFGR_PLLSRC) != RCC_OscInitStruct->PLL.PLLSource) ||
 8002362:	429a      	cmp	r2, r3
 8002364:	d11a      	bne.n	800239c <HAL_RCC_OscConfig+0x4dc>
            (READ_BIT(pll_config, RCC_PLLCFGR_PLLN) != (RCC_OscInitStruct->PLL.PLLN) << RCC_PLLCFGR_PLLN_Pos) ||
 8002366:	68fa      	ldr	r2, [r7, #12]
 8002368:	f647 73c0 	movw	r3, #32704	; 0x7fc0
 800236c:	4013      	ands	r3, r2
 800236e:	687a      	ldr	r2, [r7, #4]
 8002370:	6a52      	ldr	r2, [r2, #36]	; 0x24
 8002372:	0192      	lsls	r2, r2, #6
            (READ_BIT(pll_config, RCC_PLLCFGR_PLLM) != (RCC_OscInitStruct->PLL.PLLM) << RCC_PLLCFGR_PLLM_Pos) ||
 8002374:	4293      	cmp	r3, r2
 8002376:	d111      	bne.n	800239c <HAL_RCC_OscConfig+0x4dc>
            (READ_BIT(pll_config, RCC_PLLCFGR_PLLP) != (((RCC_OscInitStruct->PLL.PLLP >> 1U) - 1U)) << RCC_PLLCFGR_PLLP_Pos) ||
 8002378:	68fb      	ldr	r3, [r7, #12]
 800237a:	f403 3240 	and.w	r2, r3, #196608	; 0x30000
 800237e:	687b      	ldr	r3, [r7, #4]
 8002380:	6a9b      	ldr	r3, [r3, #40]	; 0x28
 8002382:	085b      	lsrs	r3, r3, #1
 8002384:	3b01      	subs	r3, #1
 8002386:	041b      	lsls	r3, r3, #16
            (READ_BIT(pll_config, RCC_PLLCFGR_PLLN) != (RCC_OscInitStruct->PLL.PLLN) << RCC_PLLCFGR_PLLN_Pos) ||
 8002388:	429a      	cmp	r2, r3
 800238a:	d107      	bne.n	800239c <HAL_RCC_OscConfig+0x4dc>
            (READ_BIT(pll_config, RCC_PLLCFGR_PLLQ) != (RCC_OscInitStruct->PLL.PLLQ << RCC_PLLCFGR_PLLQ_Pos)))
 800238c:	68fb      	ldr	r3, [r7, #12]
 800238e:	f003 6270 	and.w	r2, r3, #251658240	; 0xf000000
 8002392:	687b      	ldr	r3, [r7, #4]
 8002394:	6adb      	ldr	r3, [r3, #44]	; 0x2c
 8002396:	061b      	lsls	r3, r3, #24
            (READ_BIT(pll_config, RCC_PLLCFGR_PLLP) != (((RCC_OscInitStruct->PLL.PLLP >> 1U) - 1U)) << RCC_PLLCFGR_PLLP_Pos) ||
 8002398:	429a      	cmp	r2, r3
 800239a:	d001      	beq.n	80023a0 <HAL_RCC_OscConfig+0x4e0>
#endif
        {
          return HAL_ERROR;
 800239c:	2301      	movs	r3, #1
 800239e:	e000      	b.n	80023a2 <HAL_RCC_OscConfig+0x4e2>
        }
      }
    }
  }
  return HAL_OK;
 80023a0:	2300      	movs	r3, #0
}
 80023a2:	4618      	mov	r0, r3
 80023a4:	3718      	adds	r7, #24
 80023a6:	46bd      	mov	sp, r7
 80023a8:	bd80      	pop	{r7, pc}
 80023aa:	bf00      	nop
 80023ac:	40023800 	.word	0x40023800

080023b0 <HAL_RCC_ClockConfig>:
  *         HPRE[3:0] bits to ensure that HCLK not exceed the maximum allowed frequency
  *         (for more details refer to section above "Initialization/de-initialization functions")
  * @retval None
  */
HAL_StatusTypeDef HAL_RCC_ClockConfig(RCC_ClkInitTypeDef  *RCC_ClkInitStruct, uint32_t FLatency)
{
 80023b0:	b580      	push	{r7, lr}
 80023b2:	b084      	sub	sp, #16
 80023b4:	af00      	add	r7, sp, #0
 80023b6:	6078      	str	r0, [r7, #4]
 80023b8:	6039      	str	r1, [r7, #0]
  uint32_t tickstart;

  /* Check Null pointer */
  if(RCC_ClkInitStruct == NULL)
 80023ba:	687b      	ldr	r3, [r7, #4]
 80023bc:	2b00      	cmp	r3, #0
 80023be:	d101      	bne.n	80023c4 <HAL_RCC_ClockConfig+0x14>
  {
    return HAL_ERROR;
 80023c0:	2301      	movs	r3, #1
 80023c2:	e0cc      	b.n	800255e <HAL_RCC_ClockConfig+0x1ae>
  /* To correctly read data from FLASH memory, the number of wait states (LATENCY)
    must be correctly programmed according to the frequency of the CPU clock
    (HCLK) and the supply voltage of the device. */

  /* Increasing the number of wait states because of higher CPU frequency */
  if(FLatency > __HAL_FLASH_GET_LATENCY())
 80023c4:	4b68      	ldr	r3, [pc, #416]	; (8002568 <HAL_RCC_ClockConfig+0x1b8>)
 80023c6:	681b      	ldr	r3, [r3, #0]
 80023c8:	f003 0307 	and.w	r3, r3, #7
 80023cc:	683a      	ldr	r2, [r7, #0]
 80023ce:	429a      	cmp	r2, r3
 80023d0:	d90c      	bls.n	80023ec <HAL_RCC_ClockConfig+0x3c>
  {
    /* Program the new number of wait states to the LATENCY bits in the FLASH_ACR register */
    __HAL_FLASH_SET_LATENCY(FLatency);
 80023d2:	4b65      	ldr	r3, [pc, #404]	; (8002568 <HAL_RCC_ClockConfig+0x1b8>)
 80023d4:	683a      	ldr	r2, [r7, #0]
 80023d6:	b2d2      	uxtb	r2, r2
 80023d8:	701a      	strb	r2, [r3, #0]

    /* Check that the new number of wait states is taken into account to access the Flash
    memory by reading the FLASH_ACR register */
    if(__HAL_FLASH_GET_LATENCY() != FLatency)
 80023da:	4b63      	ldr	r3, [pc, #396]	; (8002568 <HAL_RCC_ClockConfig+0x1b8>)
 80023dc:	681b      	ldr	r3, [r3, #0]
 80023de:	f003 0307 	and.w	r3, r3, #7
 80023e2:	683a      	ldr	r2, [r7, #0]
 80023e4:	429a      	cmp	r2, r3
 80023e6:	d001      	beq.n	80023ec <HAL_RCC_ClockConfig+0x3c>
    {
      return HAL_ERROR;
 80023e8:	2301      	movs	r3, #1
 80023ea:	e0b8      	b.n	800255e <HAL_RCC_ClockConfig+0x1ae>
    }
  }

  /*-------------------------- HCLK Configuration --------------------------*/
  if(((RCC_ClkInitStruct->ClockType) & RCC_CLOCKTYPE_HCLK) == RCC_CLOCKTYPE_HCLK)
 80023ec:	687b      	ldr	r3, [r7, #4]
 80023ee:	681b      	ldr	r3, [r3, #0]
 80023f0:	f003 0302 	and.w	r3, r3, #2
 80023f4:	2b00      	cmp	r3, #0
 80023f6:	d020      	beq.n	800243a <HAL_RCC_ClockConfig+0x8a>
  {
    /* Set the highest APBx dividers in order to ensure that we do not go through
       a non-spec phase whatever we decrease or increase HCLK. */
    if(((RCC_ClkInitStruct->ClockType) & RCC_CLOCKTYPE_PCLK1) == RCC_CLOCKTYPE_PCLK1)
 80023f8:	687b      	ldr	r3, [r7, #4]
 80023fa:	681b      	ldr	r3, [r3, #0]
 80023fc:	f003 0304 	and.w	r3, r3, #4
 8002400:	2b00      	cmp	r3, #0
 8002402:	d005      	beq.n	8002410 <HAL_RCC_ClockConfig+0x60>
    {
      MODIFY_REG(RCC->CFGR, RCC_CFGR_PPRE1, RCC_HCLK_DIV16);
 8002404:	4b59      	ldr	r3, [pc, #356]	; (800256c <HAL_RCC_ClockConfig+0x1bc>)
 8002406:	689b      	ldr	r3, [r3, #8]
 8002408:	4a58      	ldr	r2, [pc, #352]	; (800256c <HAL_RCC_ClockConfig+0x1bc>)
 800240a:	f443 53e0 	orr.w	r3, r3, #7168	; 0x1c00
 800240e:	6093      	str	r3, [r2, #8]
    }

    if(((RCC_ClkInitStruct->ClockType) & RCC_CLOCKTYPE_PCLK2) == RCC_CLOCKTYPE_PCLK2)
 8002410:	687b      	ldr	r3, [r7, #4]
 8002412:	681b      	ldr	r3, [r3, #0]
 8002414:	f003 0308 	and.w	r3, r3, #8
 8002418:	2b00      	cmp	r3, #0
 800241a:	d005      	beq.n	8002428 <HAL_RCC_ClockConfig+0x78>
    {
      MODIFY_REG(RCC->CFGR, RCC_CFGR_PPRE2, (RCC_HCLK_DIV16 << 3));
 800241c:	4b53      	ldr	r3, [pc, #332]	; (800256c <HAL_RCC_ClockConfig+0x1bc>)
 800241e:	689b      	ldr	r3, [r3, #8]
 8002420:	4a52      	ldr	r2, [pc, #328]	; (800256c <HAL_RCC_ClockConfig+0x1bc>)
 8002422:	f443 4360 	orr.w	r3, r3, #57344	; 0xe000
 8002426:	6093      	str	r3, [r2, #8]
    }

    assert_param(IS_RCC_HCLK(RCC_ClkInitStruct->AHBCLKDivider));
    MODIFY_REG(RCC->CFGR, RCC_CFGR_HPRE, RCC_ClkInitStruct->AHBCLKDivider);
 8002428:	4b50      	ldr	r3, [pc, #320]	; (800256c <HAL_RCC_ClockConfig+0x1bc>)
 800242a:	689b      	ldr	r3, [r3, #8]
 800242c:	f023 02f0 	bic.w	r2, r3, #240	; 0xf0
 8002430:	687b      	ldr	r3, [r7, #4]
 8002432:	689b      	ldr	r3, [r3, #8]
 8002434:	494d      	ldr	r1, [pc, #308]	; (800256c <HAL_RCC_ClockConfig+0x1bc>)
 8002436:	4313      	orrs	r3, r2
 8002438:	608b      	str	r3, [r1, #8]
  }

  /*------------------------- SYSCLK Configuration ---------------------------*/
  if(((RCC_ClkInitStruct->ClockType) & RCC_CLOCKTYPE_SYSCLK) == RCC_CLOCKTYPE_SYSCLK)
 800243a:	687b      	ldr	r3, [r7, #4]
 800243c:	681b      	ldr	r3, [r3, #0]
 800243e:	f003 0301 	and.w	r3, r3, #1
 8002442:	2b00      	cmp	r3, #0
 8002444:	d044      	beq.n	80024d0 <HAL_RCC_ClockConfig+0x120>
  {
    assert_param(IS_RCC_SYSCLKSOURCE(RCC_ClkInitStruct->SYSCLKSource));

    /* HSE is selected as System Clock Source */
    if(RCC_ClkInitStruct->SYSCLKSource == RCC_SYSCLKSOURCE_HSE)
 8002446:	687b      	ldr	r3, [r7, #4]
 8002448:	685b      	ldr	r3, [r3, #4]
 800244a:	2b01      	cmp	r3, #1
 800244c:	d107      	bne.n	800245e <HAL_RCC_ClockConfig+0xae>
    {
      /* Check the HSE ready flag */
      if(__HAL_RCC_GET_FLAG(RCC_FLAG_HSERDY) == RESET)
 800244e:	4b47      	ldr	r3, [pc, #284]	; (800256c <HAL_RCC_ClockConfig+0x1bc>)
 8002450:	681b      	ldr	r3, [r3, #0]
 8002452:	f403 3300 	and.w	r3, r3, #131072	; 0x20000
 8002456:	2b00      	cmp	r3, #0
 8002458:	d119      	bne.n	800248e <HAL_RCC_ClockConfig+0xde>
      {
        return HAL_ERROR;
 800245a:	2301      	movs	r3, #1
 800245c:	e07f      	b.n	800255e <HAL_RCC_ClockConfig+0x1ae>
      }
    }
    /* PLL is selected as System Clock Source */
    else if((RCC_ClkInitStruct->SYSCLKSource == RCC_SYSCLKSOURCE_PLLCLK)   ||
 800245e:	687b      	ldr	r3, [r7, #4]
 8002460:	685b      	ldr	r3, [r3, #4]
 8002462:	2b02      	cmp	r3, #2
 8002464:	d003      	beq.n	800246e <HAL_RCC_ClockConfig+0xbe>
            (RCC_ClkInitStruct->SYSCLKSource == RCC_SYSCLKSOURCE_PLLRCLK))
 8002466:	687b      	ldr	r3, [r7, #4]
 8002468:	685b      	ldr	r3, [r3, #4]
    else if((RCC_ClkInitStruct->SYSCLKSource == RCC_SYSCLKSOURCE_PLLCLK)   ||
 800246a:	2b03      	cmp	r3, #3
 800246c:	d107      	bne.n	800247e <HAL_RCC_ClockConfig+0xce>
    {
      /* Check the PLL ready flag */
      if(__HAL_RCC_GET_FLAG(RCC_FLAG_PLLRDY) == RESET)
 800246e:	4b3f      	ldr	r3, [pc, #252]	; (800256c <HAL_RCC_ClockConfig+0x1bc>)
 8002470:	681b      	ldr	r3, [r3, #0]
 8002472:	f003 7300 	and.w	r3, r3, #33554432	; 0x2000000
 8002476:	2b00      	cmp	r3, #0
 8002478:	d109      	bne.n	800248e <HAL_RCC_ClockConfig+0xde>
      {
        return HAL_ERROR;
 800247a:	2301      	movs	r3, #1
 800247c:	e06f      	b.n	800255e <HAL_RCC_ClockConfig+0x1ae>
    }
    /* HSI is selected as System Clock Source */
    else
    {
      /* Check the HSI ready flag */
      if(__HAL_RCC_GET_FLAG(RCC_FLAG_HSIRDY) == RESET)
 800247e:	4b3b      	ldr	r3, [pc, #236]	; (800256c <HAL_RCC_ClockConfig+0x1bc>)
 8002480:	681b      	ldr	r3, [r3, #0]
 8002482:	f003 0302 	and.w	r3, r3, #2
 8002486:	2b00      	cmp	r3, #0
 8002488:	d101      	bne.n	800248e <HAL_RCC_ClockConfig+0xde>
      {
        return HAL_ERROR;
 800248a:	2301      	movs	r3, #1
 800248c:	e067      	b.n	800255e <HAL_RCC_ClockConfig+0x1ae>
      }
    }

    __HAL_RCC_SYSCLK_CONFIG(RCC_ClkInitStruct->SYSCLKSource);
 800248e:	4b37      	ldr	r3, [pc, #220]	; (800256c <HAL_RCC_ClockConfig+0x1bc>)
 8002490:	689b      	ldr	r3, [r3, #8]
 8002492:	f023 0203 	bic.w	r2, r3, #3
 8002496:	687b      	ldr	r3, [r7, #4]
 8002498:	685b      	ldr	r3, [r3, #4]
 800249a:	4934      	ldr	r1, [pc, #208]	; (800256c <HAL_RCC_ClockConfig+0x1bc>)
 800249c:	4313      	orrs	r3, r2
 800249e:	608b      	str	r3, [r1, #8]

    /* Get Start Tick */
    tickstart = HAL_GetTick();
 80024a0:	f7ff fa98 	bl	80019d4 <HAL_GetTick>
 80024a4:	60f8      	str	r0, [r7, #12]

    while (__HAL_RCC_GET_SYSCLK_SOURCE() != (RCC_ClkInitStruct->SYSCLKSource << RCC_CFGR_SWS_Pos))
 80024a6:	e00a      	b.n	80024be <HAL_RCC_ClockConfig+0x10e>
    {
      if ((HAL_GetTick() - tickstart) > CLOCKSWITCH_TIMEOUT_VALUE)
 80024a8:	f7ff fa94 	bl	80019d4 <HAL_GetTick>
 80024ac:	4602      	mov	r2, r0
 80024ae:	68fb      	ldr	r3, [r7, #12]
 80024b0:	1ad3      	subs	r3, r2, r3
 80024b2:	f241 3288 	movw	r2, #5000	; 0x1388
 80024b6:	4293      	cmp	r3, r2
 80024b8:	d901      	bls.n	80024be <HAL_RCC_ClockConfig+0x10e>
      {
        return HAL_TIMEOUT;
 80024ba:	2303      	movs	r3, #3
 80024bc:	e04f      	b.n	800255e <HAL_RCC_ClockConfig+0x1ae>
    while (__HAL_RCC_GET_SYSCLK_SOURCE() != (RCC_ClkInitStruct->SYSCLKSource << RCC_CFGR_SWS_Pos))
 80024be:	4b2b      	ldr	r3, [pc, #172]	; (800256c <HAL_RCC_ClockConfig+0x1bc>)
 80024c0:	689b      	ldr	r3, [r3, #8]
 80024c2:	f003 020c 	and.w	r2, r3, #12
 80024c6:	687b      	ldr	r3, [r7, #4]
 80024c8:	685b      	ldr	r3, [r3, #4]
 80024ca:	009b      	lsls	r3, r3, #2
 80024cc:	429a      	cmp	r2, r3
 80024ce:	d1eb      	bne.n	80024a8 <HAL_RCC_ClockConfig+0xf8>
      }
    }
  }

  /* Decreasing the number of wait states because of lower CPU frequency */
  if(FLatency < __HAL_FLASH_GET_LATENCY())
 80024d0:	4b25      	ldr	r3, [pc, #148]	; (8002568 <HAL_RCC_ClockConfig+0x1b8>)
 80024d2:	681b      	ldr	r3, [r3, #0]
 80024d4:	f003 0307 	and.w	r3, r3, #7
 80024d8:	683a      	ldr	r2, [r7, #0]
 80024da:	429a      	cmp	r2, r3
 80024dc:	d20c      	bcs.n	80024f8 <HAL_RCC_ClockConfig+0x148>
  {
     /* Program the new number of wait states to the LATENCY bits in the FLASH_ACR register */
    __HAL_FLASH_SET_LATENCY(FLatency);
 80024de:	4b22      	ldr	r3, [pc, #136]	; (8002568 <HAL_RCC_ClockConfig+0x1b8>)
 80024e0:	683a      	ldr	r2, [r7, #0]
 80024e2:	b2d2      	uxtb	r2, r2
 80024e4:	701a      	strb	r2, [r3, #0]

    /* Check that the new number of wait states is taken into account to access the Flash
    memory by reading the FLASH_ACR register */
    if(__HAL_FLASH_GET_LATENCY() != FLatency)
 80024e6:	4b20      	ldr	r3, [pc, #128]	; (8002568 <HAL_RCC_ClockConfig+0x1b8>)
 80024e8:	681b      	ldr	r3, [r3, #0]
 80024ea:	f003 0307 	and.w	r3, r3, #7
 80024ee:	683a      	ldr	r2, [r7, #0]
 80024f0:	429a      	cmp	r2, r3
 80024f2:	d001      	beq.n	80024f8 <HAL_RCC_ClockConfig+0x148>
    {
      return HAL_ERROR;
 80024f4:	2301      	movs	r3, #1
 80024f6:	e032      	b.n	800255e <HAL_RCC_ClockConfig+0x1ae>
    }
  }

  /*-------------------------- PCLK1 Configuration ---------------------------*/
